:02000002D0002C
:1040000000400D0030ED0D00000005000E00050120
:0840100004013801000000006A
:1040180074BF0D0009480A49884208B505D0094A05
:10402800824202D0121A07F0F4FE0748074A00211C
:10403800121A07F0F9FE014808BD00BF04D8032092
:10404800E0E30D002CE103202CE1032000E803202D
:1040580070B506F04BFF074C074BE41AA40800257F
:104068001E46A54204D056F8253098470135F8E792
:1040780070BD00BFDCE30D00A0E30D0000F0A8BB9D
:1040880008B500F0B1F8BDE8084006F0FDBE05F03F
:10409800EBB805F0E9B805F0EFB8000010B58AB044
:1040A800202300240293074B009302AA21463C20B8
:1040B8002346039405F028F8034A21460C2005F00E
:1040C8001BF8FEE794BF0D00B18C0D000078B0FA24
:1040D80080F04009704701230370704710687047EB
:1040E800704710B50446243006F034F804F1140083
:1040F80006F030F8201D06F02DF8204610BD08B552
:1041080002F02EFF012008BD1FB501460B4806F03E
:1041180098F80A49684606F0A3F86946084800F086
:104128001BFC684606F016F8064B1B780BB101F02D
:1041380087F9012005B05DF804FB00BF44E10320C6
:1041480068E1032070E203201FB501460B4806F022
:1041580078F80A49684606F083F86946084800F086
:104168001DFC684605F0F6FF064B1B780BB101F005
:1041780067F9012005B05DF804FB00BFD4E1032016
:1041880068E1032070E203201FB501460B4806F0E2
:1041980058F80A49684606F063F86946084800F086
:1041A80020FC684605F0D6FF064B1B780BB101F0E2
:1041B80047F9012005B05DF804FB00BF34E1032096
:1041C80068E1032070E2032007B50823ADF800304A
:1041D800044B019304226B4604F0EEFF03B05DF834
:1041E80004FB00BFE5400D00F8B5A24E04F06CFDDD
:1041F800337807463BBBA04804F0D8FB9F4804F03F
:10420800D5FB9F4804F0D2FB9E4804F0CFFB9E48A4
:1042180004F0CCFB984804F0F9FB00287DD09748BF
:1042280004F0F4FB002878D0954804F0EFFB002850
:1042380073D0944804F0EAFB00286ED0924804F04A
:10424800E5FB002869D0914D2B785BB13378002BC2
:104258006ED107E002218E4804F0F4FC2B78013B74
:10426800DBB22B708B4B1B780BB101F085F88A49B8
:104278000B68FA1A894B9A421C4602D90F6002F061
:1042880001FF874A1368FB1AA34202D9176002F09C
:1042980067FE7A4804F08AFB784804F0B7FB08B94F
:1042A80001F0B0FB7F4B1C78002C40F0D4817248A1
:1042B80004F07CFB704804F0A9FB08B9012100E078
:1042C80021460C2006F057FE6C4804F06FFB6B4843
:1042D80004F09CFB08B9012100E000210E2006F043
:1042E8004AFE674804F062FB654804F08FFB08B992
:1042F800012100E000210D2006F03DFE614804F098
:1043080055FB604804F082FB08B9012100E0002158
:104318000F20BDE8F84006F02EBE0124347001F0ED
:1043280077F8234609226049594804F07BFC8AE75C
:104338005E4B1B78013B042B94D801A252F823F062
:104348005D430D005D420D0061430D0065430D00A6
:104358005D430D00032102E001217CE704214C4864
:1043680004F070FC2B78013BDBB2002804462B706C
:1043780040F335813378002B3FF474AF01F048F8EF
:104388004348494903688B422DD1013C082C3FF62C
:1043980069AFDFE804F005090D1115191D21250085
:1043A80001230622424952E10123042241494EE1F8
:1043B8000123032240494AE1012305223F4946E1FE
:1043C800012303223E4942E1012305223D493EE102
:1043D800012308223C493AE1012306223B4936E100
:1043E80001F034FA3EE7324A93421BD1013C052CD6
:1043F8003FF638AFDFE804F0030B0E36111400F077
:104408008DFF0F220021324803F0FDFF2AE701F05B
:1044180017F827E701F08EF924E700F0ADFF21E750
:10442800012312E1234A934212D1013C032C3FF6A7
:1044380019AFDFE804F00205080B02F0E7FB11E70B
:1044480001F000FB0EE701F027FB0BE70323FCE07C
:10445800194A93423ED1022C07D0032C08D0012CD4
:104468007FF400AF01F048F8FCE601F08DF9F9E6B9
:104478002346D4E030E10320E0E20320F8E2032001
:10448800D0E20320D8E20320C8E20320E4E10320BD
:1044980030E2032069E2032010E20320C0D40100C7
:1044A800E8E1032071E2032004D803202CE2032072
:1044B80080C10D0058C00D003CC00D00C8BF0D00E4
:1044C8002CC00D00C4C10D0008C10D005CC10D0059
:1044D800ECE10320604A934218D1013C042C3FF6DA
:1044E800C1AEDFE804F003070B0E1100082002F04C
:1044F80003FCB7E6082002F005FCB3E602F01AFD5B
:10450800B0E602F005FCADE604239EE0534A934270
:104518000ED1022C07D0042C08D0012C7FF4A2AEB7
:1045280001F0C0FB9EE601F015FE9BE605238CE03A
:104538004B4A934214D1013C042C3FF693AEDFE87A
:1045480004F00306090C780001F050F88AE600F040
:10455800BDFE87E601F0B2F984E601F087F981E64D
:10456800404A93421ED1013C072C3FF67BAEDFE860
:1045780004F004070A0D1013166500F08FFB71E6AE
:1045880000F0C0FB6EE600F00BFE6BE600F07EFC70
:1045980068E600F017FD65E600F086FD62E600F0CB
:1045A80015FE5FE6304A93427FF45CAE013C052C71
:1045B8003FF658AEDFE804F003060A0D104802F093
:1045C80085F94FE6012002F025FA4BE602F0D0F912
:1045D80048E602F03FFA45E602F072FA42E6441C69
:1045E8007FF440AE3378002B3FF43CAE1F4820499F
:1045F80003688B423FF436AE1E4A934201D1012331
:104608000DE01D4A934201D1022308E01B4A934260
:1046180001D1032303E0104A934202D10423092263
:1046280016E00E4A934201D10523F8E70C4A93425B
:1046380001D1062309E00B4A934201D1072304E084
:10464800094A93427FF40EAE082309490922074814
:1046580004F0E8FA06E6F8BDC8BF0D002CC00D004E
:10466800C4C10D0008C10D005CC10D0030E203207B
:1046780004D8032080C10D0058C00D003CC00D00B7
:1046880010B5254C9AB0684600F0F0F92046009B1A
:1046980040F8043B01A905F0EEFD05A904F114005A
:1046A80005F0E9FD09A904F1240005F0E4FD002363
:1046B8000DEB0301E218013391F8341082F834103D
:1046C800322BF5D16846FFF70CFD134800F0ACF922
:1046D80000B31149684600F013FA69460F4805F01F
:1046E800CAFD684605F036FD0B49684600F021FA18
:1046F80069460B4805F0BFFD684605F02BFD0649E5
:10470800684600F02FFA6946064805F0B4FD684689
:1047180005F020FD1AB010BD68E1032044E1032034
:10472800D4E1032034E103200246014804F02EBE00
:1047380069930D0008B514491448FFF745FD14495D
:104748001448FFF741FD14491448FFF73DFD0023C5
:1047580002221349134804F02FFD002302221249B4
:10476800124804F029FD12491248FFF7DDFF1249EB
:104778001248FFF7D9FF12491248FFF7D5FF12492F
:104788001248FFF7D1FF08BD44E1032016C20D000F
:10479800D4E1032022C20D0034E103202EC20D0013
:1047A800D0E103203AC20D0054E1032046C20D00B7
:1047B80011410D0050C20D0051410D005CC20D00A9
:1047C80091410D0068C20D0007410D0074C20D0033
:1047D8001FB506F087FA4FF4165106F077FA02F083
:1047E800D2F900F0FFFD684604F0FEFC69461A485D
:1047F80005F041FD684605F0ADFC184804F09BF84B
:104808000028FAD03C220221154803F001FD00F0EF
:104818005DFF00F083FDFFF78DFF02F0C3F9012172
:10482800082006F097FB01F0E5FC01F0E1FE02F03C
:1048380097FB02F027FC01F0CCFF082002F05CFA9D
:1048480004F0CAFCFFF71CFF0F220021044803F004
:10485800DAFD05B05DF804FB1CE2032058E10320F3
:10486800ECE1032010B50446FFF715FC204610BD07
:10487800F8B52B4B2B4D2C4E2C4F4FF69C725A8073
:1048880000244FF6FF721C709A80022004F044FC4A
:104898002146012004F050FC2146254C284603F00F
:1048A8005FFC22462349284606F048FC2946224850
:1048B800224D04F05FF93146384605F092FC38463F
:1048C8001F4F2246294606F039FC384600F0CEF83C
:1048D80022461C4938461C4F06F030FC1B4803F0A2
:1048E80097FE3146384605F07CFC3846184F22467C
:1048F800294606F023FC3146384605F072FC384656
:10490800144F2246294606F019FC3146384605F070
:1049180068FC224629463846BDE8F84006F00EBC39
:1049280014E20320ECE10320C0E00D001CE20320A8
:104938002CE10320E9400D0030E203205DA10D00C9
:1049480068E10320EB400D0044E1032058E1032017
:10495800D4E1032034E1032030B50D468FB00023A5
:104968000446322201A928468DF8353005F013FD9A
:104978002946201D012505F064FC256006F088FB0A
:10498800322201A9104604F0B7F906F081FB04228F
:104998002146284604F0B0F90FB030BD30B50D46B9
:1049A8008FB000230446322201A928468DF83530FD
:1049B80005F0F1FC294604F11400012505F041FC3D
:1049C800256006F065FB01A93222782004F094F9ED
:1049D80006F05EFB04222146284604F08DF90FB04C
:1049E80030BD30B50D468FB000230446322201A9F0
:1049F80028468DF8353005F0CEFC294604F1240010
:104A0800012505F01EFC256006F042FB01A93222B3
:104A1800BE2004F071F906F03BFB0422214628462B
:104A280004F06AF90FB030BD0068003018BF0120EB
:104A38007047000030B515468FB0044606F028FBD5
:104A480001A93222284604F04FF900238DF83530A9
:104A58009DF80430FF2B14BF01A90349204605F037
:104A6800C0FB20460FB030BDC0E00D00F0B50546D4
:104A7800002345F8043B044685B02049284604F144
:104A8800140705F0AEFB04F124061C49384605F06E
:104A9800A8FB1A49304605F0A4FB06F0F9FA0422EF
:104AA8002146012004F020F92368012B23D132226A
:104AB80021466846FFF7BEFF6946284605F0DBFB3E
:104AC800684605F047FB782221466846FFF7B2FFA3
:104AD8006946384605F0CFFB684605F03BFBBE2229
:104AE80021466846FFF7A6FF6946304605F0C3FB36
:104AF800684605F02FFB204605B0F0BDC0E00D006C
:104B080030B5CB680C4685B00546043453B932221B
:104B18006846FFF78FFF6946204605F0ACFB6846FC
:104B280005F018FB2146284605F09AFB284605B0F3
:104B380030BD30B5CB690C4685B00546143453B941
:104B480078226846FFF776FF6946204605F093FB12
:104B5800684605F0FFFA2146284605F081FB2846FD
:104B680005B030BD30B5CB6A0C4685B00546243457
:104B780053B9BE226846FFF75DFF6946204605F037
:104B88007AFB684605F0E6FA2146284605F068FBF8
:104B9800284605B030BD00002DE9F04F3A4B93464A
:104BA80001228FB01A70394A0491002414700593B9
:104BB80006AE2746364803F0FBF805F00FFA35191C
:104BC80030556F70052005F009FA033401301E2CAA
:104BD800A870EFD101F042FD059B1B78002B49D04E
:104BE800BDF91080002506AC63190FFA8BF65A78C8
:104BF800615D2748019601230293CDF80080254B7B
:104C0800033502F0B9FF1E2DEDD1214803F07EFCDB
:104C1800C82004F059FB00252F4694F801A01D4B2D
:104C28001B480DF11809524619F80510029701960C
:104C3800CDF8008002F0A0FFA37815489A445FFAE7
:104C48008AFA84F801A003F0B6F882450CDD104812
:104C580003F0AEF805F0C2F909F805006770052001
:104C680005F0BCF90130A07003351E2D04F10304D2
:104C7800D3D1B1E7044A1370074A1378013313708C
:104C88000FB0BDE8F08F00BF1AE203202CE203202A
:104C9800ECE1032087C20D00E4E1032008B500F031
:104CA800B7FB102211460248BDE80840FFF774BF61
:104CB80087C20D00F7B500F0ABFB002402260127E0
:104CC8000F4803F078F8844217DA0D4803F070F8BB
:104CD80005460B4803F06FF895FBF6F1234690FB69
:104CE800F6F209B212B20648009702F031FB02341C
:104CF800034803F00BFC24B2E2E703B0F0BD00BFA9
:104D0800ECE1032010B5074C01232370064B002269
:104D18001A7001F0A3FC237813B1FFF7CBFFFAE771
:104D280010BD00BF1AE203202CE203202DE9F04F4A
:104D380085B000F06DFB002402260127264803F009
:104D480037F80546244803F036F8A842A8BF284695
:104D580000B290FBF6F084423BDA1F4803F028F8D3
:104D680082461D4803F027F881461B4803F020F8C7
:104D78008346194803F01FF80546174803F018F84A
:104D88008046154803F017F895FBF6F59BFBF6F3FC
:104D9800A4B290FBF6F0204400B20290254498FBA0
:104DA800F6F020441B1B00B299FBF6F22DB2121B41
:104DB80001901BB212B208489AFBF6F1039709B2A8
:104DC800009502F0C9FD0534034803F09FFB24B2A7
:104DD800B4E705B0BDE8F08FECE103202DE9F04F12
:104DE80085B000F015FB284802F0E2FF044626488B
:104DF80002F0E1FFA042A8BF2046012704B2022525
:104E080094FBF5F4002C3BDD1F4802F0D1FF8246ED
:104E18001D4802F0D0FF81461B4802F0C9FF8346B7
:104E2800194802F0C8FF0646174802F0C1FF80463D
:104E3800154802F0C0FF96FBF5F69BFBF5F3A4B20C
:104E480090FBF5F0204400B20290264498FBF5F060
:104E580020441B1B00B299FBF5F236B2121B0190DD
:104E68001BB212B208489AFBF5F1039709B20096F3
:104E780002F09FFD053C044803F048FB24B2C1E75B
:104E880005B0BDE8F08F00BFECE1032010B50A4C77
:104E980001232370094B00221A7001F0DFFB2378ED
:104EA80043B1FFF743FF4FF47A7004F00DFAFFF7B0
:104EB80095FFF4E710BD00BF1AE203202CE203209F
:104EC8002DE9FF4700F0A4FA00254FF0020801275A
:104ED800194802F070FF90FBF8F000B202388542E2
:104EE80026DA154802F064FF8246134802F063FF91
:104EF800AEB274001FFA84F904460F4802F05BFF53
:104F0800C9EB04040422C9EB0A0390FBF2F024B2B3
:104F180002B2294601921BB22A460748029700941A
:104F280002F04FFCB51C044803F0F0FA2DB2CFE7AD
:104F380004B0BDE8F08700BFECE103202DE9F04F95
:104F480085B000F065FA002501264FF00208042715
:104F58001B4802F030FF90FBF8F000B2023885429F
:104F68002ADA174802F024FF8346154802F023FF87
:104F78001FFA85F94FEA49041FFA84FA04461048D3
:104F880002F019FFCAEB0404CAEB0B0390FBF7F01D
:104F980024B200B22A462946029601901BB208485C
:104FA800009402F092FC09F10205054886F001061A
:104FB80003F0ACFA2DB2CBE705B0BDE8F08F00BF27
:104FC800ECE1032010B5084C01232370074B0022A5
:104FD8001A7001F043FB237823B1FFF771FFFFF745
:104FE800ADFFF8E710BD00BF1AE203202CE2032052
:104FF80010B52A4C00F00CFA2046022102F0CCFE33
:105008002046012102F0CDFE00220A21204602F0AE
:10501800C0FE204603F0F0FA2149204604F047FF7D
:105028002049204604F043FF204603F06FFA0F2280
:105038000021204603F0C2F94FF4FA6004F044F965
:10504800204603F05FFA4FF47A7004F03DF90F221E
:105058000021204603F0D7F94FF4FA6004F034F940
:10506800204603F04FFA4FF47A7004F02DF9072226
:105078000021204603F0ECF94FF4FA6004F024F91B
:1050880020460722002103F010FA4FF4FA6004F0DA
:105098001BF92046BDE8104003F034BAECE10320C8
:1050A800A7C20D0088C80D0010B5074C0123237056
:1050B800064B00221A7001F0D1FA237813B1FFF7DA
:1050C80097FFFAE710BD00BF1AE203202CE2032085
:1050D8002DE9F74300F09CF9002601254FF002085E
:1050E800154802F068FE90FBF8F000B286421FDA1D
:1050F800114802F05DFE81460F4802F05CFEB7B22F
:105108007C00A4B2001B05F00102C4EB090304B241
:10511800314601921BB232460748009402F0D7F894
:1051280001350548FE1C03F0F1F9EDB236B2D7E7B8
:1051380003B0BDE8F08300BFECE103202DE9F7439D
:1051480000F066F900254FF002080127134802F025
:1051580032FE90FBF8F000B285421BDA0F4802F0ED
:1051680027FE81460D4802F026FEAEB27400A4B2B6
:10517800001BC4EB090304B22A4629461BB20748A0
:105188000197009402F058F8B51C044803F0BEF9E2
:105198002DB2DBE703B0BDE8F08300BFECE10320EC
:1051A80010B5084C01232370074B00221A7001F038
:1051B80055FA237823B1FFF7C1FFFFF789FFF8E716
:1051C80010BD00BF1AE203202CE2032010B53C4CAE
:1051D800012323703B4B00221A7001F03FFA237819
:1051E800002B6BD000F014F9FFF7A8FF364803F046
:1051F8008DF94FF4FA6004F067F8334803F0FCF9CE
:10520800FFF766FF304803F081F94FF4FA6004F0C5
:105218005BF82D4803F0F0F9FFF74CFD2A4803F03E
:1052280075F94FF4FA6004F04FF8274803F0E4F9F1
:10523800FFF746FE4FF4FA6004F046F8224803F000
:10524800DBF9FFF77BFE4FF4FA6004F03DF81E48E7
:1052580003F0D2F9FFF76AFD4FF4FA6004F034F86E
:10526800194803F0C9F9FFF7B9FD4FF4FA6004F0E3
:105278002BF8154803F0C0F9FFF7BAFE4FF4FA60AF
:1052880004F022F8104803F0B7F901210E4803F0A2
:105298008FF84FF47A7004F017F800210A4803F0E9
:1052A80087F84FF47A7004F00FF8074803F0A4F970
:1052B800054803F02BF9FFF7F1FC90E710BD00BF9C
:1052C8001AE203202CE20320ECE103201FB5114C65
:1052D800204603F091F9204603F018F90022114600
:1052E800204602F056FD8021402201238DE80E0061
:1052F80000221146084B204602F03EFC204603F0EF
:1053080005F90F220021204604B0BDE8104003F043
:105318007AB800BFECE1032083C40D0010B5134C2C
:10532800204603F069F92046012102F03DFD2046A0
:10533800012102F036FD2046022102F02DFD122245
:105348002046012102F025FD0949204604F0AFFD61
:1053580020462322002102F01CFD2046054904F0C6
:10536800A6FD2046BDE8104003F0D0B8ECE10320CC
:1053780083C80D008EC80D0070B5154D154C03F08F
:10538800A3FC2B7863B9144E336003F09DFC32689C
:10539800124B206053F82230984701232B7070BDC0
:1053A800236842F21072C31A93420FD920600A4C44
:1053B8000A4B226853F822309847094A2368126832
:1053C80001339342236004BF0023236070BD00BFF4
:1053D80069E2032074E203206CE2032030D8032042
:1053E8002CD80320054A00231370054A1370054A78
:1053F8001370054A1370054A1370704768E203205A
:1054080070E2032069E2032072E2032071E20320C4
:1054180010B50A4C204603F075F8204603F0ECF866
:10542800204603F073F800222046114602F0B1FC32
:1054380020460121BDE8104002F0B6BCECE1032093
:10544800F8B5284B284901221A70284A88689368B9
:1054580098420746B8BF1F4600280E46154601DC8D
:10546800002B3DDDFFF7D4FF214B9A680A2A1C4622
:1054780003D901211F4802F08FFCA36823B11C4BFC
:105488001C48196804F013FD0A2F05DD012119488D
:1054980002F082FC142204E00221164802F07CFC8F
:1054A8000A220021134802F074FC124804F0F3FCAD
:1054B800B36823B10C4B0F48196804F0F8FCAB68CB
:1054C80023B10A4B0B48196804F0F1FC094803F0B2
:1054D8001DF80F2200210748BDE8F84002F093BFED
:1054E800F8BD00BF70E2032044E10320D4E10320AB
:1054F80034E10320ECE103207FB5324CFFF788FF4D
:10550800012510262B23019312222F4B02952046AA
:105518000096072102F030FB2946204602F03CFCA9
:1055280032462046342102F034FC2849204604F053
:10553800BEFC2046022102F02FFC20461922302111
:1055480002F027FC224B0A221968204604F00AFDC3
:105558002049204604F0ABFC2946204602F01CFCFA
:105568002A221146204602F014FC1B49204604F06A
:105578009EFC2046022102F00FFC204632223021F8
:1055880002F007FC154B0A221968204604F0EAFCD1
:105598001349204604F08BFC14221B238DE80C00D1
:1055A8006921104B02951C22204602F0E5FA20469C
:1055B80002F0ACFF2946204602F0EEFB0A4B1D70B4
:1055C80004B070BDECE10320BCC20D0079C20D002F
:1055D800D0E1032099C80D009BC80D0054E10320B9
:1055E800A4C80D0032C40D0068E203201FB50C4C9E
:1055F800FFF70EFF8021302201238DE80E002046A0
:10560800084B1022002102F0B7FA204602F07EFF74
:105618000F220021204604B0BDE8104002F0F3BE7E
:10562800ECE1032043D10D0010B50C4606F061FCF7
:1056380004EBC4044443022094FBF0F0C0F14000A2
:1056480010BD00002DE9F74F012A1546064608BF90
:105658004FF040098A460CBF99FBF1F94FF0120947
:10566800FFF7D6FEE9B2184805EB450702F094FBB0
:10567800BF000024BFB2043EA0464FF00F0B3B19F9
:105688009BB2D045019318DA56F8040F2946FFF764
:10569800CBFF9BFBF5F1414404EB0902014412B234
:1056A80009B2094802F075FB3168074804F0FFFBAE
:1056B800019B08F101081C46E1E7034803B0BDE877
:1056C800F04F02F023BF00BFECE103207FB5164C7A
:1056D800FFF79EFE0126802530231022002101932A
:1056E8002046124B0296009502F046FA204602F038
:1056F8000DFF4FF4FA6003F0E7FDFFF789FE002283
:105708004023019311460A4B02962046009502F069
:1057180033FA204602F0FAFE4FF4FA6004B0BDE80E
:10572800704003F0D1BD00BFECE1032043D10D0070
:1057380083C40D0008B5114B01221A70FFF768FEEB
:1057480002210F4802F028FB0A2200210C4802F02F
:1057580020FB0B4804F09FFB0A4B9A681AB11968A2
:10576800074804F0A4FB064802F0D0FE0F220021EF
:105778000348BDE8084002F046BE00BF70E20320BF
:10578800ECE1032034E103201FB5FFF741FE0121BE
:105798002548264C02F000FB01221921224802F07C
:1057A800F8FA2349204804F06FFB0A2221681E48B2
:1057B80004F0D8FB1F491C4804F079FB23685A1EE3
:1057C800132A4FF0010206D8202348208DE809004B
:1057D8000292194B16E0A3F115011D2906D82023C2
:1057E80048218DE80A000292144B0BE0333B272B2B
:1057F80002924FF020034FF048028DE80C0094BF4E
:105808000F4B104B084817221C2102F0B5F9064827
:1058180002F07CFE0121044802F0BEFA0A4B012284
:105828001A7004B010BD00BFECE1032064E103204E
:10583800A6C80D00A4C80D0043D40D0012C30D0066
:105848000BCD0D002BCE0D0072E203201FB5064ACA
:1058580007CA01AB83E80700012203211846FFF7B6
:10586800F1FE05B05DF804FBB0C20D001FB5114C88
:10587800204602F0C1FE204602F048FE00221146F2
:10588800204602F086FA8021402201238DE80E008E
:1058980000221146084B204602F06EF9204602F01D
:1058A80035FE07220021204604B0BDE8104002F072
:1058B800FCBD00BFECE103200BC90D001FB5114C66
:1058C800204602F099FE204602F020FE00221146F2
:1058D800204602F05EFA40213F2201238DE80E00A7
:1058E80000221146084B204602F046F9204602F0F5
:1058F8000DFE07220021204604B0BDE8104002F04A
:10590800A7BD00BFECE103204BCF0D0010B50C4C38
:10591800FFF77EFD2046012102F03EFA23222046B1
:10592800022102F036FA2046012102F03DFA204613
:10593800044904F0BCFA2046BDE8104002F0E6BD78
:10594800ECE10320B1C80D0070B5064606F0D1FAA7
:10595800134D044604EBC404FFF75AFD2846012101
:1059680002F01AFA0834022194FBF1F1C1F14A015C
:105978001F22284609B202F00CFA2846012102F03B
:1059880013FA33460121074A284604F0EDFA28465F
:1059980002F0BCFD28460021BDE8704002F004BAC0
:1059A800ECE10320C6C80D001FB5134CFFF730FD0E
:1059B8002046012102F0F0F902222046052102F0DA
:1059C800E8F90E49204604F072FA802140220123AA
:1059D8008DE80E0000221146094B204602F0CCF853
:1059E800204602F093FD0F220021204604B0BDE8B6
:1059F800104002F008BD00BFECE10320D1C80D0043
:105A080083C40D0038B50B4C236825463BB103F021
:105A18005BF92368C01A084B1B68984209D903F040
:105A280053F92860002205490548BDE8384004F0CC
:105A38006BB938BD78E2032044D8032063D50D0044
:105A480008E4032038B50D4C236825463BB103F024
:105A58003BF92368C01A0A4B1B6898420DD903F01A
:105A680033F908492860084A084804F04DF90849FC
:105A78000848BDE8384003F059B838BD80E2032033
:105A880044D8032081D50D007AD50D0008E4032001
:105A98008BD50D0060E2032038B50D4C23682546F0
:105AA8003BB103F011F92368C01A0A4B1B689842EE
:105AB8000DD903F009F9084928600022074804F0C5
:105AC80023F907490748BDE8384003F02FB838BD27
:105AD80084E2032044D8032097D50D0008E403206E
:105AE800A4D50D0060E2032038B5046805467CB1F2
:105AF8006368013B63605BB9236820469B689847ED
:105B0800A368013BA3601BB923682046DB6898475C
:105B1800284638BD30B591B004460D4608A81A4944
:105B280004F05FFB0A22214604A804F0BDFB04A987
:105B380008A804F012FC154904F01BFC0A220446CC
:105B480029460CA804F0B0FB0CA9204604F005FC7B
:105B58000F4904F00EFC0F4B02681B780E498DF8B4
:105B6800003002A83C2303F031FD03A8FFF7BCFF77
:105B78000CA804F0EFFA04A804F0ECFA08A804F062
:105B8800E9FA11B030BD00BFB2D50D00BBD50D008C
:105B9800C8D50D007CE20320CAD50D0000B589B038
:105BA80001460A2204A804F07FFB094B049A1B78DB
:105BB80008498DF8003002A83C2303F007FD03A82C
:105BC800FFF792FF04A804F0C5FA09B05DF804FBDA
:105BD8007CE20320D6D50D00014B01221A707047D4
:105BE8007CE20320F7B5164C06B20FB201252B460E
:105BF8003A4631462046009501F0AAFB3A4631461E
:105C080020460095022301F0A3FB3A463146204680
:105C18000095032301F09CFB3A4631462046009547
:105C2800042301F095FB2046009505233A463146AA
:105C380001F08EFB204603B0BDE8F04002F066BCE0
:105C4800ECE1032010B5134CFFF7E2FB20460221DC
:105C580002F0A2F812222046012102F09AF80E4919
:105C6800204604F024F90D49204604F020F9204686
:105C7800012102F091F80A49204604F018F920465B
:105C880002F044FC4FF4FA6003F01EFBBDE810403C
:105C9800FFF7BEBBECE10320E5D50D00EED50D0006
:105CA800F7D50D002DE9F041334E34480123337008
:105CB800334B00221A7002F07BF8022490FBF4F0B8
:105CC80005B22E4802F077F890FBF4F004B2FFF723
:105CD800B9FF21462846FFF785FF00F0BFFCB04614
:105CE80098F80030002B45D0264802F05FFE254882
:105CF80002F08CFE08B9671E00E02746224802F031
:105D080055FE214802F082FE00B901371F4802F013
:105D18004DFE1E4802F07AFE08B96E1E00E02E46BF
:105D28001B4802F043FE1A4802F070FE00B9013623
:105D3800B54201D1BC4203D039463046FFF752FF85
:105D4800144802F033FE134802F060FE10B13C46DE
:105D58003546C5E7FFF75CFB084802F029F802243E
:105D680090FBF4F005B2054802F025F890FBF4F03A
:105D780004B2B5E7BDE8F0811AE20320ECE10320A4
:105D88002CE20320E8E20320F0E2032000E30320F2
:105D9800C0E20320C8E203200C4B1A680C4B1B68B6
:105DA8009A4210DD0B4B0C491B6809688B420ADDCF
:105DB8000A4909688A4206DA094A10688342B4BF68
:105DC8000020012070470120704700BF58D80320E9
:105DD800B4E203205CD8032048D8032050D803201D
:105DE80054D8032008B50A4B19680A4B18680139BA
:105DF800013004F0FEF8084B1860084B1968084B8E
:105E080018680139013004F0F4F8064B186008BD31
:105E180050D80320B4E20320B8E2032054D803206A
:105E280048D80320BCE2032070B50C4B0C4C1A6810
:105E38000C4B0D4D19680D4B18680423934208DA72
:105E4800E65C8E4202D1EE5C864204D00133DBB2BE
:105E5800F4E7002070BD012070BD00BF60D80320AA
:105E6800A0E2032058D8032088E203205CD803204E
:105E78002DE9F0433E4C87B0204601F099FF0025FC
:105E88000826431E1BB22A4600962946204601953D
:105E980001F01DFA2046012101F07EFF2046012174
:105EA80001F07FFF2A462946204601F072FF31495A
:105EB800204603F0E9FF304B0A2219680DEB060073
:105EC80004F005FA0299204603F0DEFF0DEB060008
:105ED80004F040F9204601F06BFF0127431E3246CB
:105EE80029468DE8C0001BB2204601F045F920463E
:105EF80001F061FF013800B22B4632462946009076
:105F08000197204601F038F9204601F051FF8046FC
:105F1800204601F04DFF8146204601F04CFF013834
:105F280009F1FF3308F1FF3100B232461BB209B262
:105F380000900197204601F01FF9204601F03BFF31
:105F48000646204601F034FF8046204601F033FF24
:105F5800013808F1FF33721E00B2009001971BB29E
:105F680012B22946204601F007F907B0BDE8F083D0
:105F7800ECE103200BD60D009CE20320F8B51E4C83
:105F88001E4F1F4E204602F037FB052211462046C1
:105F980001F0FFFE1B49204603F076FF204602F081
:105FA800B5FA194B00221A60204601233B6001F024
:105FB800FFFE022590FBF5F000B23060204601F0AC
:105FC800FAFE124B90FBF5F000B218603B68104ADD
:105FD8003168013BD1540F4AD0540F4B03224FF480
:105FE800FA601A6003F070F9204602F005FBBDE87C
:105FF800F840FFF73DBF00BFECE1032060D8032065
:1060080058D8032013D60D009CE203205CD8032047
:10601800A0E2032088E203204CD8032008B50C4BEB
:106028001A680C4B1B689A420FD10B4B1A680B4B22
:106038001B689A4209D10A4A13680A331360FFF7AA
:1060480017FFFFF7CFFE012008BD002008BD00BFE5
:1060580058D80320B8E203205CD80320BCE2032010
:106068009CE203202DE9F041314802F0C5FA314A9B
:106078003149B2F90020B1F900102D48012302F08E
:1060880025F8FFF7CBFF0646FFF786FE00284CD120
:10609800FFF7CAFE002848D1DFF8B080274F002458
:1060A800D8F80000254D2649844201DB034607E065
:1060B8003A5D095D1E48012302F008F80134EFE754
:1060C800002B07DD013BCA18CC5C5470EA18EC5C65
:1060D8005470F5E71B4A1C4B36B11C4C461C266015
:1060E80014680C541C682C5419480068013803289B
:1060F80010D8DFE800F00205080C1868013804E041
:106108001068013005E018680130186002E0106876
:106118000138106012681B682B700A70FFF7A8FE20
:106128000348BDE8F04102F0F1B9FFF727FFB3E7F4
:10613800ECE10320BCE20320B8E2032088E203205C
:10614800A0E2032058D803205CD8032060D803209D
:106158004CD80320F8B51E4C1E4D002601272E7082
:106168002770FFF755F900F079FA1B4B1B481E60A2
:106178001B4B1C4E08221A6001F01AFE1A4B0138FC
:106188001860164801F017FE184B01381860FFF721
:1061980029FE2378ABB12B78052B01D1022309E026
:1061A800022B01D1032305E0032B01D1376002E064
:1061B800042B00D13360FFF755FF3C2003F084F82F
:1061C800E7E7034A13700A4A137801331370F8BDDE
:1061D8001AE203202CE20320B4E20320ECE10320BE
:1061E80048D803204CD8032050D8032054D8032083
:1061F800E4E1032010B50021314C0C2004F0AAFE84
:1062080000210D2004F0A6FE022220460C2102F0F7
:10621800BEFB20462B4C322102F0C6FB0222204650
:106228000E2102F0B4FB2046274C322102F0BCFBC1
:10623800022220460D2102F0AAFB2046234C3221DF
:1062480002F0B2FB022220460F2102F0A0FB2046FA
:106258001F4C322102F0A8FB02222046062102F040
:1062680096FB20461B4C322102F09EFB0222204660
:10627800052102F08CFB2046174C322102F094FBDA
:1062880002222046042102F082FB2046134C3221D0
:1062980002F08AFB02222046032102F078FB204606
:1062A80032210F4C02F080FB02222046114602F0F8
:1062B8006EFB20463221BDE8104002F075BB00BFDE
:1062C800E0E20320F8E20320D0E20320D8E2032032
:1062D800E8E20320F0E2032000E30320C0E2032009
:1062E800C8E2032008B50E4802F03BFB0D4802F057
:1062F80038FB0D4802F035FB0C4802F032FB0C4825
:1063080002F02FFB0B4802F02CFB0B4802F029FB94
:106318000A4802F026FB0A48BDE8084002F021BB03
:10632800E0E20320F8E20320D0E20320D8E20320D1
:10633800E8E20320F0E2032000E30320C0E20320A8
:10634800C8E2032010B5104B1B78DBB102F0B4FC97
:106358000E4B1A68801A0E4A11684FF47A724A4333
:1063680090421C4600DA10BD0A4B1B781BB90A4A3A
:10637800137801331370094B03221A7002F09CFC46
:10638800206010BD10BD00BF30E1032008E30320EA
:1063980064D803201AE20320E4E103202CE203205E
:1063A80010B5104B1B78DBB102F086FC0E4B1A6857
:1063B800801A0E4A11684FF47A724A4390421C467A
:1063C80000DA10BD0A4B1B781BB90A4A137801334F
:1063D8001370094B02221A7002F06EFC206010BD87
:1063E80010BD00BF30E1032008E3032064D8032078
:1063F8001AE20320E4E103202CE2032010B5104B3D
:106408001B78DBB102F058FC0E4B1A68801A0E4A52
:1064180011684FF47A724A4390421C4600DA10BD64
:106428000A4B1B781BB90A4A137801331370094BBE
:1064380001221A7002F040FC206010BD10BD00BFA0
:1064480030E1032008E3032064D803201AE2032084
:10645800E4E103202CE2032010B5114B1B78EBB1CB
:1064680002F02AFC0F4B1A68801A0F4A11684FF481
:106478007A724A4390421C4600DA10BD0B4B1B78D7
:106488001BB90B4A137801331370FEF7ABFF094BA6
:1064980004221A7002F010FC206010BD10BD00BF6D
:1064A80030E1032008E3032064D803201AE2032024
:1064B800E4E103202CE2032010B5114B1B78EBB16B
:1064C80002F0FAFB0F4B1A68801A0F4A11684FF452
:1064D8007A724A4390421C4600DA10BD0B4B1B7877
:1064E8001BB90B4A137801331370FEF77BFF094B76
:1064F80005221A7002F0E0FB206010BD10BD00BF3D
:1065080030E1032008E3032064D803201AE20320C3
:10651800E4E103202CE2032010B502F0CDFB144B7C
:106528001B68C01A134B1A684FF47A735343984286
:106538001CDB0C2003F03AFA0E2003F037FA0D208A
:1065480003F034FA0F2003F031FA0B4B00241C70CF
:106558000A4B04221A700A4A137801331370FEF7A3
:1065680041FF2046BDE8104000F01CB910BD00BF37
:1065780008E3032064D803201AE203202CE2032056
:10658800E4E1032037B502F097FB134B1B68C01AF0
:10659800124B1A684FF47A735343984219DB104B25
:1065A800104A00251D70104B04241C701378013309
:1065B8001370FEF717FF284600F0F4F8204603F0A2
:1065C800F5F900954FF0FF3302220849204603F001
:1065D800C7F903B030BD00BF08E3032064D8032027
:1065E8001AE20320E4E103202CE2032061640D0099
:1065F80013B5002400944FF0FF33022212490620FD
:1066080003F0AEF900944FF0FF3302220F49052042
:1066180003F0A6F9022200944FF0FF330C4910460C
:1066280003F09EF900944FF0FF3302220949042039
:1066380003F096F900944FF0FF3302220649032035
:1066480003F08EF902B010BD4D630D00A9630D0073
:1066580005640D0061640D00C1640D0037B5124C6E
:106668000025214600954FF0FF3302220C2003F04D
:1066780077F9214600954FF0FF3302220E2003F0F0
:106688006FF9214600954FF0FF3302220D2003F0E9
:1066980067F900954FF0FF33022221460F2003F0DF
:1066A8005FF903B030BD00BF21650D0007B50420B8
:1066B80003F07CF90023009302224FF0FF330349D3
:1066C800042003F04DF903B05DF804FB8D650D005F
:1066D80008B502F0F9FA014B186008BD0CE3032075
:1066E800F8B5084D0E46002487B22146384604F016
:1066F80085FC304602F0E8FD2B681C44FF2CF4DDD5
:10670800F8BD00BF68D80320F8B5074D0E46FF2432
:1067180087B22146384604F071FC304602F0D4FDB9
:106728002B68E41AF5D5F8BD68D8032038B50D4DA7
:1067380005242146102004F061FC2146122004F0B3
:106748005DFC2146112004F059FC2146132004F079
:1067580055FC0F2002F0B8FD2B681C44FF2CE8DD27
:1067680038BD00BF68D8032038B50D4DFF24214639
:10677800102004F043FC2146122004F03FFC21467F
:10678800112004F03BFC2146132004F037FC0F20B5
:1067980002F09AFD2B68E41A002CE8DC38BD00BF33
:1067A80068D8032010B501280CBFFF240024214617
:1067B800102004F023FC2146122004F01FFC21467F
:1067C800112004F01BFC21461320BDE8104004F002
:1067D80015BC08B50321072004F0BCFB01211020DB
:1067E80004F0B8FB0121122004F0B4FB01211120B0
:1067F80004F0B0FB0121132004F0ACFBFFF796FF77
:10680800FFF7B2FFFFF792FFFFF7AEFFFFF78EFF2C
:106818000020FFF7C7FF4FF4FA7002F055FDFF2183
:10682800102004F0EBFB4FF4967002F04DFDFF21B1
:10683800122004F0E3FB4FF4967002F045FDFF21AF
:10684800112004F0DBFB4FF4967002F03DFDFF21B0
:106858001320BDE8084004F0D1BB10F0010110B5C9
:1068680018BFFF210446102004F0C8FB04F00203FF
:1068780003F0FF0103B1FF21112004F0BFFB04F076
:10688800040303F0FF0103B1FF21122004F0080400
:1068980004F0B4FB04F0FF0104B1FF211320BDE8AC
:1068A800104004F0ABBB000010B5074C2068012372
:1068B80003FA00F0C0B2FFF7D0FF23680133032BBF
:1068C800C8BF0023236010BD10E30320254A38B554
:1068D80000251570244C254A012323701370FFF7F7
:1068E800E5FE2846FFF75EFF2378D3B3FEF744FDA5
:1068F800FF21122004F082FB642002F0E5FCFF2156
:10690800112004F07BFB642002F0DEFCFF21132041
:1069180004F074FB642002F0D7FCFF21102004F07F
:106928006DFB642002F0D0FC0021122004F066FB0D
:10693800642002F0C9FC0021112004F05FFB6420F0
:1069480002F0C2FC0021132004F058FB642002F07E
:10695800BBFC0021102004F051FB642002F0B4FCC1
:10696800C2E738BD2CE203201AE2032071E20320BB
:10697800254A38B500251570244C254A0123237073
:106988001370FFF793FE2846FFF70CFF2378D3B365
:10699800FEF7F2FC0A211220FFF7A2FE052002F002
:1069A80093FC0A211120FFF79BFE052002F08CFCC6
:1069B8000A211320FFF794FE052002F085FC0A2126
:1069C8001020FFF78DFE052002F07EFC0A21122020
:1069D800FFF79AFE052002F077FC0A211120FFF745
:1069E80093FE052002F070FC0A211320FFF78CFEAD
:1069F800052002F069FC0A211020FFF785FE05201A
:106A080002F062FCC2E738BD2CE203201AE2032040
:106A180071E203200C4A70B5002515700B4C0C4A26
:106A28000123064623701370FFF740FE2846FFF740
:106A3800B9FE23783BB10EB1FEF79EFCFFF776FE58
:106A4800FFF792FEF5E770BD2CE203201AE203205F
:106A580071E2032037B5164A164C00251570164A00
:106A680001231370154A2370106851686B4603C3DD
:106A7800FFF71CFE2846FFF795FE2378ABB1FEF71B
:106A88007BFC042003F0AAFA02AB03EB4000FF21D1
:106A980030F8085C284604F0B1FA962002F014FC9D
:106AA8000021284604F0AAFAE7E703B030BD00BF8A
:106AB8002CE203201AE2032071E2032020D60D0005
:106AC800254A38B500251570244C254A0123237022
:106AD8001370FFF7EBFD2846FFF764FE2378D3B366
:106AE800FEF74AFCFF21122004F088FA962002F0F3
:106AF800EBFBFF21112004F081FA962002F0E4FB61
:106B0800FF21132004F07AFA962002F0DDFBFF2122
:106B1800102004F073FA962002F0D6FB0021102012
:106B280004F06CFA962002F0CFFB0021132004F049
:106B380065FA962002F0C8FB0021112004F05EFAE5
:106B4800962002F0C1FB0021122004F057FA96208B
:106B580002F0BAFBC2E738BD2CE203201AE2032098
:106B680071E20320FFF7B2BEFFF702BFFEF7CEBE09
:106B780008B5FEF719FF0020BDE80840FFF74ABF37
:106B88000846FEF7E1BE10B500231A461946184616
:106B980002F05AFB00231A4619461846BDE8104071
:106BA80002F03ABB10B50E4C0E4A0F49204603F0CE
:106BB800F1F80E4A0E49204603F0ECF80D4A0E494A
:106BC800204603F0E7F80D4A0D49204603F0E2F8A5
:106BD80020460C4A0C49BDE8104003F0DBB800BF62
:106BE80008E403206D6B0D0028D60D00716B0D00B5
:106BF80033D60D00756B0D0081D50D00796B0D0036
:106C08006ED50D00896B0D0044D60D0070B504F0EB
:106C180069F8002206461146104602F005FB174D9A
:106C2800174C184A002814BF2B462346012130462A
:106C380003F09AF904F056F8002206461146104669
:106C480002F0FAFA104A002814BF2B462346012105
:106C5800304603F089F904F045F80022064611464B
:106C6800104602F0F9FA094A002814BF2B462346B9
:106C780001213046BDE8704003F076B95AD60D00C0
:106C88005ED60D0061D60D0070D60D0082D60D00BF
:106C98002DE9F04188460C1D0125C6B24FF47A77DC
:106CA800D8F80030B5EB430F04F108041CDC54F8A5
:106CB800042C54F8081C97FBF2F2304603F0B6FB9C
:106CC80054F8040C97FBF0F004F0DAFC08A3D3E9BD
:106CD800002304F03BFD04F0FBFF02F0F5FA304618
:106CE80003F0BBFB0235DBE7BDE8F081AFF30080C2
:106CF800CDCCCCCCCCCCF43F0149FFF7C9BF00BF09
:106D08008CD70D000149FFF7C3BF00BF90D60D0017
:106D1800F8B50720FFF7A1FD0020FFF79EFD144EF0
:106D28000224144F0025FFF7BFFD326857F82510DD
:106D3800082003F07BFB306804F0A2FC0AA3D3E927
:106D4800002304F003FD04F09BFF02F0BDFA0135B7
:106D5800082003F082FB202DE5D1013CE1D120463B
:106D6800BDE8F840FFF779BDCDCCCCCCCCCCF43F16
:106D78006CD803200CD70D001FB5114C204601F02C
:106D88003BFC204601F0C2FB00221146204601F0E0
:106D980000F88021302201238DE80E002046094B9F
:106DA8001022002100F0E8FE204601F0AFFB0F2280
:106DB8000021204604B0BDE8104001F024BB00BF0C
:106DC800ECE10320E8D70D00F8B54F4D2B685A1EAB
:106DD800012A1DD84D4E4E4933684E4F4E4A51F840
:106DE800234057F823301268002B04FB02F40ADD15
:106DF800FF21102004F002F93368224657F82310C7
:106E0800082003F013FB3368013333600C2B4AE08E
:106E1800032B01D0052B21D13F4B3C4E1C68326817
:106E28003E493F4F630051F822405C4357F82230F7
:106E3800002B0EDDFF21122004F0E0F83368224613
:106E480057F82310082003F0F1FA364A1368013383
:106E580013603368013333603E2B24E023F00203D0
:106E6800042B29D1294E30493368304F2A4A51F82A
:106E7800234057F823301268002B04FB02F40EDD80
:106E8800FF21112004F0BAF83368224657F823107E
:106E9800082003F0CBFA234A1368013313603368E0
:106EA800013333603A2B07D92B68184A01332B601A
:106EB800002313601B4A1360204602F005FA0820DD
:106EC80003F0CBFA0021102004F098F800211220DA
:106ED80004F094F80021112004F090F8144B07EE08
:106EE800904A93ED007AF8EEE77A67EE877AFCEE3F
:106EF800E77A17EE900A02F0E7F92B68072B02BF32
:106F0800014B01221A60F8BD58DB032014E303206B
:106F180094DB03205CDB032090DB03205CDA032096
:106F280060D9032018E3032070D80320C8DB0320AE
:106F38005CD9032038B5084C01232370074B002582
:106F48001D70FFF719FF2846FFF72CFC237813B1B3
:106F5800FFF73AFFFAE738BD1AE203202CE20320D4
:106F68002DE9F843404C414D4148D4F80090D5F8FC
:106F780000802DED028B01F097FB10EE100A04F053
:106F880091FB37A3D3E9002304F0E0FB0022394B3F
:106F980004F02AFA0022384B04F0D8FB0022002320
:106FA80006460F4604F058FE0022344B20B1304606
:106FB800394604F019FA03E03046394604F012FA6B
:106FC80004F05EFE04F05CFB00222B4B04F0E8FCAE
:106FD80004F056FE2060264801F020FBF2EE047A09
:106FE80020EE270AB0EE678AB5EEC00AF1EE10FA75
:106FF80010EE100A06DB04F055FB00221F4B04F0CC
:10700800F3F905E004F04EFB00221C4B04F0EAF90A
:1070180004F036FE07EE900AB8EEE77A2068C7EE6D
:10702800087AFDEEE77A17EE901AC5ED007AFEF7BA
:1070380071FD134B1B786BB10B4B1B68994503D142
:107048000A4B1B68984505D0BDEC028BBDE8F84398
:10705800FEF752BABDEC028BBDE8F883AFF30080AF
:10706800CDCCCCCCCCCCFC3FD0E1032054E10320E8
:1070780058E1032000004040000024400000E03FA9
:1070880068E2032038B5154C1820256803F09FFFE7
:107098006423584340F6FF7390FBF3F0002806DBA7
:1070A80004F0EEFA00220E4B04F09EF905E004F01D
:1070B800E7FA00220A4B04F095F904F0E1FD20609C
:1070C800FEF76CFD074B1B783BB1044B1B689D42D8
:1070D80003D0BDE83840FEF757BB38BD64E1032054
:1070E8000000E03F72E203207047000010B5064B35
:1070F800036064330446036103F057FA204603F043
:10710800B5FC204610BD00BF74E20D0010B5044662
:10711800FCF7C1FF204610BD10B50446FFF7E6FF97
:107128002046FCF7B8FF204610BD000038B50C4CCF
:107138000C4D204603F07CFC2A460B49204603F000
:10714800FDFF01F0A9FD094C094B1860204602F02B
:1071580075FC2A4620460749BDE8384003F0EEBFD3
:1071680038E303202CE10320F5700D001CE3032015
:1071780034E30320F1700D002DE9F04F85B01E4671
:10718800BDF93830BDF83CA015469A1A002AB8BF98
:1071980052420092721A002AB8BF524201920C461B
:1071A800009A01998A42814605DD32461E461346F9
:1071B80022462C461546B44205DD2A461D4613468E
:1071C8002246344616465A1B002AB8BF5242C4EB20
:1071D80006089D42B4BF01234FF0FF331FFA88F819
:1071E800029303920FFA88F7022297FBF2F7B44250
:1071F8001FDC019A009B9342D9F80030C8BF224691
:10720800D3F810B0C8BF29465346DCBF2A462146EA
:107218004846D847039BFF1ABBB21FB2002F05DAB6
:10722800029A08EB030715442DB23FB2013424B289
:10723800DDE705B0BDE8F08F2DE9F347BDF82C6018
:107248000768BDF928A000960446FF6991460D46D7
:107258009846B847236800960AF1FF324A44DF6926
:1072680029464346204612B2B847236800969F69CC
:107278004A46534629462046B84723680A9608F1E5
:10728800FF3129449D694A46534609B22046AC4617
:1072980002B0BDE8F047604737B5013B13440468C6
:1072A800BDF8185001951BB2009364690B46A047BE
:1072B80003B030BD37B5BDF8185004688DE8240018
:1072C800013B0B4464691BB2A04703B030BD2DE9F4
:1072D800F347BDF92880BDF82C90054617460C46A3
:1072E80001EB030A54450BDA2B68CDF800909E6930
:1072F800214643463A4628460134B04724B2F1E7CE
:1073080002B0BDE8F08713B5B0F90E20046801910A
:1073180000920022B0F90C30646A1146A04702B00E
:1073280010BD704730B501810024084D428181812C
:10733800C2814FF6FF7101224460056044760482E1
:1073480044820276C1828182827630BDF0DA0D00F5
:107358002DE9F04F8BB01FFA82FB0393BDF80C6048
:10736800BDF85050C6F101031BB20293C6EBC633F9
:107378005B001BB2069303680446174606EB0B0234
:10738800D3F8109012B22B468846C8472368C6EB3C
:107398000B024146D3F8109012B22B462046C8473C
:1073A8001FFA88F3F118019323683A46D3F810803E
:1073B80009B22B462046C047019B991B23683A46D1
:1073C8001E6909B22B462046B04700230593019B4E
:1073D80001330793019B013B08930BF101030993C8
:1073E800BDF91430039A934280F28480029B002BEB
:1073F8000BDB531E1BB20393069B02339BB21AB2DC
:107408000692029A13441BB20293BDF81470029BB1
:1074180003EB470303331BB20293079B07EB030AF3
:10742800BDF80C3004930BEB030923680FFA8AFAB2
:107438000FFA89F9D3F810804A4651462B46204660
:10744800C047089BC7EB030823681B690FFA88F835
:107458001E464A4641462B462046B047049BC3EB8E
:107468000B0923681B690FFA89F91E464A465146DB
:107478002B462046B04723684A46D3F810A0414619
:107488002B462046D047019B049A03EB0208099B30
:1074980007EB030923680FFA88F80FFA89F9D3F87C
:1074A80010A04A4641462B462046D047019B049AE5
:1074B8009E1A236836B24A46D3F810A031462B46A6
:1074C8002046D0470BF1FF33DF1B23683FB241460C
:1074D800D3F810903A462B462046C84723683A46C8
:1074E800D3F8108031462B462046C047059B013310
:1074F800059375E70BB0BDE8F08F2DE9F04F87B025
:107508001D469DF840300393ABB20292C3F10102CD
:10751800C3EBC3335B001BB2049300230193039BAB
:10752800BDF8447003F0040312B2DBB204460092C3
:1075380005931FFA81F8BDF90430AB4280F29D80B3
:10754800009B002B0ADB049B02339BB21AB2049205
:10755800009A1344013D1BB22DB20093009BBDF865
:10756800046003EB460303331BB20093059BEBB1A6
:10757800BDF8089023681FFA85FA08F1010109EBA4
:107588000A023144D3F810B012B23B4609B2204681
:10759800D847236809F10102324408EB0A01D3F8FD
:1075A80010B012B23B4609B22046D847039B990750
:1075B8001DD5BDF8089023681FFA85FA08F1010166
:1075C800CAEB09023144D3F810B012B23B4609B2F3
:1075D8002046D847236809F1FF32921B08EB0A01BD
:1075E800D3F810B012B23B4609B22046D847039BE5
:1075F8001A071DD5BDF8089023681FFA85FA09F106
:1076080001003218CAEB0801D3F810B012B23B4699
:1076180009B22046D847236808F1FF310AEB09026E
:10762800891BD3F810B012B23B4609B22046D8479E
:10763800039BDB0703D4019B013301937BE7BDF870
:10764800089023681FFA85FA09F1FF30821BCAEBFC
:107658000801D3F810B020463B4612B209B2D84709
:10766800236808F1FF31CAEB0902891B12B21E69AF
:1076780009B23B462046B047DDE707B0BDE8F08FCA
:107688002DE9F04F8DB01E469DF858300993BDF98D
:107698005C300A93BDF860300493B3B2C3F10108BB
:1076A800C3EBC3335B001BB2069300230393099B10
:1076B800089203F0010304460FFA88F80B931FFAA7
:1076C80081FBBDF90C30B34278DAB8F1000F09DB61
:1076D800069B02339BB2013E1AB2984436B2069218
:1076E8000FFA88F8BDF80CA04FEA4A039BB205933D
:1076F800033398440B9B0FFA88F853B3BDF828302E
:1077080025680498BDF8207000901FFA86F9A869CA
:1077180007930BF10101013303EB4903C9EB07029E
:10772800514405461BB212B209B22046A847079B2E
:10773800059A2068049D0095033313447A1ECAEB0A
:1077480002020BEB090185691BB212B209B220468D
:10775800A847099B9B0703D4039B01330393B0E716
:10776800BDF82050BDF8289004980795B7B2EA1BD9
:1077780025680090A86909F101030BF1FF3103EBBB
:107788004703CAEB010105461BB2204612B209B2F3
:10779800A847059A2068049D009509F103031A4437
:1077A8001346079A8569013ACAEB0202C7EB0B0137
:1077B8001BB212B209B22046A847CDE70DB0BDE80A
:1077C800F08F2DE9F04F89B09BB2BDF94C9007912D
:1077D8001FFA89FABDF81C1004934FEA4A03039173
:1077E8009BB25144059309B20291049B0599BDF8D7
:1077F8005060BDF948805F1A036800963FB293460F
:10780800DD6902993B461FFA88F80446A8471FFA23
:107818008BF508F1FF332B449BB20693236800963F
:10782800D3F81CB0BDF9182002993B462046D8472A
:10783800059B00965544C3EB0808236807999F6980
:107848002DB20FFA88F843462A462046B847039BCC
:10785800049A00969F18BFB22368791ED3F818B00F
:107868002A464346204609B2D847012300932A46B0
:107878004B46029901962046FFF73FFE6FEA0A033E
:107888001F443FB2022300932A464B4639462046FE
:107898000196FFF732FE069B0196CAEB030A0FFA20
:1078A8008AFA0423009352464B4639462046FFF78E
:1078B80024FE08230299129352464B4620461396FB
:1078C80009B0BDE8F04FFFF718BE2DE9F04F89B0B9
:1078D80089B2BDF94CA0BDF9484007941FFA8AF84F
:1078E8004FEA4804BDF850B005919DB201EB080776
:1078F800A3B20168079C06933FB2CDF804B0009488
:10790800EB1A4C6A1BB2394681461646A047079BBC
:10791800CDF808B05C1E069BE41A059B691E464418
:10792800194436B224B2C8EB010101230093324650
:1079380053464846019409B2FFF7A2FE0223129368
:107948003246534639464846CDF850B0139409B0EC
:10795800BDE8F04FFFF794BE2DE9F04F85B00768FA
:10796800BDF84450BDF9389001950446CDF8009013
:1079780003927F69BDF93C60BDF940808A469B4609
:10798800B84723680195CDF800805F694A463346B9
:1079980059462046B8472368039A0E920F955D69A9
:1079A8004246534631462046AC4605B0BDE8F04F46
:1079B80060472DE9F04F8DB01546BDF95860BDF907
:1079C80060200C46B542BDF8641005918146BDF9AA
:1079D8005C0006DD95420EDDA846214635461C466C
:1079E80004E0964240F3C280B0461946AA420BDB37
:1079F800164603460CE0904632462E4615461A4671
:107A080001462346144603E02E46234615460446FF
:107A180045451DD19C4205DCA342B8BF23461A4602
:107A2800234614B28B4204DC8C42B8BF0C4624B205
:107A38001946D9F80020059816900134631AD469BC
:107A48001BB22A464846A4460DB0BDE8F04F604731
:107A58001FFA83FBA3B20293C3EB0B039BB2A8B23A
:107A68000993B3B21A1A12B20A92029A89B28A1AFE
:107A780092B2464504921FFA88F2A2EB0000CBEBC3
:107A88000101A2EB030218BF03F1FF3300B289B270
:107A980012B218BF1BB24FF0000A079008910B9260
:107AA80014BF069306962F46CDF80CA0069B9F425E
:107AB80029DC039B0A9A93FBF2F1029B029A039832
:107AC8001944079B9AFBF3F31344099A024412B230
:107AD80009B21BB20392049A059800909942924405
:107AE800C2BF0A4619461346D9F800200133D269A5
:107AF8005B1A14461BB23A46484601370FFA8AFA0F
:107B0800A0473FB2D2E7BDF82030BE1B16FB03F6F4
:107B1800BDF810307D1B15FB03F536B22DB2474575
:107B280027DC029A0B9B96FBF3F1079B95FBF3F37B
:107B38001344089A05980090594409B21BB2164498
:107B4800049A99421544C2BF0A461946134601339E
:107B5800D9F800205B1AD2F81CA01BB23A46484656
:107B6800013736B22DB2D0473FB2D8E7904601462A
:107B78004EE70DB0BDE8F08F2DE9F04F87B09A467B
:107B8800BDF9443002938DE80300BDF84830BDF9D3
:107B9800408003930024082325460593914608F165
:107BA800070292FBF3FB029A2BB29A4225DD09EBFE
:107BB80005031BB20026049333B243451ADA059A2B
:107BC80093FBF2F30AEB0402B1B2D25C802001F01D
:107BD800070340FA03F31A420AD0019B049A00985B
:107BE8001944009B1B681B6909B21F46039BB847D1
:107BF8000136E1E701355C44D5E707B0BDE8F08F11
:107C08002DE9F04F8FB005460691BDF86010079139
:107C1800BDF864100891B0F90C1006989DF86880BA
:107C280081427CDDB5F90E10914278DD062111FB09
:107C38000800002873DD02EBC80000286FDD03EBA5
:107C4800830396B20C9306F108039BB209910024B2
:107C58000D93052C1CBF334B0C9A059616BF1B19A8
:107C68004FF0000913F8029004961FFA88F3039363
:107C7800039ABDF8183004FB023213FA84F312B2E7
:107C88001BB20A9237460FFA88FA0B9319F0010FC4
:107C980011D0B8F1010F2B6803D1D3F810B0079BAE
:107CA80014E0079A0192CDF800A0D3F824B0BDF9EA
:107CB8001020534618E0079B089A934217D0B8F152
:107CC800010F2B6807D1D3F810B013463AB20B99BD
:107CD8002846D8470BE0089A0192CDF800A0BDF9D4
:107CE8001420D3F824B053460A992846D847049B51
:107CF800039A13449BB20493059B13449BB2013728
:107D080005930D9BBFB29F424FEA5909BED1099B0B
:107D1800013B013413F0FF0364B2099399D10FB00A
:107D2800BDE8F08F20DB0D0030B50A2985B0044688
:107D38000B4604D1027E438A03EBC20323E00D29DC
:107D480024D0057EB0F91220B0F910100295C58A2A
:107D58000195858A0095FFF753FF227E238A91B209
:107D680001EB410003EB4003A07E1BB2238268B104
:107D7800B4F90C006FF0050505FB0202934205DD1E
:107D8800638A03EBC103638200232382012005B0C9
:107D980030BD018242827047002908BF0121017667
:107DA8007047C1828182704781767047407E7047F4
:107DB800B0F90C007047B0F90E007047F0B5447E7A
:107DC800BDF81450022C08D0032C0FD0012C70D110
:107DD8000489013CA21A12B20CE04489013CA21A9F
:107DE8000489E41A611A12B209B262E04489E41AF9
:107DF800611A09B2002A5BDBB0F90840944240F3EB
:107E080090800029BEBF5B181BB20021B0F90A00A0
:107E1800CC188442C4BF431A1BB2002B40F38180A4
:107E2800C9B2C8083F4F02EBC01211F00701DBB21C
:107E380007EB020417D0C1F10801C8B23A498342DE
:107E48000E5C3FBFC3EB000EFF2141FA0EF10E405E
:107E5800B95C012D0CBF3143B1438342B95460D39F
:107E6800181AC3B28034072B17D9012D0CBFFF2075
:107E7800002004F180011A46083AD2B2072A01F814
:107E8800800C01F18001F7D8A3F10802C2F3C40203
:107E9800013204EBC21403F00703002B41D0234A3C
:107EA800D25C2378012D0CBF134393432370F0BD9C
:107EB800F0BD002A35DBB0F90A40944231DD0029D3
:107EC800BCBFC9180BB2B0F90870B8BF0021CE18F2
:107ED800BE42C4BF631A1BB2002B22DDD01001EBD7
:107EE800C011104802F007020144012000FA02F212
:107EF8008542D2B209D1013B1BB25C1C11D011F8EA
:107F0800010B104301F8010CF5E7D243D2B2013B53
:107F18001BB2581C05D011F8010B104001F8010CD8
:107F2800F5E7F0BDC4DC0320BCDC0320B4DC03208F
:107F3800F0B5447EBDF81450022C08D0032C0FD0A5
:107F4800012C12D10489E41AA21A12B26DE0048934
:107F5800013C611A4489E41AA21A09B212B204E077
:107F68004489013C611A09B25FE000295CDBB0F981
:107F780008408C4240F39180002ABCBFD21813B24B
:107F8800B0F90A00B8BF0022D4188442C4BF831ACB
:107F98001BB2002B40F38180D4B2404EDAB2E30822
:107FA80001EBC31114F0070406EB010317D0C4F169
:107FB8000804E0B23A4C8242275C3FBFC2EB000E95
:107FC800FF2444FA0EF42740745C012D0CBF3C4397
:107FD800BC438242745460D3101AC2B28033072A59
:107FE80017D9012D0CBFFF24002403F1800011468E
:107FF8000839C9B2072900F8804C00F18000F7D889
:10800800A2F10801C1F3C401013103EBC11302F06D
:108018000702002A41D02349895C1A78012D0CBF38
:108028000A438A431A70F0BDF0BD002935DBB0F968
:108038000A408C4231DD002ABCBFD21813B2B0F915
:108048000870B8BF0022D618BE42C4BFA31A1BB21C
:10805800002B22DDC81002EBC012104801F0070106
:108068001044012202FA01F19542C9B209D15A1EFF
:1080780013B25C1C11D010F8012B0A4300F8012C34
:10808800F5E7C943C9B25A1E13B25A1C05D010F8F5
:10809800012B0A4000F8012CF5E7F0BDC4DC0320F1
:1080A800BCDC0320B4DC032010B42AB1194606480E
:1080B8005DF8044B02F03EB80122C9B2C0B25DF8C7
:1080C800044B02F0C1BF00BF40E70320F8B50D1E06
:1080D800064614461F463FDBFFF76AFE85423BDA39
:1080E800002C39DB3046FFF766FE844234DA30462E
:1080F800FFF75CFE022827D13189708901390138E0
:10810800491B001B0DB204B206E0012804D13389D3
:10811800013B1B1B2C461DB20820012F94FBF0F0DD
:1081280000B20E4B04F0070205EBC01104D19740D2
:108138005A5C17435F54F8BD585C012707FA02F2EE
:1081480020EA02025A54F8BD0328DED17389013BA4
:108158005B1B25461CB2DFE7F8BD00BFC4DC03206B
:1081680038B5402204460D468021FFF7DBF8064B60
:108178002360FF23637784F82130E377A37784F8BB
:108188002050204638BD00BF24E00D0038B590F9D6
:108198001D30013304460D4622D090F921000121FB
:1081A80080B202F0E8FE94F91F00002180B202F0CC
:1081B800E2FE94F92100002180B202F0DCFE94F97D
:1081C8001E1094F91D0094F822202B46FFF76CFF2F
:1081D80094F92100012180B2BDE8384002F0CBBEFD
:1081E80002F06AFF94F91B1001F0AAFB02F064FF89
:1081F800036800219B68984702F05EFF03682946E0
:108208009B68984702F058FFBDE8384001F09FBBD3
:1082180038B504460D46217790F91D30C2760133F2
:1082280033D090F91F00012180B202F093FE94F937
:108238002100012180B202F08DFE94F822305BB952
:1082480094F91D00012180B202F084FE94F91E0009
:10825800012180B202F07EFE94F82230CBB194F96D
:108268002100012180B202F086FE01214F4801F071
:1082780000FF10214D4801F049FF00214B4801F053
:10828800FBFE4A4801F0F0FE03E002F015FF01F0A2
:108298003FFB94F92000012180B202F05BFE94F9C3
:1082A8002000012180B202F066FE012001F00CF8E6
:1082B80094F92000002180B202F05DFE0A2001F04E
:1082C80003F894F92000012180B202F054FE204600
:1082D800AE21FFF75BFF2046D521FFF757FF204669
:1082E8008021FFF753FF2046A821FFF74FFF2046C4
:1082F8003F21FFF74BFF2046D321FFF747FF2046DA
:108308000021FFF743FF20464021FFF73FFF8D2163
:108318002046FFF73BFF012D0CBF102114212046FA
:10832800FFF734FF20462021FFF730FF20460021C9
:10833800FFF72CFF2046A121FFF728FF2046C82180
:10834800FFF724FF2046DA21FFF720FF20461221FD
:10835800FFF71CFF81212046FFF718FF012D0CBFF6
:108368009F21CF212046FFF711FFD9212046FFF793
:108378000DFF012D0CBF2221F1212046FFF706FF3A
:108388002046DB21FFF702FF20464021FFF7FEFED3
:108398002046A421FFF7FAFE2046A621FFF7F6FEA5
:1083A8002046AF21BDE83840FFF7F0BE40E7032084
:1083B80009B1A72100E0A621FFF7E8BE70B5044681
:1083C8000E4626211546FFF7E1FE20460021FFF75D
:1083D800DDFE31462046FFF7D9FE20460021FFF793
:1083E800D5FE29462046FFF7D1FE20460021FFF79B
:1083F800CDFE2046FF21FFF7C9FE20462F21BDE80C
:108408007040FFF7C3BE70B504460E4627211546D7
:10841800FFF7BCFE20460021FFF7B8FE3146204694
:10842800FFF7B4FE20460021FFF7B0FE294620469C
:10843800FFF7ACFE20460021FFF7A8FE2046FF21EB
:10844800FFF7A4FE20462F21BDE87040FFF79EBE2F
:1084580070B504460E46A3211546FFF797FE204641
:108468000021FFF793FE20464021FFF78FFE2046AC
:108478002921FFF78BFE20460021FFF787FE3146B2
:108488002046FFF783FE20460021FFF77FFE29469E
:108498002046FFF77BFE20460121FFF777FE2046A6
:1084A8002F21BDE87040FFF771BE70B504460E4637
:1084B800A3211546FFF76AFE20460021FFF766FE56
:1084C80020464021FFF762FE20462A21FFF75EFE84
:1084D80020460021FFF75AFE31462046FFF756FE98
:1084E80020460021FFF752FE29462046FFF74EFEA0
:1084F80020460121FFF74AFE20462F21BDE87040A3
:10850800FFF744BE2E21FFF741BE00002DE9F041E0
:1085180021210446FFF73AFE00212046FFF736FEE8
:108528007F212046FFF732FE22212046FFF72EFE4C
:1085380000212046FFF72AFE07212046FFF726FEE6
:1085480094F91D30DFF8AC8001332ED094F9210066
:10855800012180B202F00FFD94F91F00012180B2C1
:1085680002F009FD94F92100002180B202F003FD18
:10857800012000F099FB002518F8053094F8222016
:1085880094F91E1094F91D000135FFF78DFDB5F51E
:10859800806FF1D1012000F087FB94F921000121BF
:1085A80080B2BDE8F04102F0E6BC002502F084FD8F
:1085B80094F91B1001F0C4F902F07EFD0368402114
:1085C8009B689847002602F077FDAF190368BFB291
:1085D8009B6818F8071001369847102EF3D110350C
:1085E80002F06AFDADB201F0B2F9B5F5806FDDD1E8
:1085F800BDE8F081C4DC03204FF48062002101480B
:1086080003F012BCC4DC03200368C9B29B68184796
:1086180040220272002242600260704710B5044690
:1086280002F04AFD94F9081001F08AF902F044FDBD
:108638000368F5219B68984702F03EFD002101F090
:1086480082F9192000F040FE02F036FD94F9081076
:10865800032201F06CF902F02FFD03685B6998476B
:1086680084B202F029FD03685B69984740EA042058
:1086780004B202F021FD03685B699847A3B207EED4
:10868800903A9FED067AF8EE677AB9EE080A67EE37
:10869800877A9FED037AA7EE870A10BD0000FA4299
:1086A800000080370000000010B5044602F004FD09
:1086B80094F9081001F044F902F0FEFC0368F32174
:1086C8009B68984702F0F8FC002101F03CF919205A
:1086D80000F0FAFD02F0F0FC032294F9081001F012
:1086E80026F902F0E9FC03685B69984784B202F056
:1086F800E3FC03685B69984740EA042004B202F08F
:10870800DBFC03685B699847A0B207EE900AF8EEB5
:10871800677A17EE900A02F0C5FF10A3D3E9002389
:1087280003F014F803F0F4FADFED0B7A07EE100A01
:1087380067EE277A17EE900A02F0B4FF04A3D3E994
:10874800002302F04FFE03F0E3FA00EE100A10BD1A
:10875800CDCCCCCCCC6C474000008037D7A3703D43
:108768000AF7654010B5044602F0A6FC94F9081013
:1087780001F0E6F802F0A0FC0368FE219B68984728
:1087880002F09AFC01F0E3F83220BDE8104000F056
:108798009BBD10B5044602F08FFC94F9081001F057
:1087A800CFF802F089FC0021FFF72EFF02F084FCCD
:1087B8000F21FFF729FF02F07FFC01F0C8F802F053
:1087C8007BFC082294F9081001F0B1F802F074FC5F
:1087D80003685B699847206002F06EFC03685B6978
:1087E800984723681B02236002F066FC03685B69F4
:1087F800984723681843206002F05EFC03685B69B1
:10880800984723681B02236002F056FC03685B69E3
:10881800984723681843206002F04EFC03685B69A0
:10882800984723681B02236002F046FC03685B69D3
:10883800984723681843206002F03EFC03685B6990
:10884800984702F039FC94F9081001F079F802F021
:1088580033FC0021FFF7D8FE02F02EFCC921FFF7F8
:10886800D3FE02F029FC01F072F802F025FC94F91D
:108878000810082201F05BF802F01EFC03685B692F
:108888009847606002F018FC03685B699847636862
:108898001B02636002F010FC03685B699847636819
:1088A8001843606002F008FC03685B6998476368D6
:1088B8001B02636002F000FC03685B699847636809
:1088C8001843606002F0F8FB03685B6998476368C7
:1088D8001B02636002F0F0FB03685B6998476368FA
:1088E8001843606002F0E8FB0368BDE810405B696C
:1088F800184738B504460D4602F0DEFB94F9081017
:1089080001F01EF802F0D8FB036829469B689847D7
:1089180002F0D2FB002101F016F802F0CDFB012293
:1089280094F9081001F003F802F0C6FB03685B69CC
:108938009847C0B238BD10B5044602F0BDFB00F040
:10894800E7FF2046FFF70EFFE7212046FFF7D1FF9C
:108958003A2804D12046FFF71CFF012010BD002053
:1089680010BD00220A21026081808271C2717047A5
:10897800002310B50446C171837188B202F014FB5C
:1089880008B10323A37100F09FF9206010BD38B52A
:108998000C4605461146A0B202F0DCFA21462846EC
:1089A800BDE83840FFF7E4BF8180704738B504461A
:1089B800C07902F0F9FAA379051C23F0080218BF60
:1089C8000125C3F340039D42A27106D000F07CF953
:1089D800A379206083F0020313E000F075F923689F
:1089E800C01AA38898420DD3A37903F001039D42CE
:1089F80008D000F069F9A379206083F0010343F0FF
:108A08000803A371A079C0F3C00038BD807900F0D5
:108A1800010070470C23436070470C2280E8060071
:108A2800704710B504460068FFF76CFD2068FFF733
:108A3800E3FD002211462068FFF7ABF92068012109
:108A4800FFF7B2F920680121FFF7ABF9206801218F
:108A5800BDE81040FFF7A0B910B504460068FFF75D
:108A680051FD2068FFF7C8FD20680121BDE81040CE
:108A7800FFF797B9704737B5044643680068022284
:108A880093FBF2F2C2F10B0212B20D460021FFF77E
:108A980080F920680121FFF784F92946206801F050
:108AA80006FA2068012203680092DD690E228023FD
:108AB8000021A847206803B0BDE83040FFF726BD75
:108AC80038B5C1EBC10115464368022293FBF2F3A6
:108AD800C3F1200303EB4102044612B205210068EA
:108AE800FFF757F920680121FFF75BF9294620684D
:108AF80001F0DDF92068BDE83840FFF707BD37B55C
:108B08000446C1EBC10100684A0001250D21036834
:108B18008DE8220016321D6A12B25F230021A84791
:108B2800206803B0BDE83040FFF7F0BC70B50546DB
:108B380008460E4603F0DDF904462868FFF75CFD99
:108B480004EBC4046A682868022192FBF1F294FBE2
:108B5800F1F1C2F12502C1F14A0112B209B2FFF7DF
:108B680018F93146286801F0A2F92868BDE8704074
:108B7800FFF7CCBCF7B500F1300504460F46284690
:108B8800FFF748FF39466846FFF747FF9DE80300AF
:108B9800002385E803006360A36020460123E360A7
:108BA80003B0F0BD2DE9F041C2684368911C8B42C7
:108BB800044601DD023B01E0934200DAE36004F180
:108BC80030063046FFF748FF236804F1100819689B
:108BD800404603F06BF941463046FFF74CFFA36867
:108BE800E5685D1B012DD4BF013503250027BD4273
:108BF800E3680DDD3B442268404652F8231003F039
:108C080055F9394642463046FFF75AFF0137EEE735
:108C180061683046C91AFFF772FF3046BDE8F04177
:108C2800FFF728BFF8B504460F4615461E463030F4
:108C3800FFF7F7FE27606660A5602046BDE8F840AC
:108C4800FFF7B0BF08B50229436801D1013302E03C
:108C5800012901D1013B4360426883689A42C4BF3D
:108C6800012242604268002AD8BF4360032901D12B
:108C7800406808BD042903D0FFF794FF002008BD11
:108C88004FF0FF3008BD000008B5024B1B681B6B96
:108C9800019308BD4802030008B5024B1B685B68D6
:108CA800019308BD1802030008B5024B1B68DB6876
:108CB800019308BD1802030008B5024B1B681B6925
:108CC800019308BD1802030008B5024B1B685B69D5
:108CD800019308BD1802030008B5024B1B689B6A84
:108CE800019308BD1802030008B5024B1B685B6CB2
:108CF800019308BD1802030008B5024B1B689B6C62
:108D0800019308BD1802030008B5024B1B685B6895
:108D1800019308BD2C02030008B5024B1B689B6831
:108D2800019308BD2C02030008B5024B1B68DB68E1
:108D3800019308BD2C02030008B5024B1B681B6990
:108D4800019308BD2C02030008B5024B1B685B6940
:108D5800019308BD2C02030008B5024B1B689B69F0
:108D6800019308BD2C02030008B5024B1B68DB69A0
:108D7800019308BD2C02030008B5024B1B689B6ACF
:108D8800019308BD2C02030008B5024B1B681B6B3E
:108D9800019308BD2C02030008B5024B1B689B6FAA
:108DA800019308BD2C02030008B5024B1B68DB6861
:108DB800019308BD2802030008B5024B1B685B69D4
:108DC800019308BD2802030008B5024B1B689B6984
:108DD800019308BD2802030008B5024B1B68DB6934
:108DE800019308BD2802030008B5024B1B681B6AE3
:108DF800019308BD2802030008B5024B1B685B6A93
:108E0800019308BD2802030008B5024B1B689B6A42
:108E1800019308BD2802030008B5024B1B68DB6AF2
:108E2800019308BD2802030008B5024B1B681B6BA1
:108E3800019308BD2802030008B5024B1B685B6B51
:108E4800019308BD2802030008B5024B1B681B6C80
:108E5800019308BD2802030008B5024B1B681B6973
:108E6800019308BD6C02030008B5024B1B685B69DF
:108E7800019308BD6C02030008B5024B1B689B698F
:108E8800019308BD6C02030008B5024B1B685B6DBB
:108E9800019308BD6C02030008B5024B1B689B6D6B
:108EA800019308BD6C02030008B5024B1B685B699F
:108EB800019308BD6402030008B5024B1B689B6957
:108EC800019308BD6402030008B5024B1B685B6A86
:108ED800019308BD6402030008B5024B1B689B6A36
:108EE800019308BD6402030008B5024B1B689B6828
:108EF800019308BD6802030008B5024B1B68DB68D4
:108F0800019308BD6802030008B5024B1B681B6883
:108F1800019308BD2402030008B5024B1B685B6877
:108F2800019308BD2402030008B5024B1B685B6867
:108F3800019308BD3802030008B5024B1B689B6902
:108F4800019308BD3802030008B5024B1B68DB69B2
:108F5800019308BD3802030008B5024B1B68DB6AA1
:108F6800019308BD3802030008B5024B1B685B6B10
:108F7800019308BD3802030008B5024B1B689B6BC0
:108F8800019308BD3802030008B5024B1B681B6833
:108F9800019308BD3002030008B5024B1B689B68AB
:108FA800019308BD3002030008B5024B1B68DB685B
:108FB800019308BD3002030008B5024B1B681B690A
:108FC800019308BD3002030008B5024B1B685B69BA
:108FD800019308BD3002030008B5024B1B68DB692A
:108FE800019308BD3002030008B5024B1B681B6AD9
:108FF800019308BD3002030008B5024B1B685B6A89
:10900800019308BD3002030008B5024B1B681B68BA
:10901800019308BD3C02030008B5024B1B68DB68DE
:10902800019308BD3C02030008B5024B1B681B698D
:10903800019308BD3C02030008B5024B1B685B693D
:10904800019308BD3C02030008B5024B1B689B69ED
:10905800019308BD3C02030008B5024B1B68DB699D
:10906800019308BD3C02030008B5024B1B681B6A4C
:10907800019308BD3C02030008B5024B1B689B6ABC
:10908800019308BD3C02030008B5024B1B681B682E
:10909800019308BD4C02030008B5024B1B685B68CE
:1090A800019308BD4C02030008B5024B1B681B69FD
:1090B800019308BD4C02030008B5024B1B685B69AD
:1090C800019308BD4C02030008B5024B1B689B695D
:1090D800019308BD4C02030008B5024B1B68DB690D
:1090E800019308BD4C02030008B5024B1B681B6ABC
:1090F800019308BD4C02030008B5024B1B685B6B6B
:10910800019308BD6002030008B5024B1B681B6D84
:10911800019308BD6002030008B5024B1B685B6839
:10912800019308BD2002030008B5024B1B685B6968
:10913800019308BD2002030008B5024B1B68DB6AD7
:10914800019308BD2002030008B5024B1B68DB6CC5
:10915800019308BD2002030008B5024B1B685B6D34
:10916800019308BD2002030008B5034B1B68D3F820
:109178008830019308BD00002002030008B5034BA6
:109188001B68D3F89430019308BD00002002030047
:1091980008B5034B1B68D3F8A430019308BD000041
:1091A8002002030008B5034B1B68D3F8A8300193CD
:1091B80008BD00002002030008B5024B1B681B68AD
:1091C800019308BD4402030008B5024B1B685B68A5
:1091D800019308BD4402030008B5024B1B68DB6815
:1091E800019308BD4402030008B5024B1B68DB6904
:1091F800019308BD4402030008B5024B1B681B6AB3
:10920800019308BD4402030008B5024B1B68DB6BE1
:10921800019308BD4402030008B5024B1B685B6854
:10922800019308BD4002030008B5024B1B689B6808
:10923800019308BD4002030008B5024B1B681B6977
:10924800019308BD4002030008B5024B1B685B6927
:10925800019308BD4002030008B5024B1B681B6A56
:10926800019308BD4002030008B5024B1B681B6848
:10927800019308BD1C02030008B5024B1B685B681C
:10928800019308BD1C02030008B5024B1B689B68CC
:10929800019308BD1C02030008B5024B1B685B6AFA
:1092A800019308BD1C02030008B5024B1B68DB6A6A
:1092B800019308BD1C02030008B5024B1B681B6B19
:1092C800019308BD1C0203000021FFF72DBF10B554
:1092D800836804460BB901F036FFC3689847A36852
:1092E8001BB103222146204698472046BDE810407E
:1092F800FAF7D1BE70470020704710B50446FAF758
:10930800CAFE204610BD08B508B1FFF7F6FF08BD34
:1093180010B58368044613B10322014698472046D6
:1093280010BD38B5C468D4B12378022B02D1E068E7
:10933800FFF7A2FF65682DB12846FFF7E9FF284629
:10934800FAF7A9FEA5682DB12846FFF7E1FF2846E0
:10935800FAF7A1FE2046BDE83840FAF79CBE38BDB2
:1093680010B588B00446684600F03BFF694604A87B
:1093780000F076FF04A8A047044604A800F0EAFE1F
:10938800684600F0E7FE204608B010BDF0B510248E
:1093980085B007460E46154600212246684602F06B
:1093A80043FD002269461046ADF800400297039637
:1093B8000195FFF709FF05B0F0BD13B5044691E824
:1093C800050000234B600B602060626001A80193D8
:1093D8000093FCF789FB204602B010BD0B680360C0
:1093E80013B15A6801325A607047F7B50C4602AD9E
:1093F80054F8043B45F8083D06460F4601A82146A7
:10940800FFF7ECFF29463046FFF7D7FF01A8FCF726
:109418006BFB2046FCF768FB3846FAF73CFE304603
:1094280003B0F0BD13B50B46044603C88DE803002E
:1094380093E8030084E803009DE8030083E8030041
:1094480002B010BD826810B50AB901F07CFEC3688D
:10945800BDE81040184708B5006800F11001FFF793
:10946800F1FF08BD826810B50AB901F06CFEC36847
:10947800BDE81040184708B5006800F11001FFF773
:10948800F1FF08BD38B5002383608B6804460D469C
:109498002BB102229847EB68E360AB68A3602046D3
:1094A80038BD00002DE9F0414FF69C7386B0046882
:1094B800B1F904208B8000230F688DF800300B6011
:1094C8004FF00200D4E84F1F994203D1C4E8450F7A
:1094D800002DF7D102D08DF800106AE014F10C05C8
:1094E8001EBFE76022821F460123BFF35F8F002063
:1094F800637004F10803BFF35F8F53E8006F43E81C
:109508000002002AF9D1BFF35F8F002E51D0FFF778
:109518001BFE20B129463046FFF794FF43E0314651
:109528006846FFF7AFFFE068B4F9105008B102F0E1
:10953800C5FC04901020ADF81450FAF7A8FD0546B4
:1095480030B34FF00008C0F808801820FAF79FFDE4
:109558000446C0B1C0F8088001466846FFF762FFBC
:10956800029BA268A360039B0292E268E360BDF8D5
:109578001430A3824FF69C73ADF81430049B039209
:109588002361CDF810800E4BEB600E4B2C60AB6066
:109598000498FFF771FE6846FFF7BAFE00222946D5
:1095A8000948FFF7D9FD3046FFF7B2FE3046FAF713
:1095B80072FD3846FFF760FE06B0BDE8F08100BFD7
:1095C8005F940D00BD960D00D7920D002DE9F04F68
:1095D8008BB007AD4FF0000B0646994614200C23BC
:1095E8000F4690469DF850A0C5F804B0C5F808B0DD
:1095F8000793FAF74CFD044638B180F800B080F8BC
:1096080001B0C0F804B0C0F808B0002310200394DB
:109618000493FAF73CFD28B1012343608360234B90
:109628000360C4600490224B08930820FAF72FFDCA
:10963800044628B1039B40F8043B04A9FFF7CEFE7B
:1096480000955FFA8AF34A46414638460994FFF77F
:10965800D3FDB8B9039B5B7803F0FF0293B94FF6CB
:109668009C7305A903A80592ADF81830FFF71AFFF7
:109678000598FFF701FE05A80999FFF7B6FE06A8A9
:10968800FCF732FA039B059304A906A8FFF7A6FE88
:1096980005A93046FFF791FE06A8FCF725FA04A8AD
:1096A800FCF722FA30460BB0BDE8F08F5CE00D0005
:1096B80025980D00022AF8B5044606D0032A17D0CB
:1096C800012A20D10B6803601DE018200E68FAF704
:1096D800DEFC054650B13146FFF7D4FE3069B6F9D5
:1096E800147008B102F0EAFB2861AF8225600AE035
:1096F800046844B12069FFF7BFFD2046FFF708FE64
:109708002046FAF7C8FC0020F8BD38B5002383606E
:109718008B6804460D462BB102229847EB68E3603C
:10972800AB68A360204638BD022A70B5044606D04F
:10973800032A11D0012A17D10B68036014E0142002
:109748000E68FAF7A4FC054620B13146FFF7DDFFA5
:10975800337C2B74256007E004682CB12046FFF7A2
:10976800D7FD2046FAF797FC002070BDF0B500231E
:1097780087B00C46BFF35F8F50E8006F40E80032B7
:10978800002AF9D1BFF35F8F002E3ED01846FFF7AD
:10979800DBFC074620B121463046FFF763FE2EE08A
:1097A800314601A8FFF7B1FF23788DF81430102057
:1097B800FAF76DFC0546D0B187601420FAF767FC0C
:1097C800044678B18760014601A8FFF72BFE039B8A
:1097D800A268A360049B0392E268E3609DF81430DA
:1097E800049223740A4BEB600A4B2C60AB6001A80F
:1097F800FFF78EFD002229460748FFF7ADFC3046EB
:10980800FFF786FD3046FAF746FC07B0F0BD00BF0B
:109818007F940D0031970D00D7920D0030B585B0BB
:1098280004460D4668461146FFF7DFFD7CB124B2B9
:1098380028460DB102F042FB029002A96846ADF835
:109848000C40FFF72FFE0298FFF716FD1DE0009869
:109858008DF808404FF00102D0E84F3FA34203D1F2
:10986800C0E8412F0029F7D102D08DF808300CE06C
:1098780010F10C014FF0010318BF0373BFF35F8FA2
:10988800043000F8033CFFF771FF01A8FCF72CF93E
:1098980005B030BD7047F8B5064615460C468F181A
:1098A800BC4206D0336814F8011B9B6830469847C1
:1098B800F6E72846F8BD0022007CFFF795BA00219C
:1098C800007CFFF799BA0021007CFFF79DBA0021C0
:1098D800007CFFF7A1BA0021007CFFF7A5BA10B5FC
:1098E8000446FAF7D8FB204610BD000010B5044620
:1098F8004FF47A730846A3600021044B207461601A
:109908002360FFF7A1FA204610BD00BF78E00D00E4
:1099180000231A461946007CFFF746BA13B50024FF
:10992800007C0094FFF748FAC0B202B010BD0123D2
:10993800D2B2C9B2FFF7F2BF0022007CFFF744BAE7
:10994800C9B2FFF7F9BF0022007CFFF745BA012131
:10995800FFF7F9BF0021007CFFF76EBA004700004F
:10996800F0B585B01C4605460E461746FFF7FCF9CC
:10997800002084424FF0040303908DF80C30A5BFFB
:109988009DF828308DF80E30034603AB0093284627
:109998003B4632460449A8BF8DF80D40FFF7DCF975
:1099A800012005B0F0BD00BF65990D0070B50646F1
:1099B800FFF7DAF9074B53F826501C462DB1284615
:1099C800FFF7A6FC2846FAF766FB002344F8263082
:1099D80070BD00BF84E30320F0B5037D062B8BB078
:1099E8000E4600F104074FF0000402D000F108050C
:1099F80018E00AAD394605F8284D28232A460A20DA
:109A0800FFF752FA284602F074FA33680246DB6818
:109A18002946304698470FE024B12E21304600F001
:109A280037FA044415F8011D0A22304600F076FA88
:109A3800BD420444F0D120460BB0F0BD10B5054B33
:109A48000446112240F8043B002102F0EDF92046BB
:109A580010BD00BFA0E00D000346074A10B543F84B
:109A6800042B01F1100251F8044B43F8044B9142C6
:109A7800F9D10A781A7010BDA0E00D00037D042BFF
:109A880001D1406808E0062B0AD1436853B18368C6
:109A980043B1C36833B10069003018BF0120704773
:109AA80000207047184670470422416002757047CD
:109AB800014B024A1A60704700E403205FE10D0081
:109AC800002211461046FFF7B7BB2DE9F84F0B9F50
