:02000002D0002C
:1040000000400D0040F20D00000005000E0005010B
:0840100004013801000000006A
:104018006CC40D0009480A49884208B505D0094A08
:10402800824202D0121A08F048F90748074A0021CC
:10403800121A08F04DF9014808BD00BFE0D7032067
:10404800F0E80D0008E1032008E1032000E8032060
:1040580070B507F09FF9074C074BE41AA408002530
:104068001E46A54204D056F8253098470135F8E792
:1040780070BD00BFE4E80D00A8E80D0000F0AEBB7D
:1040880008B500F0A3F8BDE8084007F051B905F0FD
:1040980013BB05F011BB05F017BB000008B5034AB8
:1040A80000210C2005F048FAFEE700BFF1900D0052
:1040B8000078B0FA80F04009704701230370704718
:1040C80010687047704710B50446243006F096FA19
:1040D80004F1140006F092FA201D06F08FFA20462B
:1040E80010BD08B503F05CF9012008BD1FB50146F5
:1040F8000B4806F0FAFA0A49684606F005FB6946D5
:10410800084800F031FC684606F078FA064B1B7840
:104118000BB101F09DF9012005B05DF804FB00BF6B
:1041280020E1032044E103204CE203201FB50146AF
:104138000B4806F0DAFA0A49684606F0E5FA6946D5
:10414800084800F033FC684606F058FA064B1B781E
:104158000BB101F07DF9012005B05DF804FB00BF4B
:10416800B0E1032044E103204CE203201FB50146DF
:104178000B4806F0BAFA0A49684606F0C5FA6946D5
:10418800084800F036FC684606F038FA064B1B78FB
:104198000BB101F05DF9012005B05DF804FB00BF2B
:1041A80010E1032044E103204CE2032007B5082373
:1041B800ADF80030044B019304226B4605F01CFA5D
:1041C80003B05DF804FB00BFC9400D00F8B5A24E6E
:1041D80004F09AFF337807463BBBA04804F006FE7C
:1041E8009F4804F003FE9F4804F000FE9E4804F038
:1041F800FDFD9E4804F0FAFD984804F027FE0028CB
:104208007DD0974804F022FE002878D0954804F025
:104218001DFE002873D0944804F018FE00286ED0C4
:10422800924804F013FE002869D0914D2B785BB1B9
:104238003378002B6ED107E002218E4804F022FF6C
:104248002B78013BDBB22B708B4B1B780BB101F049
:104258009BF88A490B68FA1A894B9A421C4602D97C
:104268000F6003F02FF9874A1368FB1AA34202D99B
:10427800176003F095F87A4804F0B8FD784804F020
:10428800E5FD08B901F0F4FB7F4B1C78002C40F0E9
:10429800DA81724804F0AAFD704804F0D7FD08B925
:1042A800FF2100E02146102007F0FCF86C4804F0DC
:1042B8009DFD6B4804F0CAFD08B9FF2100E000210C
:1042C800122007F0EFF8674804F090FD654804F005
:1042D800BDFD08B9FF2100E00021112007F0E2F838
:1042E800614804F083FD604804F0B0FD08B9FF217F
:1042F80000E000211320BDE8F84007F0D3B80124FE
:10430800347001F08DF8234609226049594804F0B9
:10431800A9FE8AE75E4B1B78013B042B94D801A2C7
:1043280052F823F041430D0041420D0045430D0072
:1043380049430D0041430D00032102E001217CE7C0
:1043480004214C4804F09EFE2B78013BDBB2002888
:1043580004462B7040F33B813378002B3FF474AF55
:1043680001F05EF84348494903688B422DD1013C6E
:10437800082C3FF669AFDFE804F005090D1115199F
:104388001D21250001230622424958E10123042268
:10439800414954E101230322404950E10123052208
:1043A8003F494CE1012304223E4948E1012305220B
:1043B8003D4944E1012308223C4940E1012306220A
:1043C8003B493CE101F04AFA3EE7324A93421BD1AD
:1043D800013C052C3FF638AFDFE804F0030B0E363E
:1043E800111400F0A3FF0F220021324804F02BFA29
:1043F8002AE701F02DF827E701F0A4F924E700F0F7
:10440800C3FF21E7012318E1234A934212D1013C5B
:10441800032C3FF619AFDFE804F00205080B02F0A1
:1044280023FE11E701F044FB0EE701F06BFB0BE7FD
:10443800032302E1194A93423ED1022C07D0032CF0
:1044480008D0012C7FF400AF01F05EF8FCE601F023
:10445800A3F9F9E62346DAE00CE10320E0E20320C1
:10446800F8E20320D0E20320D8E20320C8E20320C8
:10447800C0E103200CE2032045E20320ECE1032025
:10448800C0D40100C4E103204DE20320E0D703209B
:1044980008E2032060C60D0030C50D0014C50D00EC
:1044A800A0C40D0000C50D00A4C60D00E0C50D0098
:1044B8003CC60D00C8E10320634A93421AD1013C6F
:1044C800042C3FF6C1AEDFE804F003080D1013001A
:1044D8000121082002F020FEB6E60121082002F0A2
:1044E80021FEB1E602F044FFAEE602F021FEABE6A3
:1044F8000423A2E0554A934212D1013C032C3FF613
:10450800A3AEDFE804F00205080B01F01FFC9BE6F0
:1045180001F074FE98E602F037F895E605238CE082
:104528004B4A934214D1013C042C3FF68DAEDFE890
:1045380004F00306090C780001F060F884E600F046
:10454800CDFE81E601F0C2F97EE601F097F97BE63F
:10455800404A93421ED1013C072C3FF675AEDFE876
:1045680004F004070A0D1013166500F09FFB6BE6B4
:1045780000F0D0FB68E600F01BFE65E600F08EFC5C
:1045880062E600F027FD5FE600F096FD5CE600F0CD
:1045980025FE59E6304A93427FF456AE013C052C7D
:1045A8003FF652AEDFE804F003060A0D104802F0A9
:1045B800BBFB49E6012002F05BFC45E602F006FC85
:1045C80042E602F075FC3FE602F0A8FC3CE6441C1B
:1045D8007FF43AAE3378002B3FF436AE1F482049BB
:1045E80003688B423FF430AE1E4A934201D1012347
:1045F8000DE01D4A934201D1022308E01B4A934271
:1046080001D1032303E0104A934202D10423092273
:1046180016E00E4A934201D10523F8E70C4A93426B
:1046280001D1062309E00B4A934201D1072304E094
:10463800094A93427FF408AE08230949092207482A
:1046480004F010FD00E6F8BDA0C40D0000C50D0083
:10465800A4C60D00E0C50D003CC60D000CE2032009
:10466800E0D7032060C60D0030C50D0014C50D004D
:1046780010B5254C9AB0684600F000FA2046009B19
:1046880040F8043B01A906F04AF805A904F1140012
:1046980006F045F809A904F1240006F040F80023C3
:1046A8000DEB0301E218013391F8341082F834104D
:1046B800322BF5D16846FFF706FD134800F0BCF928
:1046C80000B31149684600F023FA69460F4806F01E
:1046D80026F8684605F092FF0B49684600F031FA63
:1046E80069460B4806F01BF8684605F087FF06493F
:1046F800684600F03FFA6946064806F010F8684632
:1047080005F07CFF1AB010BD44E1032020E103202E
:10471800B0E1032010E103200246014805F05EB82D
:10472800B9970D0007B519491948FFF73FFD194911
:104738001948FFF73BFD19491948FFF737FD0023D2
:1047480002221849184804F057FF0023022217498B
:10475800174804F051FF17491748FFF7DDFF1749BD
:104768001748FFF7D9FF17491748FFF7D5FF17492B
:104778001748FFF7D1FF0023019300931A46154904
:10478800154804F061FF03B05DF804FB20E1032045
:10479800F6C60D00B0E1032002C70D0010E10320AA
:1047A8000EC70D00ACE103201AC70D0030E103204D
:1047B80026C70D00F5400D0030C70D0035410D002E
:1047C8003CC70D0075410D0048C70D00EB400D00BA
:1047D80054C70D005D5B0D005EC70D001FB506F0E8
:1047E800D5FC4FF4165106F0C5FC02F0FAFB00F0B8
:1047F80001FE684604F018FF69461B4805F08FFF64
:10480800684605F0FBFE194804F0B5FA0028FAD00E
:104818003C220221164803F01BFF00F05FFF00F066
:1048280085FDFFF77FFF02F0EBFB0121082006F072
:10483800E5FD01F0BFFE02F0D7F802F0B1FD02F08D
:1048480041FE02F0D3F90021082002F065FC04F0D3
:10485800E3FEFFF70DFF0F220021054803F0F3FFE9
:1048680005B05DF804FB00BFF8E1032034E1032044
:10487800C8E1032010B50446FFF70DFC204610BD23
:10488800F8B52B4B2B4D2C4E2C4F4FF69C725A8063
:1048980000244FF6FF721C709A80022004F05CFE20
:1048A8002146012004F068FE2146254C284603F0E5
:1048B80077FE22462349284606F094FE29462248D8
:1048C800224D04F077FB3146384605F0DEFE3846C7
:1048D8001F4F2246294606F085FE384600F0CEF8DE
:1048E80022461C4938461C4F06F07CFE1B4804F043
:1048F800AFF83146384605F0C8FE3846184F22460C
:10490800294606F06FFE3146384605F0BEFE3846A9
:10491800144F2246294606F065FE3146384605F012
:10492800B4FE224629463846BDE8F84006F05ABE8D
:10493800F0E10320C8E10320C8E50D00F8E10320F9
:1049480008E10320CD400D000CE2032005A60D0070
:1049580044E10320CF400D0020E1032034E103208F
:10496800B0E1032010E1032030B50D468FB00023DD
:104978000446322201A928468DF8353005F05FFF3C
:104988002946201D012505F0B0FE256006F0D4FD5E
:10499800322201A9104604F0CFFB06F0CDFD042217
:1049A8002146284604F0C8FB0FB030BD30B50D468F
:1049B8008FB000230446322201A928468DF83530ED
:1049C80005F03DFF294604F11400012505F08DFE90
:1049D800256006F0B1FD01A93222782004F0ACFB75
:1049E80006F0AAFD04222146284604F0A5FB0FB0D4
:1049F80030BD30B50D468FB000230446322201A9E0
:104A080028468DF8353005F01AFF294604F12400B0
:104A1800012505F06AFE256006F08EFD01A9322207
:104A2800BE2004F089FB06F087FD042221462846B3
:104A380004F082FB0FB030BD0068003018BF0120C1
:104A48007047000030B515468FB0044606F074FD77
:104A580001A93222284604F067FB00238DF835307F
:104A68009DF80430FF2B14BF01A90349204605F027
:104A78000CFE20460FB030BDC8E50D00F0B5054668
:104A8800002345F8043B044685B02049284604F134
:104A9800140705F0FAFD04F124061C49384605F010
:104AA800F4FD1A49304605F0F0FD06F045FD0422F4
:104AB8002146012004F038FB2368012B23D1322240
:104AC80021466846FFF7BEFF6946284605F027FEDF
:104AD800684605F093FD782221466846FFF7B2FF45
:104AE8006946384605F01BFE684605F087FDBE227C
:104AF80021466846FFF7A6FF6946304605F00FFED7
:104B0800684605F07BFD204605B0F0BDC8E50D0000
:104B180030B5CB680C4685B00546043453B932220B
:104B28006846FFF78FFF6946204605F0F8FD68469E
:104B380005F064FD2146284605F0E6FD284605B047
:104B480030BD30B5CB690C4685B00546143453B931
:104B580078226846FFF776FF6946204605F0DFFDB4
:104B6800684605F04BFD2146284605F0CDFD284650
:104B780005B030BD30B5CB6A0C4685B00546243447
:104B880053B9BE226846FFF75DFF6946204605F027
:104B9800C6FD684605F032FD2146284605F0B4FDFD
:104BA800284605B030BD00002DE9F04F3A4B93463A
:104BB80001228FB01A70394A0491002414700593A9
:104BC80006AE2746364803F013FB05F059FC3519A5
:104BD80030556F70052005F053FC033401301E2C4E
:104BE800A870EFD101F036FF059B1B78002B49D048
:104BF800BDF91080002506AC63190FFA8BF65A78B8
:104C0800615D2748019601230293CDF80080254B6A
:104C1800033503F0D1F91E2DEDD1214803F096FE9E
:104C2800C82004F079FD00252F4694F801A01D4BFB
:104C38001B480DF11809524619F8051002970196FC
:104C4800CDF8008003F0B8F9A37815489A445FFAC4
:104C58008AFA84F801A003F0CEFA82450CDD1048E8
:104C680003F0C6FA05F00CFC09F80500677005208A
:104C780005F006FC0130A07003351E2D04F1030475
:104C8800D3D1B1E7044A1370074A1378013313707C
:104C98000FB0BDE8F08F00BFF6E1032008E2032063
:104CA800C8E1032070C70D00C0E1032008B500F07B
:104CB800B7FB102211460248BDE80840FFF774BF51
:104CC80070C70D00F7B500F0ABFB002402260127E2
:104CD8000F4803F090FA844217DA0D4803F088FA77
:104CE80005460B4803F087FA95FBF6F1234690FB3F
:104CF800F6F209B212B20648009702F049FD0234F2
:104D0800034803F023FE24B2E2E703B0F0BD00BF7E
:104D1800C8E1032010B5074C01232370064B00227D
:104D28001A7001F097FE237813B1FFF7CBFFFAE76B
:104D380010BD00BFF6E1032008E203202DE9F04F83
:104D480085B000F06DFB002402260127264803F0F9
:104D58004FFA0546244803F04EFAA842A8BF284651
:104D680000B290FBF6F084423BDA1F4803F040FAA9
:104D780082461D4803F03FFA81461B4803F038FA83
:104D88008346194803F037FA0546174803F030FA06
:104D98008046154803F02FFA95FBF6F59BFBF6F3D2
:104DA800A4B290FBF6F0204400B20290254498FB90
:104DB800F6F020441B1B00B299FBF6F22DB2121B31
:104DC80001901BB212B208489AFBF6F1039709B298
:104DD800009502F0E1FF0534034803F0B7FD24B263
:104DE800B4E705B0BDE8F08FC8E103202DE9F04F26
:104DF80085B000F015FB284803F0FAF90446264868
:104E080003F0F9F9A042A8BF2046012704B2022501
:104E180094FBF5F4002C3BDD1F4803F0E9F98246CA
:104E28001D4803F0E8F981461B4803F0E1F9834681
:104E3800194803F0E0F90646174803F0D9F9804607
:104E4800154803F0D8F996FBF5F69BFBF5F3A4B2E9
:104E580090FBF5F0204400B20290264498FBF5F050
:104E680020441B1B00B299FBF5F236B2121B0190CD
:104E78001BB212B208489AFBF5F1039709B20096E3
:104E880002F0B7FF053C044803F060FD24B2C1E717
:104E980005B0BDE8F08F00BFC8E1032010B50A4C8B
:104EA80001232370094B00221A7001F0D3FD2378E7
:104EB80043B1FFF743FF4FF47A7004F02DFCFFF77E
:104EC80095FFF4E710BD00BFF6E1032008E20320D8
:104ED8002DE9FF4700F0A4FA00254FF0020801274A
:104EE800194803F088F990FBF8F000B202388542BF
:104EF80026DA154803F07CF98246134803F07BF95B
:104F0800AEB274001FFA84F904460F4803F073F92F
:104F1800C9EB04040422C9EB0A0390FBF2F024B2A3
:104F280002B2294601921BB22A460748029700940A
:104F380002F067FEB51C044803F008FD2DB2CFE768
:104F480004B0BDE8F08700BFC8E103202DE9F04FA9
:104F580085B000F065FA002501264FF00208042705
:104F68001B4803F048F990FBF8F000B2023885427C
:104F78002ADA174803F03CF98346154803F03BF951
:104F88001FFA85F94FEA49041FFA84FA04461048C3
:104F980003F031F9CAEB0404CAEB0B0390FBF7F0FA
:104FA80024B200B22A462946029601901BB208484C
:104FB800009402F0AAFE09F10205054886F00106F0
:104FC80003F0C4FC2DB2CBE705B0BDE8F08F00BFFD
:104FD800C8E1032010B5084C01232370074B0022B9
:104FE8001A7001F037FD237823B1FFF771FFFFF73F
:104FF800ADFFF8E710BD00BFF6E1032008E203208B
:1050080010B52A4C00F00CFA2046022103F0E4F80F
:105018002046012103F0E5F800220A21204603F08A
:10502800D8F8204603F008FD2149204605F087F905
:105038002049204605F083F9204603F087FC0F221B
:105048000021204603F0DAFB4FF4FA6004F064FB19
:10505800204603F077FC4FF47A7004F05DFB0F22D2
:105068000021204603F0EFFB4FF4FA6004F054FBF4
:10507800204603F067FC4FF47A7004F04DFB0722DA
:105088000021204603F004FC4FF4FA6004F044FBCE
:1050980020460722002103F028FC4FF4FA6004F0B0
:1050A8003BFB2046BDE8104003F04CBCC8E10320A0
:1050B80090C70D0070CD0D0010B5074C012323706B
:1050C800064B00221A7001F0C5FC237813B1FFF7D4
:1050D80097FFFAE710BD00BFF6E1032008E20320BE
:1050E8002DE9F74300F09CF9002601254FF002084E
:1050F800154803F080F890FBF8F000B286421FDAFA
:10510800114803F075F881460F4803F074F8B7B2F8
:105118007C00A4B2001B05F00102C4EB090304B231
:10512800314601921BB232460748009402F0EFFA6A
:1051380001350548FE1C03F009FCEDB236B2D7E78D
:1051480003B0BDE8F08300BFC8E103202DE9F743B1
:1051580000F066F900254FF002080127134803F014
:105168004AF890FBF8F000B285421BDA0F4803F0CA
:105178003FF881460D4803F03EF8AEB27400A4B281
:10518800001BC4EB090304B22A4629461BB2074890
:105198000197009402F070FAB51C044803F0D6FB9E
:1051A8002DB2DBE703B0BDE8F08300BFC8E1032000
:1051B80010B5084C01232370074B00221A7001F028
:1051C80049FC237823B1FFF7C1FFFFF789FFF8E710
:1051D80010BD00BFF6E1032008E2032010B53C4CE7
:1051E800012323703B4B00221A7001F033FC237813
:1051F800002B6BD000F014F9FFF7A8FF364803F036
:10520800A5FB4FF4FA6004F087FA334803F014FC66
:10521800FFF766FF304803F099FB4FF4FA6004F09B
:105228007BFA2D4803F008FCFFF74CFD2A4803F0F1
:105238008DFB4FF4FA6004F06FFA274803F0FCFB8B
:10524800FFF746FE4FF4FA6004F066FA224803F0CE
:10525800F3FBFFF77BFE4FF4FA6004F05DFA1E489B
:1052680003F0EAFBFFF76AFD4FF4FA6004F054FA22
:10527800194803F0E1FBFFF7B9FD4FF4FA6004F0B9
:105288004BFA154803F0D8FBFFF7BAFE4FF4FA6063
:1052980004F042FA104803F0CFFB01210E4803F056
:1052A800A7FA4FF47A7004F037FA00210A4803F09D
:1052B8009FFA4FF47A7004F02FFA074803F0BCFB0A
:1052C800054803F043FBFFF7F1FC90E710BD00BF72
:1052D800F6E1032008E20320C8E103201FB5114CC2
:1052E800204603F0A9FB204603F030FB00221146BC
:1052F800204602F06EFF8021402201238DE80E0037
:1053080000221146084B204602F056FE204603F0C4
:105318001DFB0F220021204604B0BDE8104003F019
:1053280092BA00BFC8E103206BC90D0010B5134C39
:10533800204603F081FB2046012102F055FF20465C
:10534800012102F04EFF2046022102F045FF122201
:105358002046012102F03DFF0949204604F0EFFFF5
:1053680020462322002102F034FF2046054904F09C
:10537800E6FF2046BDE8104003F0E8BAC8E1032084
:105388006BCD0D0076CD0D0070B5154D154C03F0A5
:10539800BBFE2B7863B9144E336003F0B5FE326858
:1053A800124B206053F82230984701232B7070BDB0
:1053B800236842F21072C31A93420FD920600A4C34
:1053C8000A4B226853F822309847094A2368126822
:1053D80001339342236004BF0023236070BD00BFE4
:1053E80045E2032050E2032048E203200CD80320C2
:1053F80008D80320054A00231370054A1370054A8C
:105408001370054A1370054A1370704744E203206D
:105418004CE2032045E203204EE203204DE2032044
:1054280010B50A4C204603F08DFA204603F004FB21
:10543800204603F08BFA00222046114602F0C9FEEE
:1054480020460121BDE8104002F0CEBEC8E103208D
:10545800F8B5284B284901221A70284A88689368A9
:1054680098420746B8BF1F4600280E46154601DC7D
:10547800002B3DDDFFF7D4FF214B9A680A2A1C4612
:1054880003D901211F4802F0A7FEA36823B11C4BD2
:105498001C48196804F053FF0A2F05DD012119483B
:1054A80002F09AFE142204E00221164802F094FE4B
:1054B8000A220021134802F08CFE124804F033FF40
:1054C800B36823B10C4B0F48196804F038FFAB6878
:1054D80023B10A4B0B48196804F031FF094803F05F
:1054E80035FA0F2200210748BDE8F84003F0ABB9B0
:1054F800F8BD00BF4CE2032020E10320B0E1032007
:1055080010E10320C8E103207FB5324CFFF788FF84
:10551800012510262B23019312222F4B029520469A
:105528000096072102F048FD2946204602F054FE65
:1055380032462046342102F04CFE2849204604F029
:10554800FEFE2046022102F047FE204619223021A5
:1055580002F03FFE224B0A221968204604F054FF4D
:105568002049204604F0EBFE2946204602F034FE8E
:105578002A221146204602F02CFE1B49204604F040
:10558800DEFE2046022102F027FE2046322230218C
:1055980002F01FFE154B0A221968204604F034FF5A
:1055A8001349204604F0CBFE14221B238DE80C007F
:1055B8006921104B02951C22204602F0FDFC204672
:1055C80003F0C4F92946204602F006FE0A4B1D7076
:1055D80004B070BDC8E10320A4C70D0059C70D0071
:1055E800ACE1032081CD0D0083CD0D0030E1032017
:1055F8008CCD0D001AC90D0044E203201FB50C4CD8
:10560800FFF70EFF8021302201238DE80E0020468F
:10561800084B1022002102F0CFFC204603F096F937
:105628000F220021204604B0BDE8104003F00BB95A
:10563800C8E103203FD60D0010B50C4606F0D5FE94
:1056480004EBC4044443022094FBF0F0C0F1400092
:1056580010BD00002DE9F74F012A1546064608BF80
:105668004FF040098A460CBF99FBF1F94FF0120937
:10567800FFF7D6FEE9B2184805EB450702F0ACFD86
:10568800BF000024BFB2043EA0464FF00F0B3B19E9
:105698009BB2D045019318DA56F8040F2946FFF754
:1056A800CBFF9BFBF5F1414404EB0902014412B224
:1056B80009B2094802F08DFD3168074804F03FFE41
:1056C800019B08F101081C46E1E7034803B0BDE867
:1056D800F04F03F03BB900BFC8E103207FB5164C7B
:1056E800FFF79EFE0126802530231022002101931A
:1056F8002046124B0296009502F05EFC204603F00D
:1057080025F94FF4FA6004F007F8FFF789FE002244
:105718004023019311460A4B02962046009502F059
:105728004BFC204603F012F94FF4FA6004B0BDE8D0
:10573800704003F0F1BF00BFC8E103203FD60D0061
:105748006BC90D0008B5114B01221A70FFF768FEEE
:1057580002210F4802F040FD0A2200210C4802F005
:1057680038FD0B4804F0DFFD0A4B9A681AB1196836
:10577800074804F0E4FD064803F0E8F80F2200218A
:105788000348BDE8084003F05EB800BF4CE20320C0
:10579800C8E1032010E103201FB5FFF741FE0121F6
:1057A8002548264C02F018FD01221921224802F052
:1057B80010FD2349204804F0AFFD0A2221681E4845
:1057C80004F022FE1F491C4804F0B9FD23685A1E44
:1057D800132A4FF0010206D8202348208DE809003B
:1057E8000292194B16E0A3F115011D2906D82023B2
:1057F80048218DE80A000292144B0BE0333B272B1B
:1058080002924FF020034FF048028DE80C0094BF3D
:105818000F4B104B084817221C2102F0CDFB0648FD
:1058280003F094F80121044802F0D6FC0A4B012247
:105838001A7004B010BD00BFC8E1032040E1032086
:105848008ECD0D008CCD0D003FD90D00FAC70D008F
:1058580007D20D0027D30D004EE203201FB5064ADC
:1058680007CA01AB83E80700012203211846FFF7A6
:10587800F1FE05B05DF804FB98C70D001FB5114C8B
:10588800204603F0D9F8204603F060F800221146BC
:10589800204602F09EFC8021402201238DE80E0064
:1058A80000221146084B204602F086FB204603F0F2
:1058B8004DF807220021204604B0BDE8104003F04F
:1058C80014B800BFC8E1032007CE0D001FB5114C66
:1058D800204603F0B1F8204603F038F800221146BC
:1058E800204602F076FC40213F2201238DE80E007D
:1058F80000221146084B204602F05EFB204603F0CA
:1059080025F807220021204604B0BDE8104002F027
:10591800BFBF00BFC8E1032047D40D0010B50C4C31
:10592800FFF77EFD2046012102F056FC2322204687
:10593800022102F04EFC2046012102F055FC2046CF
:10594800044904F0FCFC2046BDE8104002F0FEBF0C
:10595800C8E1032099CD0D0070B5064606F045FD57
:10596800134D044604EBC404FFF75AFD28460121F1
:1059780002F032FC0834022194FBF1F1C1F14A0132
:105988001F22284609B202F024FC2846012102F011
:105998002BFC33460121074A284604F037FD2846E8
:1059A80002F0D4FF28460021BDE8704002F01CBC7C
:1059B800C8E10320AECD0D001FB5134CFFF730FD35
:1059C8002046012102F008FC232220460A2102F089
:1059D80000FC0E49204604F0B2FC8021402201233D
:1059E8008DE80E0000221146094B204602F0E4FA29
:1059F800204602F0ABFF0F220021204604B0BDE88C
:105A0800104002F020BF00BFC8E10320B9CD0D004F
:105A18006BC90D0010B50446FFF702FD01211248BD
:105A280002F0DAFB022209210F4802F0D2FB0F49EB
:105A38000D4804F084FC02210B4802F0CDFB2046FF
:105A480006F0D3FC06288CBF01211C21232206481E
:105A580002F0BFFB2146044804F071FC0248BDE88F
:105A6800104002F073BF00BFC8E10320CDCD0D0088
:105A780038B50B4C236825463BB103F045FB23683A
:105A8800C01A084B1B68984209D903F03DFB2860EF
:105A9800002205490548BDE8384004F073BB38BD0D
:105AA80054E2032020D803205FDA0D0008E4032025
:105AB80038B50D4C236825463BB103F025FB236818
:105AC800C01A0A4B1B6898420DD903F01DFB084900
:105AD8002860084A084804F055FB08490848BDE80A
:105AE800384003F043BA38BD5CE2032020D80320D5
:105AF8007DDA0D0076DA0D0008E4032087DA0D0060
:105B08003CE2032038B50D4C236825463BB103F031
:105B1800FBFA2368C01A0A4B1B6898420DD903F098
:105B2800F3FA084928600022074804F02BFB0749CC
:105B38000748BDE8384003F019BA38BD60E20320D1
:105B480020D8032093DA0D0008E40320A0DA0D0022
:105B58003CE203200A4B994201D110200DE0094B89
:105B6800994201D1122008E0074B994201D1112036
:105B780003E0064B994202D1132001F026B8704782
:105B8800AEDA0D00B2DA0D00B7DA0D00BDDA0D009D
:105B980038B5046805467CB16368013B63605BB94E
:105BA800236820469B689847A368013BA3601BB9FC
:105BB80023682046DB689847284638BD30B591B041
:105BC80004460D4608A81A4904F05FFD0A2221463A
:105BD80004A804F0BDFD04A908A804F012FE1549A4
:105BE80004F01BFE0A22044629460CA804F0B0FD66
:105BF8000CA9204604F005FE0F4904F00EFE0F4BD9
:105C080002681B780E498DF8003002A83C2303F087
:105C180005FF03A8FFF7BCFF0CA804F0EFFC04A8DD
:105C280004F0ECFC08A804F0E9FC11B030BD00BF9A
:105C3800C4DA0D00CDDA0D00DADA0D0058E20320DF
:105C4800DCDA0D0000B589B001460A2204A804F088
:105C58007FFD094B049A1B7808498DF8003002A88B
:105C68003C2303F0DBFE03A8FFF792FF04A804F02F
:105C7800C5FC09B05DF804FB58E20320E8DA0D0022
:105C8800014B01221A70704758E20320F7B5164CF1
:105C980006B20FB201252B463A46314620460095FA
:105CA80001F076FD3A46314620460095022301F080
:105CB8006FFD3A46314620460095032301F068FD02
:105CC8003A46314620460095042301F061FD2046FE
:105CD800009505233A46314601F05AFD204603B0A7
:105CE800BDE8F04002F032BEC8E1032010B5134C05
:105CF800FFF796FB2046022102F06EFA1222204698
:105D0800012102F066FA0E49204604F018FB0D49FD
:105D1800204604F014FB2046012102F05DFA0A49EE
:105D2800204604F00CFB204602F010FE4FF4FA6007
:105D380003F0F2FCBDE81040FFF772BBC8E1032096
:105D4800F7DA0D0000DB0D0009DB0D002DE9F0414D
:105D5800334E344801233370334B00221A7002F05B
:105D680047FA022490FBF4F005B22E4802F043FAF9
:105D780090FBF4F004B2FFF7B9FF21462846FFF77D
:105D880085FF00F067FEB04698F80030002B45D03C
:105D9800264803F02BF8254803F058F808B9671E81
:105DA80000E02746224803F021F8214803F04EF886
:105DB80000B901371F4803F019F81E4803F046F8E8
:105DC80008B96E1E00E02E461B4803F00FF81A486B
:105DD80003F03CF800B90136B54201D1BC4203D00A
:105DE80039463046FFF752FF144802F0FFFF1348C8
:105DF80003F02CF810B13C463546C5E7FFF710FB19
:105E0800084802F0F5F9022490FBF4F005B20548C1
:105E180002F0F1F990FBF4F004B2B5E7BDE8F081C7
:105E2800F6E10320C8E1032008E20320E8E20320AA
:105E3800F0E2032000E30320C0E20320C8E20320CD
:105E48000C4B1A680C4B1B689A4210DD0B4B0C4923
:105E58001B6809688B420ADD0A4909688A4206DA22
:105E6800094A10688342B4BF00200120704701200E
:105E7800704700BF34D8032090E2032038D80320AD
:105E880024D803202CD8032030D8032008B50A4B87
:105E980019680A4B18680139013004F0FCFA084BFC
:105EA8001860084B1968084B18680139013004F06C
:105EB800F2FA064B186008BD2CD8032090E20320A4
:105EC80094E2032030D8032024D8032098E203204A
:105ED80070B50C4B0C4C1A680C4B0D4D19680D4BDA
:105EE80018680423934208DAE65C8E4202D1EE5C1D
:105EF800864204D00133DBB2F4E7002070BD0120F4
:105F080070BD00BF3CD803207CE2032034D80320B6
:105F180064E2032038D803202DE9F0433E4C87B0D3
:105F2800204602F065F900250826431E1BB22A46C2
:105F3800009629462046019501F0E9FB20460121FB
:105F480002F04AF92046012102F04BF92A46294677
:105F5800204602F03EF93149204604F0DDF9304B85
:105F68000A2219680DEB060004F005FC0299204688
:105F780004F0D2F90DEB060004F040FB204602F0D5
:105F880037F90127431E324629468DE8C0001BB267
:105F9800204601F011FB204602F02DF9013800B22D
:105FA8002B463246294600900197204601F004FB13
:105FB800204602F01DF98046204602F019F9814674
:105FC800204602F018F9013809F1FF3308F1FF31D2
:105FD80000B232461BB209B200900197204601F088
:105FE800EBFA204602F007F90646204602F000F9CF
:105FF8008046204602F0FFF8013808F1FF33721E90
:1060080000B2009001971BB212B22946204601F057
:10601800D3FA07B0BDE8F083C8E103201DDB0D000B
:1060280078E20320F8B51E4C1E4F1F4E204602F0A2
:1060380003FD05221146204602F0CBF81B492046F5
:1060480004F06AF9204602F081FC194B00221A601C
:10605800204601233B6002F0CBF8022590FBF5F0C7
:1060680000B23060204602F0C6F8124B90FBF5F003
:1060780000B218603B68104A3168013BD1540F4A9E
:10608800D0540F4B03224FF4FA601A6003F044FB1C
:10609800204602F0D1FCBDE8F840FFF73DBF00BF45
:1060A800C8E103203CD8032034D8032025DB0D00A9
:1060B80078E2032038D803207CE2032064E203203E
:1060C80028D8032008B50C4B1A680C4B1B689A4259
:1060D8000FD10B4B1A680B4B1B689A4209D10A4A1D
:1060E80013680A331360FFF717FFFFF7CFFE01208D
:1060F80008BD002008BD00BF34D8032094E2032067
:1061080038D8032098E2032078E203202DE9F041F3
:10611800314802F091FC314A3149B2F90020B1F915
:1061280000102D48012302F0F1F9FFF7CBFF0646D6
:10613800FFF786FE00284CD1FFF7CAFE002848D199
:10614800DFF8B080274F0024D8F80000254D2649F5
:10615800844201DB034607E03A5D095D1E480123DE
:1061680002F0D4F90134EFE7002B07DD013BCA1830
:10617800CC5C5470EA18EC5C5470F5E71B4A1C4B75
:1061880036B11C4C461C266014680C541C682C54F0
:10619800194800680138032810D8DFE800F0020524
:1061A800080C1868013804E01068013005E0186828
:1061B8000130186002E010680138106012681B682E
:1061C8002B700A70FFF7A8FE0348BDE8F04102F003
:1061D800BDBBFFF727FFB3E7C8E1032098E2032020
:1061E80094E2032064E203207CE2032034D80320F5
:1061F80038D803203CD8032028D80320F8B51E4CF3
:106208001E4D002601272E702770FFF709F900F0B0
:1062180021FC1B4B1B481E601B4B1C4E08221A609E
:1062280001F0E6FF1A4B01381860164801F0E3FF49
:10623800184B01381860FFF729FE2378ABB12B788B
:10624800052B01D1022309E0022B01D1032305E02C
:10625800032B01D1376002E0042B00D13360FFF734
:1062680055FF3C2003F058FAE7E7034A13700A4A3F
:10627800137801331370F8BDF6E1032008E2032018
:1062880090E20320C8E1032024D8032028D8032063
:106298002CD8032030D80320C0E1032070B5094E64
:1062A800094D002332785C1CDBB29A4208D9E85CBD
:1062B800962100F005FD962003F02EFA2346F1E71B
:1062C80070BD00BFBEE203209EE2032008B5042192
:1062D800002004F0E0F8C0B238B1012807D0022845
:1062E80007D0032808BF082004E0012002E00220AC
:1062F80000E00420034A1378591C1170024AD05454
:1063080008BD00BFBEE203209EE2032070B502F084
:10631800FBFE40F6B736054602F0F6FE401BB042DB
:1063280010D800F0BFF904460028F5D0962100F0F7
:10633800C7FC00F0B7F90028FBD10A2003F0ECF9FC
:10634800204670BD002070BD2DE9F041104C114F62
:1063580000232370B846FFF7D9FF23785A1CF85456
:10636800227000252378EEB2B34209D9FFF7CEFF99
:1063780050B118F80630984205F10105F2D003E053
:10638800642003F0C9F9E6E70020BDE8F08100BF0A
:10639800BEE203209EE2032008B50021082000F099
:1063A800BBFE062000F066FC092000F063FC062016
:1063B80000F060FC0920BDE8084000F05BBC00006C
:1063C80070B5104B1A781C46DAB90F4E327000F0CF
:1063D80069F90228054604D0FFF7DEFF0123237080
:1063E80070BD0123337000F045FC2846962100F06B
:1063F80067FC0D2000F03EFC00F054F90028FBD1AA
:10640800EAE770BD9DE203209CE2032008B5002165
:10641800082000F087FE032000F02CFC0C2000F080
:1064280029FC032000F026FC0C20BDE8084000F001
:1064380021BC08B5012000F01DFC642003F06CF9B4
:1064480000F030F9D8B9042000F014FC642003F0FF
:1064580063F900F027F990B9022000F00BFC6420E2
:1064680003F05AF900F01EF948B9082000F002FCC0
:10647800642003F051F900F015F90028DAD008BDBE
:10648800F7B502F041FE284C284F04F00EF800231F
:10649800237023780C2B44D80A2B34BF01251225EE
:1064A800FEF7BEFF0121224801F096FE05221921C0
:1064B8001F4801F08EFE1F491D4803F040FF0123CD
:1064C8000E22009300218023194801F097FE042131
:1064D800174801F081FEC5F137011922144801F06F
:1064E80078FE0A222178124803F062FF104802F071
:1064F8002DFAFFF7EBFEFFF7D1FE00252378EEB269
:10650800B34209D9FFF702FF60B1BB5D984205F1BC
:106518000105F3D0002005E04FF47A7003F0FCF891
:10652800B7E7012003B0F0BDBEE203209EE20320DE
:10653800C8E1032032DB0D0010B5FFF77AFF0F200A
:1065480000F098FB4FF47A7003F0E6F8002000F0B2
:1065580091FBFA2003F0E0F80A4B1A781C463AB986
:10656800FFF78EFF10B1FFF717FF01E0FFF74EFFAF
:106578002378012B05D1FFF7E7FEBDE81040FFF7B0
:1065880045BF10BD9CE2032010B5084C01232370C1
:10659800074B00221A70FFF713FF00F083FA2378E5
:1065A80013B1FFF7C9FFFAE710BD00BFF6E10320FA
:1065B80008E2032010B50021314C0C2004F01EFF26
:1065C80000210D2004F01AFF022220460C2102F0BF
:1065D800FEFB20462B4C322102F006FC022220460C
:1065E8000E2102F0F4FB2046274C322102F0FCFB7E
:1065F800022220460D2102F0EAFB2046234C3221DC
:1066080002F0F2FB022220460F2102F0E0FB2046B6
:106618001F4C322102F0E8FB02222046062102F03C
:10662800D6FB20461B4C322102F0DEFB022220461C
:10663800052102F0CCFB2046174C322102F0D4FB96
:1066480002222046042102F0C2FB2046134C3221CC
:1066580002F0CAFB02222046032102F0B8FB2046C2
:1066680032210F4C02F0C0FB02222046114602F0F4
:10667800AEFB20463221BDE8104002F0B5BB00BF9A
:10668800E0E20320F8E20320D0E20320D8E203206E
:10669800E8E20320F0E2032000E30320C0E2032045
:1066A800C8E2032008B50C2004F0D2FE78B10D2012
:1066B80004F0CEFE68B10E2004F0CAFE58B10F20D7
:1066C80004F0C6FE00280CBF0820002008BD0120E9
:1066D80008BD022008BD042008BD000008B50E480A
:1066E80002F05FFB0D4802F05CFB0D4802F059FB1D
:1066F8000C4802F056FB0C4802F053FB0B4802F022
:1067080050FB0B4802F04DFB0A4802F04AFB0A48CE
:10671800BDE8084002F045BBE0E20320F8E20320B0
:10672800D0E20320D8E20320E8E20320F0E20320CD
:1067380000E30320C0E20320C8E2032010B5104B99
:106748001B78DBB102F0D8FC0E4B1A68801A0E4A8F
:1067580011684FF47A724A4390421C4600DA10BD21
:106768000A4B1B781BB90A4A137801331370094B7B
:1067780003221A7002F0C0FC206010BD10BD00BFDB
:106788000CE1032008E3032040D80320F6E10320AE
:10679800C0E1032008E2032010B5104B1B78DBB1E1
:1067A80002F0AAFC0E4B1A68801A0E4A11684FF4C0
:1067B8007A724A4390421C4600DA10BD0A4B1B7895
:1067C8001BB90A4A137801331370094B02221A7055
:1067D80002F092FC206010BD10BD00BF0CE1032048
:1067E80008E3032040D80320F6E10320C0E103209A
:1067F80008E2032010B5104B1B78DBB102F07CFCDB
:106808000E4B1A68801A0E4A11684FF47A724A437E
:1068180090421C4600DA10BD0A4B1B781BB90A4A85
:10682800137801331370094B01221A7002F064FCCB
:10683800206010BD10BD00BF0CE1032008E3032059
:1068480040D80320F6E10320C0E1032008E203203A
:1068580010B5114B1B78EBB102F04EFC0F4B1A68C8
:10686800801A0F4A11684FF47A724A4390421C46C4
:1068780000DA10BD0B4B1B781BB90B4A1378013398
:106888001370FEF7B7FD094B04221A7002F034FCAE
:10689800206010BD10BD00BF0CE1032008E30320F9
:1068A80040D80320F6E10320C0E1032008E20320DA
:1068B80010B5114B1B78EBB102F01EFC0F4B1A6898
:1068C800801A0F4A11684FF47A724A4390421C4664
:1068D80000DA10BD0B4B1B781BB90B4A1378013338
:1068E8001370FEF787FD094B05221A7002F004FCAD
:1068F800206010BD10BD00BF0CE1032008E3032099
:1069080040D80320F6E10320C0E1032008E2032079
:1069180010B502F0F1FB144B1B68C01A134B1A6830
:106928004FF47A73534398421CDB0C2003F066FA49
:106938000E2003F063FA0D2003F060FA0F2003F035
:106948005DFA0B4B00241C700A4B04221A700A4A89
:10695800137801331370FEF74DFD2046BDE8104053
:1069680000F01CB910BD00BF08E3032040D8032085
:10697800F6E1032008E20320C0E1032037B502F066
:10698800BBFB134B1B68C01A124B1A684FF47A737F
:106998005343984219DB104B104A00251D70104BC9
:1069A80004241C70137801331370FEF723FD284666
:1069B80000F0F4F8204603F021FA00954FF0FF3379
:1069C80002220849204603F0F3F903B030BD00BFA6
:1069D80008E3032040D80320F6E10320C0E10320A8
:1069E80008E2032059680D0013B5002400944FF005
:1069F800FF3302221249062003F0DAF900944FF01F
:106A0800FF3302220F49052003F0D2F90222009435
:106A18004FF0FF330C49104603F0CAF900944FF0C9
:106A2800FF3302220949042003F0C2F900944FF011
:106A3800FF3302220649032003F0BAF902B010BD61
:106A480045670D00A1670D00FD670D0059680D0031
:106A5800B9680D0037B5124C0025214600954FF056
:106A6800FF3302220C2003F0A3F9214600954FF0D2
:106A7800FF3302220E2003F09BF9214600954FF0C8
:106A8800FF3302220D2003F093F900954FF0FF33F6
:106A9800022221460F2003F08BF903B030BD00BF5E
:106AA80019690D0007B5042003F0A8F90023009325
:106AB80002224FF0FF330349042003F079F903B0B1
:106AC8005DF804FB85690D0008B502F01DFB014B5C
:106AD800186008BD0CE30320F8B5084D0E460024E5
:106AE80087B22146384604F0DDFC304602F014FE39
:106AF8002B681C44FF2CF4DDF8BD00BF44D80320EC
:106B0800F8B5074D0E46FF2487B22146384604F0F3
:106B1800C9FC304602F000FE2B68E41AF5D5F8BD32
:106B280044D8032038B50D4D05242146102004F023
:106B3800B9FC2146122004F0B5FC2146112004F0CE
:106B4800B1FC2146132004F0ADFC0F2002F0E4FD57
:106B58002B681C44FF2CE8DD38BD00BF44D8032057
:106B680038B50D4DFF242146102004F09BFC21462A
:106B7800122004F097FC2146112004F093FC2146D2
:106B8800132004F08FFC0F2002F0C6FD2B68E41AD6
:106B9800002CE8DC38BD00BF44D8032010B501281C
:106BA8000CBFFF2400242146102004F07BFC214662
:106BB800122004F077FC2146112004F073FC2146D2
:106BC8001320BDE8104004F06DBC38B50546002020
:106BD800FFF7E4FF03240F212846FFF77DFF0F216D
:106BE8002846FFF78DFF013CF5D138BD08B50321D4
:106BF800072004F003FC0121102004F0FFFB012111
:106C0800122004F0FBFB0121112004F0F7FB012105
:106C1800132004F0F3FBFFF785FFFFF7A1FFFFF751
:106C280081FFFFF79DFFFFF77DFF0020FFF7B6FF0D
:106C38004FF4FA7002F070FDFF21102004F032FCCE
:106C48004FF4967002F068FDFF21122004F02AFC30
:106C58004FF4967002F060FDFF21112004F022FC31
:106C68004FF4967002F058FDFF211320BDE808404C
:106C780004F018BC10F0010110B518BFFF2104463C
:106C8800102004F00FFC04F0020303F0FF0103B12D
:106C9800FF21112004F006FC04F0040303F0FF01B7
:106CA80003B1FF21122004F0080404F0FBFB04F0F8
:106CB800FF0104B1FF211320BDE8104004F0F2BB2E
:106CC80038B505460C46FFF7D5FF681E072813D8C8
:106CD800DFE800F00407120A1212120D4FF48E6159
:106CE80007E04FF40E7104E040F2533101E040F246
:106CF8007E21204600F050FA0020BDE83840FFF71A
:106D0800B9BF000010B5074C2068012303FA00F052
:106D1800C0B2FFF7AFFF23680133032BC8BF0023BE
:106D2800236010BD10E30320254A38B500251570EF
:106D3800244C254A012323701370FFF7B3FE28461D
:106D4800FFF72CFF2378D3B3FEF71EFBFF21122099
:106D580004F0A8FB642002F0DFFCFF21112004F0FE
:106D6800A1FB642002F0D8FCFF21132004F09AFB59
:106D7800642002F0D1FCFF21102004F093FB642072
:106D880002F0CAFC0021122004F08CFB642002F0FF
:106D9800C3FC0021112004F085FB642002F0BCFC38
:106DA8000021132004F07EFB642002F0B5FC0021D2
:106DB800102004F077FB642002F0AEFCC2E738BD77
:106DC80008E20320F6E103204DE20320254A38B506
:106DD80000251570244C254A012323701370FFF7F2
:106DE80061FE2846FFF7DAFE2378D3B3FEF7CCFA24
:106DF8000A211220FFF770FE052002F08DFC0A21FF
:106E08001120FFF769FE052002F086FC0A211320F5
:106E1800FFF762FE052002F07FFC0A211020FFF731
:106E28005BFE052002F078FC0A211220FFF768FEBD
:106E3800052002F071FC0A211120FFF761FE0520F0
:106E480002F06AFC0A211320FFF75AFE052002F01F
:106E580063FC0A211020FFF753FE052002F05CFCBA
:106E6800C2E738BD08E20320F6E103204DE2032023
:106E78000C4A70B5002515700B4C0C4A01230646C8
:106E880023701370FFF70EFE2846FFF787FE23785E
:106E98003BB10EB1FEF778FAFFF744FEFFF760FE4C
:106EA800F5E770BD08E20320F6E103204DE2032078
:106EB80037B5164A164C00251570164A012313706B
:106EC800154A2370106851686B4603C3FFF7EAFD43
:106ED8002846FFF763FE2378ABB1FEF755FA042086
:106EE80003F0CEFA02AB03EB4000FF2130F8085C58
:106EF800284604F0D7FA962002F00EFC0021284616
:106F080004F0D0FAE7E703B030BD00BF08E2032081
:106F1800F6E103204DE2032040DB0D00254A38B599
:106F280000251570244C254A012323701370FFF7A0
:106F3800B9FD2846FFF732FE2378D3B3FEF724FACB
:106F4800FF21122004F0AEFA962002F0E5FBFF21A3
:106F5800112004F0A7FA962002F0DEFBFF2113208F
:106F680004F0A0FA962002F0D7FBFF21102004F0CD
:106F780099FA962002F0D0FB0021102004F092FA32
:106F8800962002F0C9FB0021132004F08BFA96200A
:106F980002F0C2FB0021112004F084FA962002F0CE
:106FA800BBFB0021122004F07DFA962002F0B4FB0E
:106FB800C2E738BD08E20320F6E103204DE20320D2
:106FC800FFF7B2BEFFF702BFFEF7A8BC08B5FEF791
:106FD800F3FC0020BDE80840FFF74ABF0846FEF76B
:106FE800BBBC10B500231A461946184602F054FBDC
:106FF80000231A4619461846BDE8104002F034BB73
:1070080010B50E4C0E4A0F49204603F001F90E4AFE
:107018000E49204603F0FCF80D4A0E49204603F0BD
:10702800F7F80D4A0D49204603F0F2F820460C4ABD
:107038000C49BDE8104003F0EBB800BF08E403209A
:10704800C96F0D0048DB0D00CD6F0D0053DB0D003F
:10705800D16F0D007DDA0D00D56F0D006ADA0D00D5
:10706800E56F0D0064DB0D0000221146104608B5DF
:1070780002F00AFB024608B109480BE0014602F09B
:10708800FBFA024608B1074804E0014602F00CFB8F
:1070980020B10548BDE80840FEF7BCBC08BD00BFEC
:1070A8007ADB0D0081DB0D008CDB0D000000000099
:1070B8002DE9F843884691460C460125C6B24FF49F
:1070C8007A77D8F80030B5EB430F1FDCB9F1000F21
:1070D80001D0FFF717FEA268616897FBF2F230460D
:1070E80003F0F8FB54F8080F97FBF0F004F01CFDD0
:1070F80007A3D3E9002304F07DFD05F03DF802F075
:107108000BFB304603F0FDFB0235DAE7BDE8F883F8
:10711800CDCCCCCCCCCCF43F0A460149FFF7C8BF54
:1071280094DC0D000A460149FFF7C2BF98DB0D0049
:10713800F8B50720FFF79EFD0020FFF79BFD144ED2
:107148000224144F0025FFF7DDFD326857F825109B
:10715800082003F0BFFB306804F0E6FC0AA3D3E97B
:10716800002304F047FD04F0DFFF02F0D5FA0135F3
:10717800082003F0C6FB202DE5D1013CE1D12046D3
:10718800BDE8F840FFF776BDCDCCCCCCCCCCF43FF5
:1071980048D8032014DC0D0010B502460446082028
:1071A80003F098FB204602F0B7FA0820BDE810402B
:1071B80003F0A7BB1FB5114C204601F03DFC20464B
:1071C80001F0C4FB00221146204601F002F880219C
:1071D800302201238DE80E002046094B10220021A1
:1071E80000F0EAFE204601F0B1FB0F220021204604
:1071F80004B0BDE8104001F026BB00BFC8E1032081
:10720800F0DC0D00F8B54F4D2B685A1E012A1DD829
:107218004D4E4E4933684E4F4E4A51F8234057F869
:1072280023301268002B04FB02F40ADDFF21102032
:1072380004F038F93368224657F82310082003F081
:1072480049FB3368013333600C2B4AE0032B01D030
:10725800052B21D13F4B3C4E1C6832683E493F4FBD
:10726800630051F822405C4357F82230002B0EDDB2
:10727800FF21122004F016F93368224657F823102C
:10728800082003F027FB364A13680133136033687C
:10729800013333603E2B24E023F00203042B29D171
:1072A800294E30493368304F2A4A51F8234057F85D
:1072B80023301268002B04FB02F40EDDFF2111209D
:1072C80004F0F0F83368224657F82310082003F03A
:1072D80001FB234A136801331360336801333360B9
:1072E8003A2B07D92B68184A01332B600023136007
:1072F8001B4A1360204602F00FFA082003F001FB36
:107308000021102004F0CEF80021122004F0CAF861
:107318000021112004F0C6F8144B07EE904A93EDB3
:10732800007AF8EEE77A67EE877AFCEEE77A17EEEE
:10733800900A02F0F1F92B68072B02BF014B0122DA
:107348001A60F8BD34DB032014E3032070DB03204C
:1073580038DB03206CDB032038DA03203CD9032018
:1073680018E303204CD80320A4DB032038D90320DA
:1073780038B5084C01232370074B00251D70FFF713
:1073880019FF2846FFF70AFC237813B1FFF73AFFE5
:10739800FAE738BDF6E1032008E203200000000008
:1073A8002DE9F843404C414D4148D4F80090D5F8B8
:1073B80000802DED028B01F097FB10EE100A04F00F
:1073C800C5FB37A3D3E9002304F014FC0022394B92
:1073D80004F05EFA0022384B04F00CFC0022002373
:1073E80006460F4604F08CFE0022344B20B130468E
:1073F800394604F04DFA03E03046394604F046FABF
:1074080004F092FE04F090FB00222B4B04F01CFDCC
:1074180004F08AFE2060264801F020FBF2EE047A90
:1074280020EE270AB0EE678AB5EEC00AF1EE10FA30
:1074380010EE100A06DB04F089FB00221F4B04F053
:1074480027FA05E004F082FB00221C4B04F01EFA28
:1074580004F06AFE07EE900AB8EEE77A2068C7EEF5
:10746800087AFDEEE77A17EE901AC5ED007AFEF776
:10747800A5FB134B1B786BB10B4B1B68994503D1CC
:107488000A4B1B68984505D0BDEC028BBDE8F84354
:10749800FEF73AB8BDEC028BBDE8F883AFF3008085
:1074A800CDCCCCCCCCCCFC3FACE1032030E10320EC
:1074B80034E1032000004040000024400000E03F89
:1074C80044E2032038B5154C1820256803F0D3FF93
:1074D8006423584340F6FF7390FBF3F0002806DB63
:1074E80004F022FB00220E4B04F0D2F905E004F070
:1074F8001BFB00220A4B04F0C9F904F015FE2060BA
:10750800FEF7A0FB074B1B783BB1044B1B689D4261
:1075180003D0BDE83840FEF73FB938BD40E103204D
:107528000000E03F4EE203207047000010B5064B14
:10753800036064330446036103F08BFA204603F0CA
:10754800E9FC204610BD00BF7CE70D0010B50446DD
:10755800FCF7A1FD204610BD10B50446FFF7E6FF75
:107568002046FCF798FD204610BD000038B50C4CAD
:107578000C4D204603F0B0FC2A460B49204604F087
:1075880031F801F0A9FD094C094B1860204602F0BA
:107598007DFC2A4620460749BDE8384004F022B859
:1075A80038E3032008E1032035750D001CE30320B0
:1075B80034E3032031750D002DE9F04F85B01E46E8
:1075C800BDF93830BDF83CA015469A1A002AB8BF54
:1075D80052420092721A002AB8BF524201920C46D7
:1075E800009A01998A42814605DD32461E461346B5
:1075F80022462C461546B44205DD2A461D4613464A
:107608002246344616465A1B002AB8BF5242C4EBDB
:1076180006089D42B4BF01234FF0FF331FFA88F8D4
:10762800029303920FFA88F7022297FBF2F7B4420B
:107638001FDC019A009B9342D9F80030C8BF22464C
:10764800D3F810B0C8BF29465346DCBF2A462146A6
:107658004846D847039BFF1ABBB21FB2002F05DA72
:10766800029A08EB030715442DB23FB2013424B245
:10767800DDE705B0BDE8F08F2DE9F347BDF82C60D4
:107688000768BDF928A000960446FF6991460D4693
:107698009846B847236800960AF1FF324A44DF69E2
:1076A80029464346204612B2B847236800969F6988
:1076B8004A46534629462046B84723680A9608F1A1
:1076C800FF3129449D694A46534609B22046AC46D3
:1076D80002B0BDE8F047604737B5013B1344046882
:1076E800BDF8185001951BB2009364690B46A0477A
:1076F80003B030BD37B5BDF8185004688DE82400D4
:10770800013B0B4464691BB2A04703B030BD2DE9AF
:10771800F347BDF92880BDF82C90054617460C465E
:1077280001EB030A54450BDA2B68CDF800909E69EB
:10773800214643463A4628460134B04724B2F1E789
:1077480002B0BDE8F08713B5B0F90E2004680191C6
:1077580000920022B0F90C30646A1146A04702B0CA
:1077680010BD704730B501810024084D42818181E8
:10777800C2814FF6FF71012244600560447604829D
:1077880044820276C1828182827630BDF8DF0D00A4
:107798002DE9F04F8BB01FFA82FB0393BDF80C6004
:1077A800BDF85050C6F101031BB20293C6EBC633B5
:1077B8005B001BB2069303680446174606EB0B02F0
:1077C800D3F8109012B22B468846C8472368C6EBF8
:1077D8000B024146D3F8109012B22B462046C847F8
:1077E8001FFA88F3F118019323683A46D3F81080FA
:1077F80009B22B462046C047019B991B23683A468D
:107808001E6909B22B462046B04700230593019B09
:1078180001330793019B013B08930BF10103099383
:10782800BDF91430039A934280F28480029B002BA6
:107838000BDB531E1BB20393069B02339BB21AB297
:107848000692029A13441BB20293BDF81470029B6D
:1078580003EB470303331BB20293079B07EB030AAF
:10786800BDF80C3004930BEB030923680FFA8AFA6E
:107878000FFA89F9D3F810804A4651462B4620461C
:10788800C047089BC7EB030823681B690FFA88F8F1
:107898001E464A4641462B462046B047049BC3EB4A
:1078A8000B0923681B690FFA89F91E464A46514697
:1078B8002B462046B04723684A46D3F810A04146D5
:1078C8002B462046D047019B049A03EB0208099BEC
:1078D80007EB030923680FFA88F80FFA89F9D3F838
:1078E80010A04A4641462B462046D047019B049AA1
:1078F8009E1A236836B24A46D3F810A031462B4662
:107908002046D0470BF1FF33DF1B23683FB24146C7
:10791800D3F810903A462B462046C84723683A4683
:10792800D3F8108031462B462046C047059B0133CB
:10793800059375E70BB0BDE8F08F2DE9F04F87B0E0
:107948001D469DF840300393ABB20292C3F1010289
:10795800C3EBC3335B001BB2049300230193039B67
:10796800BDF8447003F0040312B2DBB2044600927F
:1079780005931FFA81F8BDF90430AB4280F29D806F
:10798800009B002B0ADB049B02339BB21AB20492C1
:10799800009A1344013D1BB22DB20093009BBDF821
:1079A800046003EB460303331BB20093059BEBB162
:1079B800BDF8089023681FFA85FA08F1010109EB60
:1079C8000A023144D3F810B012B23B4609B220463D
:1079D800D847236809F10102324408EB0A01D3F8B9
:1079E80010B012B23B4609B22046D847039B99070C
:1079F8001DD5BDF8089023681FFA85FA08F1010122
:107A0800CAEB09023144D3F810B012B23B4609B2AE
:107A18002046D847236809F1FF32921B08EB0A0178
:107A2800D3F810B012B23B4609B22046D847039BA0
:107A38001A071DD5BDF8089023681FFA85FA09F1C1
:107A480001003218CAEB0801D3F810B012B23B4655
:107A580009B22046D847236808F1FF310AEB09022A
:107A6800891BD3F810B012B23B4609B22046D8475A
:107A7800039BDB0703D4019B013301937BE7BDF82C
:107A8800089023681FFA85FA09F1FF30821BCAEBB8
:107A98000801D3F810B020463B4612B209B2D847C5
:107AA800236808F1FF31CAEB0902891B12B21E696B
:107AB80009B23B462046B047DDE707B0BDE8F08F86
:107AC8002DE9F04F8DB01E469DF858300993BDF949
:107AD8005C300A93BDF860300493B3B2C3F1010877
:107AE800C3EBC3335B001BB2069300230393099BCC
:107AF800089203F0010304460FFA88F80B931FFA63
:107B080081FBBDF90C30B34278DAB8F1000F09DB1C
:107B1800069B02339BB2013E1AB2984436B20692D3
:107B28000FFA88F8BDF80CA04FEA4A039BB20593F8
:107B3800033398440B9B0FFA88F853B3BDF82830E9
:107B480025680498BDF8207000901FFA86F9A86986
:107B580007930BF10101013303EB4903C9EB07025A
:107B6800514405461BB212B209B22046A847079BEA
:107B7800059A2068049D0095033313447A1ECAEBC6
:107B880002020BEB090185691BB212B209B2204649
:107B9800A847099B9B0703D4039B01330393B0E7D2
:107BA800BDF82050BDF8289004980795B7B2EA1B95
:107BB80025680090A86909F101030BF1FF3103EB77
:107BC8004703CAEB010105461BB2204612B209B2AF
:107BD800A847059A2068049D009509F103031A44F3
:107BE8001346079A8569013ACAEB0202C7EB0B01F3
:107BF8001BB212B209B22046A847CDE70DB0BDE8C6
:107C0800F08F2DE9F04F89B09BB2BDF94C900791E8
:107C18001FFA89FABDF81C1004934FEA4A0303912E
:107C28009BB25144059309B20291049B0599BDF892
:107C38005060BDF948805F1A036800963FB29346CA
:107C4800DD6902993B461FFA88F80446A8471FFADF
:107C58008BF508F1FF332B449BB2069323680096FB
:107C6800D3F81CB0BDF9182002993B462046D847E6
:107C7800059B00965544C3EB0808236807999F693C
:107C88002DB20FFA88F843462A462046B847039B88
:107C9800049A00969F18BFB22368791ED3F818B0CB
:107CA8002A464346204609B2D847012300932A466C
:107CB8004B46029901962046FFF73FFE6FEA0A03FA
:107CC8001F443FB2022300932A464B4639462046BA
:107CD8000196FFF732FE069B0196CAEB030A0FFADC
:107CE8008AFA0423009352464B4639462046FFF74A
:107CF80024FE08230299129352464B4620461396B7
:107D080009B0BDE8F04FFFF718BE2DE9F04F89B074
:107D180089B2BDF94CA0BDF9484007941FFA8AF80A
:107D28004FEA4804BDF850B005919DB201EB080731
:107D3800A3B20168079C06933FB2CDF804B0009443
:107D4800EB1A4C6A1BB2394681461646A047079B78
:107D5800CDF808B05C1E069BE41A059B691E4644D4
:107D6800194436B224B2C8EB01010123009332460C
:107D780053464846019409B2FFF7A2FE0223129324
:107D88003246534639464846CDF850B0139409B0A8
:107D9800BDE8F04FFFF794BE2DE9F04F85B00768B6
:107DA800BDF84450BDF9389001950446CDF80090CF
:107DB80003927F69BDF93C60BDF940808A469B46C5
:107DC800B84723680195CDF800805F694A46334675
:107DD80059462046B8472368039A0E920F955D6965
:107DE8004246534631462046AC4605B0BDE8F04F02
:107DF80060472DE9F04F8DB01546BDF95860BDF9C3
:107E080060200C46B542BDF8641005918146BDF965
:107E18005C0006DD95420EDDA846214635461C4627
:107E280004E0964240F3C280B0461946AA420BDBF2
:107E3800164603460CE0904632462E4615461A462C
:107E480001462346144603E02E46234615460446BB
:107E580045451DD19C4205DCA342B8BF23461A46BE
:107E6800234614B28B4204DC8C42B8BF0C4624B2C1
:107E78001946D9F80020059816900134631AD46978
:107E88001BB22A464846A4460DB0BDE8F04F6047ED
:107E98001FFA83FBA3B20293C3EB0B039BB2A8B2F6
:107EA8000993B3B21A1A12B20A92029A89B28A1ABA
:107EB80092B2464504921FFA88F2A2EB0000CBEB7F
:107EC8000101A2EB030218BF03F1FF3300B289B22C
:107ED80012B218BF1BB24FF0000A079008910B921C
:107EE80014BF069306962F46CDF80CA0069B9F421A
:107EF80029DC039B0A9A93FBF2F1029B029A0398EE
:107F08001944079B9AFBF3F31344099A024412B2EB
:107F180009B21BB20392049A0598009099429244C0
:107F2800C2BF0A4619461346D9F800200133D26960
:107F38005B1A14461BB23A46484601370FFA8AFACA
:107F4800A0473FB2D2E7BDF82030BE1B16FB03F6B0
:107F5800BDF810307D1B15FB03F536B22DB2474531
:107F680027DC029A0B9B96FBF3F1079B95FBF3F337
:107F78001344089A05980090594409B21BB2164454
:107F8800049A99421544C2BF0A461946134601335A
:107F9800D9F800205B1AD2F81CA01BB23A46484612
:107FA800013736B22DB2D0473FB2D8E790460146E6
:107FB8004EE70DB0BDE8F08F2DE9F04F87B09A4637
:107FC800BDF9443002938DE80300BDF84830BDF98F
:107FD800408003930024082325460593914608F121
:107FE800070292FBF3FB029A2BB29A4225DD09EBBA
:107FF80005031BB20026049333B243451ADA059AE7
:1080080093FBF2F30AEB0402B1B2D25C802001F0D8
:10801800070340FA03F31A420AD0019B049A009816
:108028001944009B1B681B6909B21F46039BB8478C
:108038000136E1E701355C44D5E707B0BDE8F08FCC
:108048002DE9F04F8FB005460691BDF860100791F5
:10805800BDF864100891B0F90C1006989DF8688076
:1080680081427CDDB5F90E10914278DD062111FBC5
:108078000800002873DD02EBC80000286FDD03EB61
:10808800830396B20C9306F108039BB2099100246E
:108098000D93052C1CBF334B0C9A059616BF1B1964
:1080A8004FF0000913F8029004961FFA88F303931F
:1080B800039ABDF8183004FB023213FA84F312B2A3
:1080C8001BB20A9237460FFA88FA0B9319F0010F80
:1080D80011D0B8F1010F2B6803D1D3F810B0079B6A
:1080E80014E0079A0192CDF800A0D3F824B0BDF9A6
:1080F8001020534618E0079B089A934217D0B8F10E
:10810800010F2B6807D1D3F810B013463AB20B9978
:108118002846D8470BE0089A0192CDF800A0BDF98F
:108128001420D3F824B053460A992846D847049B0C
:10813800039A13449BB20493059B13449BB20137E3
:1081480005930D9BBFB29F424FEA5909BED1099BC7
:10815800013B013413F0FF0364B2099399D10FB0C6
:10816800BDE8F08F28E00D0030B50A2985B0044637
:108178000B4604D1027E438A03EBC20323E00D2998
:1081880024D0057EB0F91220B0F910100295C58AE6
:108198000195858A0095FFF753FF227E238A91B2C5
:1081A80001EB410003EB4003A07E1BB2238268B1C0
:1081B800B4F90C006FF0050505FB0202934205DDDA
:1081C800638A03EBC103638200232382012005B085
:1081D80030BD018242827047002908BF0121017623
:1081E8007047C1828182704781767047407E7047B0
:1081F800B0F90C007047B0F90E007047F0B5447E36
:10820800BDF81450022C08D0032C0FD0012C70D1CB
:108218000489013CA21A12B20CE04489013CA21A5A
:108228000489E41A611A12B209B262E04489E41AB4
:10823800611A09B2002A5BDBB0F90840944240F3A6
:1082480090800029BEBF5B181BB20021B0F90A005C
:10825800CC188442C4BF431A1BB2002B40F3818060
:10826800C9B2C8083F4F02EBC01211F00701DBB2D8
:1082780007EB020417D0C1F10801C8B23A4983429A
:108288000E5C3FBFC3EB000EFF2141FA0EF10E401A
:10829800B95C012D0CBF3143B1438342B95460D35B
:1082A800181AC3B28034072B17D9012D0CBFFF2031
:1082B800002004F180011A46083AD2B2072A01F8D0
:1082C800800C01F18001F7D8A3F10802C2F3C402BF
:1082D800013204EBC21403F00703002B41D0234AF8
:1082E800D25C2378012D0CBF134393432370F0BD58
:1082F800F0BD002A35DBB0F90A40944231DD00298F
:10830800BCBFC9180BB2B0F90870B8BF0021CE18AD
:10831800BE42C4BF631A1BB2002B22DDD01001EB92
:10832800C011104802F007020144012000FA02F2CD
:108338008542D2B209D1013B1BB25C1C11D011F8A5
:10834800010B104301F8010CF5E7D243D2B2013B0F
:108358001BB2581C05D011F8010B104001F8010C94
:10836800F5E7F0BDA0DC032098DC032090DC0320B7
:10837800F0B5447EBDF81450022C08D0032C0FD061
:10838800012C12D10489E41AA21A12B26DE00489F0
:10839800013C611A4489E41AA21A09B212B204E033
:1083A8004489013C611A09B25FE000295CDBB0F93D
:1083B80008408C4240F39180002ABCBFD21813B207
:1083C800B0F90A00B8BF0022D4188442C4BF831A87
:1083D8001BB2002B40F38180D4B2404EDAB2E308DE
:1083E80001EBC31114F0070406EB010317D0C4F125
:1083F8000804E0B23A4C8242275C3FBFC2EB000E51
:10840800FF2444FA0EF42740745C012D0CBF3C4352
:10841800BC438242745460D3101AC2B28033072A14
:1084280017D9012D0CBFFF24002403F18000114649
:108438000839C9B2072900F8804C00F18000F7D844
:10844800A2F10801C1F3C401013103EBC11302F029
:108458000702002A41D02349895C1A78012D0CBFF4
:108468000A438A431A70F0BDF0BD002935DBB0F924
:108478000A408C4231DD002ABCBFD21813B2B0F9D1
:108488000870B8BF0022D618BE42C4BFA31A1BB2D8
:10849800002B22DDC81002EBC012104801F00701C2
:1084A8001044012202FA01F19542C9B209D15A1EBB
:1084B80013B25C1C11D010F8012B0A4300F8012CF0
:1084C800F5E7C943C9B25A1E13B25A1C05D010F8B1
:1084D800012B0A4000F8012CF5E7F0BDA0DC0320D1
:1084E80098DC032090DC032010B42AB11946064812
:1084F8005DF8044B02F072B80122C9B2C0B25DF84F
:10850800044B02F0F5BF00BF40E70320F8B50D1E8D
:10851800064614461F463FDBFFF76AFE85423BDAF4
:10852800002C39DB3046FFF766FE844234DA3046E9
:10853800FFF75CFE022827D131897089013901389B
:10854800491B001B0DB204B206E0012804D133898F
:10855800013B1B1B2C461DB20820012F94FBF0F099
:1085680000B20E4B04F0070205EBC01104D197408E
:108578005A5C17435F54F8BD585C012707FA02F2AA
:1085880020EA02025A54F8BD0328DED17389013B60
:108598005B1B25461CB2DFE7F8BD00BFA0DC03204B
:1085A80038B5402204460D468021FFF7DBF8064B1C
:1085B8002360FF23637784F82130E377A37784F877
:1085C8002050204638BD00BF2CE50D0038B590F985
:1085D8001D30013304460D4622D090F921000121B7
:1085E80080B202F01CFF94F91F00002180B202F053
:1085F80016FF94F92100002180B202F010FF94F9CF
:108608001E1094F91D0094F822202B46FFF76CFFEA
:1086180094F92100012180B2BDE8384002F0FFBE84
:1086280002F09EFF94F91B1001F0B2FB02F098FFD4
:10863800036800219B68984702F092FF0368294667
:108648009B68984702F08CFFBDE8384001F0A7BB53
:1086580038B504460D46217790F91D30C2760133AE
:1086680033D090F91F00012180B202F0C7FE94F9BF
:108678002100012180B202F0C1FE94F822305BB9DA
:1086880094F91D00012180B202F0B8FE94F91E0091
:10869800012180B202F0B2FE94F82230CBB194F9F5
:1086A8002100012180B202F0BAFE01214F4801F0F9
:1086B80034FF10214D4801F07DFF00214B4801F0A7
:1086C8002FFF4A4801F024FF03E002F049FF01F0C0
:1086D80047FB94F92000012180B202F08FFE94F943
:1086E8002000012180B202F09AFE012001F014F866
:1086F80094F92000002180B202F091FE0A2001F0D6
:108708000BF894F92000012180B202F088FE20467F
:10871800AE21FFF75BFF2046D521FFF757FF204624
:108728008021FFF753FF2046A821FFF74FFF20467F
:108738003F21FFF74BFF2046D321FFF747FF204695
:108748000021FFF743FF20464021FFF73FFF8D211F
:108758002046FFF73BFF012D0CBF102114212046B6
:10876800FFF734FF20462021FFF730FF2046002185
:10877800FFF72CFF2046A121FFF728FF2046C8213C
:10878800FFF724FF2046DA21FFF720FF20461221B9
:10879800FFF71CFF81212046FFF718FF012D0CBFB2
:1087A8009F21CF212046FFF711FFD9212046FFF74F
:1087B8000DFF012D0CBF2221F1212046FFF706FFF6
:1087C8002046DB21FFF702FF20464021FFF7FEFE8F
:1087D8002046A421FFF7FAFE2046A621FFF7F6FE61
:1087E8002046AF21BDE83840FFF7F0BE40E7032040
:1087F80009B1A72100E0A621FFF7E8BE70B504463D
:108808000E4626211546FFF7E1FE20460021FFF718
:10881800DDFE31462046FFF7D9FE20460021FFF74E
:10882800D5FE29462046FFF7D1FE20460021FFF756
:10883800CDFE2046FF21FFF7C9FE20462F21BDE8C7
:108848007040FFF7C3BE70B504460E462721154693
:10885800FFF7BCFE20460021FFF7B8FE3146204650
:10886800FFF7B4FE20460021FFF7B0FE2946204658
:10887800FFF7ACFE20460021FFF7A8FE2046FF21A7
:10888800FFF7A4FE20462F21BDE87040FFF79EBEEB
:1088980070B504460E46A3211546FFF797FE2046FD
:1088A8000021FFF793FE20464021FFF78FFE204668
:1088B8002921FFF78BFE20460021FFF787FE31466E
:1088C8002046FFF783FE20460021FFF77FFE29465A
:1088D8002046FFF77BFE20460121FFF777FE204662
:1088E8002F21BDE87040FFF771BE70B504460E46F3
:1088F800A3211546FFF76AFE20460021FFF766FE12
:1089080020464021FFF762FE20462A21FFF75EFE3F
:1089180020460021FFF75AFE31462046FFF756FE53
:1089280020460021FFF752FE29462046FFF74EFE5B
:1089380020460121FFF74AFE20462F21BDE870405E
:10894800FFF744BE2E21FFF741BE00002DE9F0419C
:1089580021210446FFF73AFE00212046FFF736FEA4
:108968007F212046FFF732FE22212046FFF72EFE08
:1089780000212046FFF72AFE07212046FFF726FEA2
:1089880094F91D30DFF8AC8001332ED094F9210022
:10899800012180B202F043FD94F91F00012180B249
:1089A80002F03DFD94F92100002180B202F037FD6C
:1089B800012000F099FB002518F8053094F82220D2
:1089C80094F91E1094F91D000135FFF78DFDB5F5DA
:1089D800806FF1D1012000F087FB94F9210001217B
:1089E80080B2BDE8F04102F01ABD002502F0B8FDE2
:1089F80094F91B1001F0CCF902F0B2FD0368402194
:108A08009B689847002602F0ABFDAF190368BFB218
:108A18009B6818F8071001369847102EF3D11035C7
:108A280002F09EFDADB201F0BAF9B5F5806FDDD167
:108A3800BDE8F081A0DC03204FF4806200210148EA
:108A480003F046BCA0DC03200368C9B29B68184742
:108A580040220272002242600260704710B504464C
:108A680002F07EFD94F9081001F092F902F078FD09
:108A78000368F5219B68984702F072FD002101F018
:108A88008AF9192000F048FE02F06AFD94F90810EE
:108A9800032201F074F902F063FD03685B699847EB
:108AA80084B202F05DFD03685B69984740EA0420E0
:108AB80004B202F055FD03685B699847A3B207EE5C
:108AC800903A9FED067AF8EE677AB9EE080A67EEF3
:108AD800877A9FED037AA7EE870A10BD0000FA4255
:108AE800000080370000000010B5044602F038FD91
:108AF80094F9081001F04CF902F032FD0368F321F3
:108B08009B68984702F02CFD002101F044F91920D8
:108B180000F002FE02F024FD032294F9081001F08F
:108B28002EF902F01DFD03685B69984784B202F0D4
:108B380017FD03685B69984740EA042004B202F015
:108B48000FFD03685B699847A0B207EE900AF8EE3C
:108B5800677A17EE900A02F0F9FF10A3D3E9002311
:108B680003F048F803F028FBDFED0B7A07EE100A54
:108B780067EE277A17EE900A02F0E8FF04A3D3E91C
:108B8800002302F083FE03F017FB00EE100A10BD6D
:108B9800CDCCCCCCCC6C474000008037D7A3703DFF
:108BA8000AF7654010B5044602F0DAFC94F908109B
:108BB80001F0EEF802F0D4FC0368FE219B689847A8
:108BC80002F0CEFC01F0EBF83220BDE8104000F0D6
:108BD800A3BD10B5044602F0C3FC94F9081001F0D7
:108BE800D7F802F0BDFC0021FFF72EFF02F0B8FC19
:108BF8000F21FFF729FF02F0B3FC01F0D0F802F0D3
:108C0800AFFC082294F9081001F0B9F802F0A8FCAA
:108C180003685B699847206002F0A2FC03685B69FF
:108C2800984723681B02236002F09AFC03685B697B
:108C3800984723681843206002F092FC03685B6938
:108C4800984723681B02236002F08AFC03685B696B
:108C5800984723681843206002F082FC03685B6928
:108C6800984723681B02236002F07AFC03685B695B
:108C7800984723681843206002F072FC03685B6918
:108C8800984702F06DFC94F9081001F081F802F0A1
:108C980067FC0021FFF7D8FE02F062FCC921FFF74C
:108CA800D3FE02F05DFC01F07AF802F059FC94F969
:108CB8000810082201F063F802F052FC03685B69AF
:108CC8009847606002F04CFC03685B6998476368EA
:108CD8001B02636002F044FC03685B6998476368A1
:108CE8001843606002F03CFC03685B69984763685E
:108CF8001B02636002F034FC03685B699847636891
:108D08001843606002F02CFC03685B69984763684D
:108D18001B02636002F024FC03685B699847636880
:108D28001843606002F01CFC0368BDE810405B69F2
:108D3800184738B504460D4602F012FC94F908109D
:108D480001F026F802F00CFC036829469B68984756
:108D580002F006FC002101F01EF802F001FC0122DD
:108D680094F9081001F00BF802F0FAFB03685B694C
:108D78009847C0B238BD10B5044602F0F1FB00F0C8
:108D8800EFFF2046FFF70EFFE7212046FFF7D1FF50
:108D98003A2804D12046FFF71CFF012010BD00200F
:108DA80010BD00220A21026081808271C271704761
:108DB800002310B50446C171837188B202F048FBE4
:108DC80008B10323A37100F09FF9206010BD38B5E6
:108DD8000C4605461146A0B202F010FB2146284673
:108DE800BDE83840FFF7E4BF8180704738B50446D6
:108DF800C07902F02DFBA379051C23F0080218BFE7
:108E08000125C3F340039D42A27106D000F07CF90E
:108E1800A379206083F0020313E000F075F923685A
:108E2800C01AA38898420DD3A37903F001039D4289
:108E380008D000F069F9A379206083F0010343F0BA
:108E48000803A371A079C0F3C00038BD807900F091
:108E5800010070470C23436070470C2280E806002D
:108E6800704710B504460068FFF76CFD2068FFF7EF
:108E7800E3FD002211462068FFF7ABF920680121C5
:108E8800FFF7B2F920680121FFF7ABF9206801214B
:108E9800BDE81040FFF7A0B910B504460068FFF719
:108EA80051FD2068FFF7C8FD20680121BDE810408A
:108EB800FFF797B9704737B5044643680068022240
:108EC80093FBF2F2C2F10B0212B20D460021FFF73A
:108ED80080F920680121FFF784F92946206801F00C
:108EE8002EFA2068012203680092DD690E22802391
:108EF8000021A847206803B0BDE83040FFF726BD31
:108F080038B5C1EBC10115464368022293FBF2F361
:108F1800C3F1200303EB4102044612B205210068A5
:108F2800FFF757F920680121FFF75BF92946206808
:108F380001F005FA2068BDE83840FFF707BD37B5EE
:108F48000446C1EBC10100684A0001250D210368F0
:108F58008DE8220016321D6A12B25F230021A8474D
:108F6800206803B0BDE83040FFF7F0BC70B5054697
:108F780008460E4603F039FA04462868FFF75CFDF8
:108F880004EBC4046A682868022192FBF1F294FB9E
:108F9800F1F1C2F12502C1F14A0112B209B2FFF79B
:108FA80018F93146286801F0CAF92868BDE8704008
:108FB800FFF7CCBCF7B500F1300504460F4628464C
:108FC800FFF748FF39466846FFF747FF9DE803006B
:108FD800002385E803006360A36020460123E36063
:108FE80003B0F0BD2DE9F041C2684368911C8B4283
:108FF800044601DD023B01E0934200DAE36004F13C
:1090080030063046FFF748FF236804F11008196856
:10901800404603F0C7F941463046FFF74CFFA368C6
:10902800E5685D1B012DD4BF013503250027BD422E
:10903800E3680DDD3B442268404652F8231003F0F4
:10904800B1F9394642463046FFF75AFF0137EEE795
:1090580061683046C91AFFF772FF3046BDE8F04133
:10906800FFF728BFF8B504460F4615461E463030B0
:10907800FFF7F7FE27606660A5602046BDE8F84068
:10908800FFF7B0BF08B50229436801D1013302E0F8
:10909800012901D1013B4360426883689A42C4BFF9
:1090A800012242604268002AD8BF4360032901D1E7
:1090B800406808BD042903D0FFF794FF002008BDCD
:1090C8004FF0FF3008BD000008B5024B1B681B6B52
:1090D800019308BD4802030008B5024B1B685B6892
:1090E800019308BD1802030008B5024B1B68DB6832
:1090F800019308BD1802030008B5024B1B681B69E1
:10910800019308BD1802030008B5024B1B685B6990
:10911800019308BD1802030008B5024B1B689B6A3F
:10912800019308BD1802030008B5024B1B685B6C6D
:10913800019308BD1802030008B5024B1B689B6C1D
:10914800019308BD1802030008B5024B1B685B6851
:10915800019308BD2C02030008B5024B1B689B68ED
:10916800019308BD2C02030008B5024B1B68DB689D
:10917800019308BD2C02030008B5024B1B681B694C
:10918800019308BD2C02030008B5024B1B685B69FC
:10919800019308BD2C02030008B5024B1B689B69AC
:1091A800019308BD2C02030008B5024B1B68DB695C
:1091B800019308BD2C02030008B5024B1B689B6A8B
:1091C800019308BD2C02030008B5024B1B681B6BFA
:1091D800019308BD2C02030008B5024B1B689B6F66
:1091E800019308BD2C02030008B5024B1B68DB681D
:1091F800019308BD2802030008B5024B1B685B6990
:10920800019308BD2802030008B5024B1B689B693F
:10921800019308BD2802030008B5024B1B68DB69EF
:10922800019308BD2802030008B5024B1B681B6A9E
:10923800019308BD2802030008B5024B1B685B6A4E
:10924800019308BD2802030008B5024B1B689B6AFE
:10925800019308BD2802030008B5024B1B68DB6AAE
:10926800019308BD2802030008B5024B1B681B6B5D
:10927800019308BD2802030008B5024B1B685B6B0D
:10928800019308BD2802030008B5024B1B681B6C3C
:10929800019308BD2802030008B5024B1B681B692F
:1092A800019308BD6C02030008B5024B1B685B699B
:1092B800019308BD6C02030008B5024B1B689B694B
:1092C800019308BD6C02030008B5024B1B685B6D77
:1092D800019308BD6C02030008B5024B1B689B6D27
:1092E800019308BD6C02030008B5024B1B685B695B
:1092F800019308BD6402030008B5024B1B689B6913
:10930800019308BD6402030008B5024B1B685B6A41
:10931800019308BD6402030008B5024B1B689B6AF1
:10932800019308BD6402030008B5024B1B689B68E3
:10933800019308BD6802030008B5024B1B68DB688F
:10934800019308BD6802030008B5024B1B681B683F
:10935800019308BD2402030008B5024B1B685B6833
:10936800019308BD2402030008B5024B1B685B6823
:10937800019308BD3802030008B5024B1B689B69BE
:10938800019308BD3802030008B5024B1B68DB696E
:10939800019308BD3802030008B5024B1B68DB6A5D
:1093A800019308BD3802030008B5024B1B685B6BCC
:1093B800019308BD3802030008B5024B1B689B6B7C
:1093C800019308BD3802030008B5024B1B681B68EF
:1093D800019308BD3002030008B5024B1B689B6867
:1093E800019308BD3002030008B5024B1B68DB6817
:1093F800019308BD3002030008B5024B1B681B69C6
:10940800019308BD3002030008B5024B1B685B6975
:10941800019308BD3002030008B5024B1B68DB69E5
:10942800019308BD3002030008B5024B1B681B6A94
:10943800019308BD3002030008B5024B1B685B6A44
:10944800019308BD3002030008B5024B1B681B6876
:10945800019308BD3C02030008B5024B1B68DB689A
:10946800019308BD3C02030008B5024B1B681B6949
:10947800019308BD3C02030008B5024B1B685B69F9
:10948800019308BD3C02030008B5024B1B689B69A9
:10949800019308BD3C02030008B5024B1B68DB6959
:1094A800019308BD3C02030008B5024B1B681B6A08
:1094B800019308BD3C02030008B5024B1B689B6A78
:1094C800019308BD3C02030008B5024B1B681B68EA
:1094D800019308BD4C02030008B5024B1B685B688A
:1094E800019308BD4C02030008B5024B1B681B69B9
:1094F800019308BD4C02030008B5024B1B685B6969
:10950800019308BD4C02030008B5024B1B689B6918
:10951800019308BD4C02030008B5024B1B68DB69C8
:10952800019308BD4C02030008B5024B1B681B6A77
:10953800019308BD4C02030008B5024B1B685B6B26
:10954800019308BD6002030008B5024B1B681B6D40
:10955800019308BD6002030008B5024B1B685B68F5
:10956800019308BD2002030008B5024B1B685B6924
:10957800019308BD2002030008B5024B1B68DB6A93
:10958800019308BD2002030008B5024B1B68DB6C81
:10959800019308BD2002030008B5024B1B685B6DF0
:1095A800019308BD2002030008B5034B1B68D3F8DC
:1095B8008830019308BD00002002030008B5034B62
:1095C8001B68D3F89430019308BD00002002030003
:1095D80008B5034B1B68D3F8A430019308BD0000FD
:1095E8002002030008B5034B1B68D3F8A830019389
:1095F80008BD00002002030008B5024B1B681B6869
:10960800019308BD4402030008B5024B1B685B6860
:10961800019308BD4402030008B5024B1B68DB68D0
:10962800019308BD4402030008B5024B1B68DB69BF
:10963800019308BD4402030008B5024B1B681B6A6E
:10964800019308BD4402030008B5024B1B685B6A1E
:10965800019308BD4402030008B5024B1B68DB6B8D
:10966800019308BD4402030008B5024B1B685B6800
:10967800019308BD4002030008B5024B1B689B68B4
:10968800019308BD4002030008B5024B1B681B6923
:10969800019308BD4002030008B5024B1B685B69D3
:1096A800019308BD4002030008B5024B1B681B6A02
:1096B800019308BD4002030008B5024B1B681B68F4
:1096C800019308BD1C02030008B5024B1B685B68C8
:1096D800019308BD1C02030008B5024B1B689B6878
:1096E800019308BD1C02030008B5024B1B685B6AA6
:1096F800019308BD1C02030008B5024B1B68DB6A16
:10970800019308BD1C02030008B5024B1B681B6BC4
:10971800019308BD1C0203000021FFF725BF10B507
:10972800836804460BB901F062FFC3689847A368D1
:109738001BB103222146204698472046BDE8104029
:10974800FAF7A9BC70470020704710B50446FAF72D
:10975800A2FC204610BD08B508B1FFF7F6FF08BD0A
:1097680010B58368044613B1032201469847204682
:1097780010BD38B5C468D4B12378022B02D1E06893
:10978800FFF7A2FF65682DB12846FFF7E9FF2846D5
:10979800FAF781FCA5682DB12846FFF7E1FF2846B6
:1097A800FAF779FC2046BDE83840FAF774BC38BDB2
:1097B80010B588B00446684600F067FF694604A8FB
:1097C80000F0A2FF04A8A047044604A800F016FF72
:1097D800684600F013FF204608B010BDF0B510240D
:1097E80085B007460E46154600212246684602F017
:1097F8006FFD002269461046ADF8004002970396B7
:109808000195FFF701FF05B0F0BD13B5044691E8D7
:10981800050000234B600B602060626001A8019383
:109828000093FCF7B5F9204602B010BD0B68036041
:1098380013B15A6801325A607047F7B50C4602AD49
:1098480054F8043B45F8083D06460F4601A8214652
:10985800FFF7ECFF29463046FFF7D7FF01A8FCF7D2
:1098680097F92046FCF794F93846FAF714FC304685
:1098780003B0F0BD13B50B46044603C88DE80300DA
:1098880093E8030084E803009DE8030083E80300ED
:1098980002B010BD826810B50AB901F0A8FEC3680D
:1098A800BDE81040184708B5006800F11001FFF73F
:1098B800F1FF08BD826810B50AB901F098FEC368C7
:1098C800BDE81040184708B5006800F11001FFF71F
:1098D800F1FF08BD38B5002383608B6804460D4648
:1098E8002BB102229847EB68E360AB68A36020467F
:1098F80038BD00002DE9F0414FF69C7386B004682E
:10990800B1F904208B8000230F688DF800300B60BC
:109918004FF00200D4E84F1F994203D1C4E8450F25
:10992800002DF7D102D08DF800106AE014F10C0573
:109938001EBFE76022821F460123BFF35F8F00200E
:10994800637004F10803BFF35F8F53E8006F43E8C7
:109958000002002AF9D1BFF35F8F002E51D0FFF724
:1099680013FE20B129463046FFF794FF43E0314605
:109978006846FFF7AFFFE068B4F9105008B102F08D
:1099880019FD04901020ADF81450FAF780FB054635
:1099980030B34FF00008C0F808801820FAF777FBBA
:1099A8000446C0B1C0F8088001466846FFF762FF68
:1099B800029BA268A360039B0292E268E360BDF881
:1099C8001430A3824FF69C73ADF81430049B0392B5
:1099D8002361CDF810800E4BEB600E4B2C60AB6012
:1099E8000498FFF771FE6846FFF7BAFE0022294681
:1099F8000948FFF7D1FD3046FFF7B2FE3046FAF7C7
:109A08004AFB3846FFF760FE06B0BDE8F08100BFAC
:109A1800AF980D000D9B0D0027970D002DE9F04F15
:109A28008BB007AD4FF0000B0646994614200C2367
:109A38000F4690469DF850A0C5F804B0C5F808B088
:109A48000793FAF724FB044638B180F800B080F891
:109A580001B0C0F804B0C0F808B000231020039487
:109A68000493FAF714FB28B1012343608360234B66
:109A78000360C4600490224B08930820FAF707FBA0
:109A8800044628B1039B40F8043B04A9FFF7CEFE27
:109A980000955FFA8AF34A46414638460994FFF72B
:109AA800CBFDB8B9039B5B7803F0FF0293B94FF67F
:109AB8009C7305A903A80592ADF81830FFF71AFFA3
:109AC8000598FFF701FE05A80999FFF7B6FE06A855
