:02000002D0002C
:1040000000400D0020F20D00000005000E0005012B
:0840100004013801000000006A
:1040180034C40D0009480A49884208B505D0094A40
:10402800824202D0121A08F02CF90748074A0021E8
:10403800121A08F031F9014808BD00BFE0D7032083
:10404800D0E80D0008E1032008E1032000E8032080
:1040580070B507F083F9074C074BE41AA40800254C
:104068001E46A54204D056F8253098470135F8E792
:1040780070BD00BFCCE80D0090E80D0000F0BCBB9F
:1040880008B500F0B1F8BDE8084007F035B905F00B
:1040980017BB05F015BB05F01BBB000010B58AB0B7
:1040A800202300240293074B009302AA21463C20B8
:1040B8002346039405F04CFA034A21460C2005F0E8
:1040C8003FFAFEE754C40D00F9900D000078B0FAED
:1040D80080F04009704701230370704710687047EB
:1040E800704710B50446243006F06CFA04F1140049
:1040F80006F068FA201D06F065FA204610BD08B5DE
:1041080003F052F9012008BD1FB501460B4806F01F
:10411800D0FA0A49684606F0DBFA6946084800F012
:1041280031FC684606F04EFA064B1B780BB101F0DD
:104138009DF9012005B05DF804FB00BF20E10320D4
:1041480044E103204CE203201FB501460B4806F06A
:10415800B0FA0A49684606F0BBFA6946084800F012
:1041680033FC684606F02EFA064B1B780BB101F0BB
:104178007DF9012005B05DF804FB00BFB0E1032024
:1041880044E103204CE203201FB501460B4806F02A
:1041980090FA0A49684606F09BFA6946084800F012
:1041A80036FC684606F00EFA064B1B780BB101F098
:1041B8005DF9012005B05DF804FB00BF10E10320A4
:1041C80044E103204CE2032007B50823ADF8003092
:1041D800044B019304226B4605F012FA03B05DF814
:1041E80004FB00BFE5400D00F8B5A24E04F090FFB7
:1041F800337807463BBBA04804F0FCFD9F4804F019
:10420800F9FD9F4804F0F6FD9E4804F0F3FD9E4832
:1042180004F0F0FD984804F01DFE00287DD0974872
:1042280004F018FE002878D0954804F013FE002802
:1042380073D0944804F00EFE00286ED0924804F023
:1042480009FE002869D0914D2B785BB13378002B9B
:104258006ED107E002218E4804F018FF2B78013B4D
:10426800DBB22B708B4B1B780BB101F09BF88A49A2
:104278000B68FA1A894B9A421C4602D90F6003F060
:1042880025F9874A1368FB1AA34202D9176003F07D
:104298008BF87A4804F0AEFD784804F0DBFD08B9E5
:1042A80001F0ECFB7F4B1C78002C40F0DA8172485F
:1042B80004F0A0FD704804F0CDFD08B9FF2100E02E
:1042C8002146102007F0D2F86C4804F093FD6B48A3
:1042D80004F0C0FD08B9FF2100E00021122007F01A
:1042E800C5F8674804F086FD654804F0B3FD08B9D1
:1042F800FF2100E00021112007F0B8F8614804F020
:1043080079FD604804F0A6FD08B9FF2100E000210E
:104318001320BDE8F84007F0A9B80124347001F073
:104328008DF8234609226049594804F09FFE8AE720
:104338005E4B1B78013B042B94D801A252F823F062
:104348005D430D005D420D0061430D0065430D00A6
:104358005D430D00032102E001217CE704214C4864
:1043680004F094FE2B78013BDBB2002804462B7046
:1043780040F33B813378002B3FF474AF01F05EF8D3
:104388004348494903688B422DD1013C082C3FF62C
:1043980069AFDFE804F005090D1115191D21250085
:1043A80001230622424958E101230422414954E1EC
:1043B80001230322404950E1012305223F494CE1F2
:1043C800012304223E4948E1012305223D4944E1F5
:1043D800012308223C4940E1012306223B493CE1F4
:1043E80001F04AFA3EE7324A93421BD1013C052CC0
:1043F8003FF638AFDFE804F0030B0E36111400F077
:10440800A3FF0F220021324804F021FA2AE701F025
:104418002DF827E701F0A4F924E700F0C3FF21E70E
:10442800012318E1234A934212D1013C032C3FF6A1
:1044380019AFDFE804F00205080B02F01BFE11E7D4
:1044480001F03CFB0EE701F063FB0BE7032302E1FD
:10445800194A93423ED1022C07D0032C08D0012CD4
:104468007FF400AF01F05EF8FCE601F0A3F9F9E68D
:104478002346DAE00CE10320E0E20320F8E203201F
:10448800D0E20320D8E20320C8E20320C0E10320E1
:104498000CE2032045E20320ECE10320C0D4010034
:1044A800C4E103204DE20320E0D7032008E2032003
:1044B80048C60D0018C50D00FCC40D0088C40D00C9
:1044C800E8C40D008CC60D00C8C50D0024C60D003B
:1044D800C8E10320634A93421AD1013C042C3FF6F9
:1044E800C1AEDFE804F003080D1013000121082015
:1044F80002F016FEB6E60121082002F017FEB1E62A
:1045080002F03AFFAEE602F017FEABE60423A2E0A3
:10451800554A934212D1013C032C3FF6A3AEDFE883
:1045280004F00205080B01F017FC9BE601F06CFE95
:1045380098E602F02FF895E605238CE04B4A934263
:1045480014D1013C042C3FF68DAEDFE804F00306DD
:10455800090C780001F060F884E600F0CDFE81E6F1
:1045680001F0C2F97EE601F097F97BE6404A9342F2
:104578001ED1013C072C3FF675AEDFE804F00407B6
:104588000A0D1013166500F09FFB6BE600F0D0FBD8
:1045980068E600F01BFE65E600F08EFC62E600F0BF
:1045A80027FD5FE600F096FD5CE600F025FE59E683
:1045B800304A93427FF456AE013C052C3FF652AE8A
:1045C800DFE804F003060A0D104802F0B3FB49E6E1
:1045D800012002F053FC45E602F0FEFB42E602F041
:1045E8006DFC3FE602F0A0FC3CE6441C7FF43AAECA
:1045F8003378002B3FF436AE1F48204903688B42BE
:104608003FF430AE1E4A934201D101230DE01D4A0A
:10461800934201D1022308E01B4A934201D10323AC
:1046280003E0104A934202D10423092216E00E4AFD
:10463800934201D10523F8E70C4A934201D106239E
:1046480009E00B4A934201D1072304E0094A934247
:104658007FF408AE082309490922074804F006FD3B
:1046680000E6F8BD88C40D00E8C40D008CC60D0036
:10467800C8C50D0024C60D000CE20320E0D70320B6
:1046880048C60D0018C50D00FCC40D0010B5254C1A
:104698009AB0684600F000FA2046009B40F8043BB8
:1046A80001A906F020F805A904F1140006F01BF88A
:1046B80009A904F1240006F016F800230DEB030104
:1046C800E218013391F8341082F83410322BF5D106
:1046D8006846FFF706FD134800F0BCF900B311491E
:1046E800684600F023FA69460F4805F0FCFF684663
:1046F80005F068FF0B49684600F031FA69460B4837
:1047080005F0F1FF684605F05DFF0649684600F0D0
:104718003FFA6946064805F0E6FF684605F052FF8D
:104728001AB010BD44E1032020E10320B0E10320CA
:1047380010E103200246014805F054B8C1970D0066
:1047480007B519491948FFF73FFD19491948FFF7F7
:104758003BFD19491948FFF737FD00230222184984
:10476800184804F04DFF002302221749174804F0A7
:1047780047FF17491748FFF7DDFF17491748FFF7A5
:10478800D9FF17491748FFF7D5FF17491748FFF70B
:10479800D1FF0023019300931A461549154804F0E8
:1047A80057FF03B05DF804FB20E10320DEC60D00CF
:1047B800B0E10320EAC60D0010E10320F6C60D00A3
:1047C800ACE1032002C70D0030E103200EC70D0045
:1047D80011410D0018C70D0051410D0024C70D00EF
:1047E80091410D0030C70D0007410D003CC70D0079
:1047F800695B0D0046C70D001FB506F0ABFC4FF412
:10480800165106F09BFC02F0F2FB00F001FE684630
:1048180004F00EFF69461B4805F065FF684605F081
:10482800D1FE194804F0ABFA0028FAD03C22022144
:10483800164803F011FF00F05FFF00F085FDFFF759
:104848007FFF02F0E3FB0121082006F0BBFD01F029
:10485800B7FE02F0CFF802F0A7FD02F037FE02F033
:10486800CBF90021082002F05BFC04F0D9FEFFF729
:104878000DFF0F220021054803F0E9FF05B05DF8A0
:1048880004FB00BFF8E1032034E10320C8E1032062
:1048980010B50446FFF7FFFB204610BDF8B52B4BBB
:1048A8002B4D2C4E2C4F4FF69C725A8000244FF6FD
:1048B800FF721C709A80022004F052FE21460120EB
:1048C80004F05EFE2146254C284603F06DFE224684
:1048D8002349284606F06AFE29462248224D04F05C
:1048E8006DFB3146384605F0B4FE38461F4F224668
:1048F800294606F05BFE384600F0CEF822461C49F1
:1049080038461C4F06F052FE1B4804F0A5F8314605
:10491800384605F09EFE3846184F2246294606F0CE
:1049280045FE3146384605F094FE3846144F224677
:10493800294606F03BFE3146384605F08AFE2246F7
:1049480029463846BDE8F84006F030BEF0E10320BD
:10495800C8E10320B0E50D00F8E1032008E10320D9
:10496800E9400D000CE20320CDA50D0044E1032031
:10497800EB400D0020E1032034E10320B0E10320E7
:1049880010E1032030B50D468FB0002304463222D3
:1049980001A928468DF8353005F035FF2946201D38
:1049A800012505F086FE256006F0AAFD322201A940
:1049B800104604F0C5FB06F0A3FD04222146284654
:1049C80004F0BEFB0FB030BD30B50D468FB00023EC
:1049D8000446322201A928468DF8353005F013FF28
:1049E800294604F11400012505F063FE256006F050
:1049F80087FD01A93222782004F0A2FB06F080FD91
:104A080004222146284604F09BFB0FB030BD30B588
:104A18000D468FB000230446322201A928468DF89E
:104A2800353005F0F0FE294604F12400012505F093
:104A380040FE256006F064FD01A93222BE2004F084
:104A48007FFB06F05DFD04222146284604F078FB32
:104A58000FB030BD0068003018BF0120704700005B
:104A680030B515468FB0044606F04AFD01A932223A
:104A7800284604F05DFB00238DF835309DF804309E
:104A8800FF2B14BF01A90349204605F0E2FD20468B
:104A98000FB030BDB0E50D00F0B50546002345F870
:104AA800043B044685B02049284604F1140705F064
:104AB800D0FD04F124061C49384605F0CAFD1A4900
:104AC800304605F0C6FD06F01BFD042221460120F4
:104AD80004F02EFB2368012B23D13222214668469D
:104AE800FFF7BEFF6946284605F0FDFD684605F05C
:104AF80069FD782221466846FFF7B2FF69463846C5
:104B080005F0F1FD684605F05DFDBE2221466846C8
:104B1800FFF7A6FF6946304605F0E5FD684605F053
:104B280051FD204605B0F0BDB0E50D0030B5CB68AD
:104B38000C4685B00546043453B932226846FFF75F
:104B48008FFF6946204605F0CEFD684605F03AFD20
:104B58002146284605F0BCFD284605B030BD30B5D5
:104B6800CB690C4685B00546143453B9782268469B
:104B7800FFF776FF6946204605F0B5FD684605F063
:104B880021FD2146284605F0A3FD284605B030BD85
:104B980030B5CB6A0C4685B00546243453B9BE22DD
:104BA8006846FFF75DFF6946204605F09CFD6846AC
:104BB80005F008FD2146284605F08AFD284605B07F
:104BC80030BD00002DE9F04F3A4B934601228FB0DB
:104BD8001A70394A049100241470059306AE2746CA
:104BE800364803F009FB05F02FFC351930556F7076
:104BF800052005F029FC033401301E2CA870EFD1E4
:104C080001F02EFF059B1B78002B49D0BDF91080C1
:104C1800002506AC63190FFA8BF65A78615D2748B0
:104C2800019601230293CDF80080254B033503F04C
:104C3800C7F91E2DEDD1214803F08CFEC82004F0E1
:104C48006FFD00252F4694F801A01D4B1B480DF160
:104C58001809524619F8051002970196CDF80080F8
:104C680003F0AEF9A37815489A445FFA8AFA84F8F3
:104C780001A003F0C4FA82450CDD104803F0BCFA29
:104C880005F0E2FB09F805006770052005F0DCFB7C
:104C98000130A07003351E2D04F10304D3D1B1E710
:104CA800044A1370074A1378013313700FB0BDE834
:104CB800F08F00BFF6E1032008E20320C8E10320DB
:104CC80058C70D00C0E1032008B500F0B7FB10225B
:104CD80011460248BDE80840FFF774BF58C70D00E9
:104CE800F7B500F0ABFB0024022601270F4803F0BC
:104CF80086FA844217DA0D4803F07EFA05460B4817
:104D080003F07DFA95FBF6F1234690FBF6F209B223
:104D180012B20648009702F03FFD0234034803F040
:104D280019FE24B2E2E703B0F0BD00BFC8E10320DA
:104D380010B5074C01232370064B00221A7001F0AE
:104D48008FFE237813B1FFF7CBFFFAE710BD00BF42
:104D5800F6E1032008E203202DE9F04F85B000F0CA
:104D68006DFB002402260127264803F045FA054674
:104D7800244803F044FAA842A8BF284600B290FB92
:104D8800F6F084423BDA1F4803F036FA82461D48A3
:104D980003F035FA81461B4803F02EFA834619487A
:104DA80003F02DFA0546174803F026FA8046154801
:104DB80003F025FA95FBF6F59BFBF6F3A4B290FBFE
:104DC800F6F0204400B20290254498FBF6F0204407
:104DD8001B1B00B299FBF6F22DB2121B01901BB2FD
:104DE80012B208489AFBF6F1039709B2009502F04F
:104DF800D7FF0534034803F0ADFD24B2B4E705B08E
:104E0800BDE8F08FC8E103202DE9F04F85B000F030
:104E180015FB284803F0F0F90446264803F0EFF99B
:104E2800A042A8BF2046012704B2022594FBF5F44E
:104E3800002C3BDD1F4803F0DFF982461D4803F0D4
:104E4800DEF981461B4803F0D7F98346194803F079
:104E5800D6F90646174803F0CFF98046154803F0FF
:104E6800CEF996FBF5F69BFBF5F3A4B290FBF5F0B3
:104E7800204400B20290264498FBF5F020441B1B06
:104E880000B299FBF5F236B2121B01901BB212B2B6
:104E980008489AFBF5F1039709B2009602F0ADFFB6
:104EA800053C044803F056FD24B2C1E705B0BDE84F
:104EB800F08F00BFC8E1032010B50A4C012323700E
:104EC800094B00221A7001F0CBFD237843B1FFF79C
:104ED80043FF4FF47A7004F023FCFFF795FFF4E7E3
:104EE80010BD00BFF6E1032008E203202DE9FF47CB
:104EF80000F0A4FA00254FF002080127194803F032
:104F08007EF990FBF8F000B20238854226DA15489F
:104F180003F072F98246134803F071F9AEB27400D7
:104F28001FFA84F904460F4803F069F9C9EB040431
:104F38000422C9EB0A0390FBF2F024B202B229461C
:104F480001921BB22A4607480297009402F05DFEC0
:104F5800B51C044803F0FEFC2DB2CFE704B0BDE851
:104F6800F08700BFC8E103202DE9F04F85B000F0BD
:104F780065FA002501264FF0020804271B4803F0B4
:104F88003EF990FBF8F000B2023885422ADA174859
:104F980003F032F98346154803F031F91FFA85F911
:104FA8004FEA49041FFA84FA0446104803F027F927
:104FB800CAEB0404CAEB0B0390FBF7F024B200B26F
:104FC8002A462946029601901BB20848009402F02E
:104FD800A0FE09F10205054886F0010603F0BAFCB7
:104FE8002DB2CBE705B0BDE8F08F00BFC8E10320C4
:104FF80010B5084C01232370074B00221A7001F0EA
:105008002FFD237823B1FFF771FFFFF7ADFFF8E716
:1050180010BD00BFF6E1032008E2032010B52A4CBA
:1050280000F00CFA2046022103F0DAF820460121AC
:1050380003F0DBF800220A21204603F0CEF82046D0
:1050480003F0FEFC2149204605F05DF92049204681
:1050580005F059F9204603F07DFC0F220021204677
:1050680003F0D0FB4FF4FA6004F05AFB204603F03B
:105078006DFC4FF47A7004F053FB0F220021204698
:1050880003F0E5FB4FF4FA6004F04AFB204603F016
:105098005DFC4FF47A7004F043FB072200212046A0
:1050A80003F0FAFB4FF4FA6004F03AFB20460722BB
:1050B800002103F01EFC4FF4FA6004F031FB204697
:1050C800BDE8104003F042BCC8E1032078C70D00DA
:1050D80058CD0D0010B5074C01232370064B002254
:1050E8001A7001F0BDFC237813B1FFF797FFFAE7B8
:1050F80010BD00BFF6E1032008E203202DE9F743C5
:1051080000F09CF9002601254FF00208154803F02D
:1051180076F890FBF8F000B286421FDA114803F0E7
:105128006BF881460F4803F06AF8B7B27C00A4B266
:10513800001B05F00102C4EB090304B231460192D9
:105148001BB232460748009402F0E5FA01350548DB
:10515800FE1C03F0FFFBEDB236B2D7E703B0BDE8A3
:10516800F08300BFC8E103202DE9F74300F066F99A
:1051780000254FF002080127134803F040F890FB80
:10518800F8F000B285421BDA0F4803F035F8814683
:105198000D4803F034F8AEB27400A4B2001BC4EB9F
:1051A800090304B22A4629461BB20748019700940E
:1051B80002F066FAB51C044803F0CCFB2DB2DBE71D
:1051C80003B0BDE8F08300BFC8E1032010B5084C68
:1051D80001232370074B00221A7001F041FC237849
:1051E80023B1FFF7C1FFFFF789FFF8E710BD00BF44
:1051F800F6E1032008E2032010B53C4C012323709C
:105208003B4B00221A7001F02BFC2378002B6BD04B
:1052180000F014F9FFF7A8FF364803F09BFB4FF4A2
:10522800FA6004F07DFA334803F00AFCFFF766FFE2
:10523800304803F08FFB4FF4FA6004F071FA2D4800
:1052480003F0FEFBFFF74CFD2A4803F083FB4FF405
:10525800FA6004F065FA274803F0F2FBFFF746FE10
:105268004FF4FA6004F05CFA224803F0E9FBFFF718
:105278007BFE4FF4FA6004F053FA1E4803F0E0FB9B
:10528800FFF76AFD4FF4FA6004F04AFA194803F090
:10529800D7FBFFF7B9FD4FF4FA6004F041FA15485F
:1052A80003F0CEFBFFF7BAFE4FF4FA6004F038FAC9
:1052B800104803F0C5FB01210E4803F09DFA4FF496
:1052C8007A7004F02DFA00210A4803F095FA4FF499
:1052D8007A7004F025FA074803F0B2FB054803F09A
:1052E80039FBFFF7F1FC90E710BD00BFF6E10320A2
:1052F80008E20320C8E103201FB5114C204603F043
:105308009FFB204603F026FB00221146204602F0B0
:1053180064FF8021402201238DE80E0000221146FF
:10532800084B204602F04CFE204603F013FB0F22E8
:105338000021204604B0BDE8104003F088BA00BF41
:10534800C8E1032053C90D0010B5134C204603F0E3
:1053580077FB2046012102F04BFF2046012102F095
:1053680044FF2046022102F03BFF12222046012181
:1053780002F033FF0949204604F0C5FF20462322E6
:10538800002102F02AFF2046054904F0BCFF204610
:10539800BDE8104003F0DEBAC8E1032053CD0D008C
:1053A8005ECD0D0070B5154D154C03F0B1FE2B7890
:1053B80063B9144E336003F0ABFE3268124B2060C1
:1053C80053F82230984701232B7070BD236842F2AE
:1053D8001072C31A93420FD920600A4C0A4B2268F4
:1053E80053F822309847094A2368126801339342D8
:1053F800236004BF0023236070BD00BF45E2032083
:1054080050E2032048E203200CD8032008D80320E8
:10541800054A00231370054A1370054A1370054A9C
:105428001370054A1370704744E203204CE20320CE
:1054380045E203204EE203204DE2032010B50A4C5A
:10544800204603F083FA204603F0FAFA204603F0D8
:1054580081FA00222046114602F0BFFE20460121B3
:10546800BDE8104002F0C4BEC8E10320F8B5284BDF
:10547800284901221A70284A886893689842074682
:10548800B8BF1F4600280E46154601DC002B3DDD3F
:10549800FFF7D4FF214B9A680A2A1C4603D9012139
:1054A8001F4802F09DFEA36823B11C4B1C481968D5
:1054B80004F029FF0A2F05DD0121194802F090FEAA
:1054C800142204E00221164802F08AFE0A22002172
:1054D800134802F082FE124804F009FFB36823B1B2
:1054E8000C4B0F48196804F00EFFAB6823B10A4B48
:1054F8000B48196804F007FF094803F02BFA0F223C
:1055080000210748BDE8F84003F0A1B9F8BD00BF85
:105518004CE2032020E10320B0E1032010E1032046
:10552800C8E103207FB5324CFFF788FF012510261C
:105538002B23019312222F4B029520460096072118
:1055480002F03EFD2946204602F04AFE3246204639
:10555800342102F042FE2849204604F0D4FE2046B9
:10556800022102F03DFE20461922302102F035FECC
:10557800224B0A221968204604F02AFF20492046B7
:1055880004F0C1FE2946204602F02AFE2A221146CE
:10559800204602F022FE1B49204604F0B4FE2046B5
:1055A800022102F01DFE20463222302102F015FEB3
:1055B800154B0A221968204604F00AFF13492046B1
:1055C80004F0A1FE14221B238DE80C006921104B66
:1055D80002951C22204602F0F3FC204603F0BAF99B
:1055E8002946204602F0FCFD0A4B1D7004B070BD30
:1055F800C8E103208CC70D0041C70D00ACE10320B2
:1056080069CD0D006BCD0D0030E1032074CD0D0088
:1056180002C90D0044E203201FB50C4CFFF70EFF32
:105628008021302201238DE80E002046084B1022ED
:10563800002102F0C5FC204603F08CF90F2200215E
:10564800204604B0BDE8104003F001B9C8E10320CA
:1056580027D60D0010B50C4606F0ABFE04EBC404CB
:105668004443022094FBF0F0C0F1400010BD00005C
:105678002DE9F74F012A1546064608BF4FF04009A5
:105688008A460CBF99FBF1F94FF01209FFF7D6FED5
:10569800E9B2184805EB450702F0A2FDBF00002457
:1056A800BFB2043EA0464FF00F0B3B199BB2D0454A
:1056B800019318DA56F8040F2946FFF7CBFF9BFB36
:1056C800F5F1414404EB0902014412B209B2094858
:1056D80002F083FD3168074804F015FE019B08F1CC
:1056E80001081C46E1E7034803B0BDE8F04F03F0AA
:1056F80031B900BFC8E103207FB5164CFFF79EFE05
:105708000126802530231022002101932046124BC8
:105718000296009502F054FC204603F01BF94FF462
:10572800FA6003F0FDFFFFF789FE00224023019392
:1057380011460A4B02962046009502F041FC20468D
:1057480003F008F94FF4FA6004B0BDE8704003F0C4
:10575800E7BF00BFC8E1032027D60D0053C90D00DD
:1057680008B5114B01221A70FFF768FE02210F4895
:1057780002F036FD0A2200210C4802F02EFD0B48EB
:1057880004F0B5FD0A4B9A681AB11968074804F085
:10579800BAFD064803F0DEF80F2200210348BDE8F1
:1057A800084003F054B800BF4CE20320C8E10320CE
:1057B80010E103201FB5FFF741FE01212548264CC3
:1057C80002F00EFD01221921224802F006FD2349AC
:1057D800204804F085FD0A2221681E4804F0F8FDDF
:1057E8001F491C4804F08FFD23685A1E132A4FF0E6
:1057F800010206D8202348208DE809000292194B9F
:1058080016E0A3F115011D2906D8202348218DE8AB
:105818000A000292144B0BE0333B272B02924FF005
:1058280020034FF048028DE80C0094BF0F4B104B3B
:10583800084817221C2102F0C3FB064803F08AF827
:105848000121044802F0CCFC0A4B01221A7004B072
:1058580010BD00BFC8E1032040E1032076CD0D0054
:1058680074CD0D0027D90D00E2C70D00EFD10D0052
:105878000FD30D004EE203201FB5064A07CA01AB3D
:1058880083E80700012203211846FFF7F1FE05B05F
:105898005DF804FB80C70D001FB5114C204603F0CE
:1058A800CFF8204603F056F800221146204602F0B1
:1058B80094FC8021402201238DE80E00002211462D
:1058C800084B204602F07CFB204603F043F80722F1
:1058D8000021204604B0BDE8104003F00AB800BF1C
:1058E800C8E10320EFCD0D001FB5114C204603F091
:1058F800A7F8204603F02EF800221146204602F0B1
:105908006CFC40213F2201238DE80E000022114645
:10591800084B204602F054FB204603F01BF80722F0
:105928000021204604B0BDE8104002F0B5BF00BF1A
:10593800C8E103202FD40D0010B50C4CFFF77EFDF5
:105948002046012102F04CFC23222046022102F0CD
:1059580044FC2046012102F04BFC2046044904F097
:10596800D2FC2046BDE8104002F0F4BFC8E1032095
:1059780081CD0D0070B5064606F01BFD134D04469B
:1059880004EBC404FFF75AFD2846012102F028FC65
:105998000834022194FBF1F1C1F14A011F22284683
:1059A80009B202F01AFC2846012102F021FC334614
:1059B8000121074A284604F00DFD284602F0CAFFD7
:1059C80028460021BDE8704002F012BCC8E103205F
:1059D80096CD0D001FB5134CFFF730FD2046012171
:1059E80002F0FEFB02222046052102F0F6FB0E49DA
:1059F800204604F088FC8021402201238DE80E0017
:105A080000221146094B204602F0DAFA204602F03D
:105A1800A1FF0F220021204604B0BDE8104002F08B
:105A280016BF00BFC8E10320A1CD0D0053C90D006A
:105A380038B50F4C0546FFF701FD2046022102F05C
:105A4800CFFB29460B4803F095FA2046012102F0C6
:105A5800C7FB20460222012102F0BFFB204606496F
:105A680004F051FC2046BDE8384002F073BF00BF87
:105A7800C8E103203CE20320B5CD0D0038B50B4C3E
:105A8800236825463BB103F043FB2368C01A084B43
:105A98001B68984209D903F03BFB2860002205499E
:105AA8000548BDE8384004F05BBB38BD54E203202C
:105AB80020D8032047DA0D0008E4032038B50D4C40
:105AC800236825463BB103F023FB2368C01A0A4B21
:105AD8001B6898420DD903F01BFB08492860084A47
:105AE800084804F03DFB08490848BDE8384003F081
:105AF80041BA38BD5CE2032020D8032065DA0D00E6
:105B08005EDA0D0008E403206FDA0D003CE20320A2
:105B180038B50D4C236825463BB103F0F9FA2368E4
:105B2800C01A0A4B1B6898420DD903F0F1FA0849CC
:105B380028600022074804F013FB07490748BDE81E
:105B4800384003F017BA38BD60E2032020D803209C
:105B58007BDA0D0008E4032088DA0D003CE203201C
:105B68000A4B994201D110200DE0094B994201D10D
:105B7800122008E0074B994201D1112003E0064B9F
:105B8800994202D1132001F026B8704796DA0D0029
:105B98009ADA0D009FDA0D00A5DA0D0038B5046811
:105BA80005467CB16368013B63605BB923682046A6
:105BB8009B689847A368013BA3601BB923682046EC
:105BC800DB689847284638BD30B591B004460D4685
:105BD80008A81A4904F03DFD0A22214604A804F049
:105BE8009BFD04A908A804F0F0FD154904F0F9FD8F
:105BF8000A22044629460CA804F08EFD0CA920466A
:105C080004F0E3FD0F4904F0ECFD0F4B02681B782C
:105C18000E498DF8003002A83C2303F003FF03A8C7
:105C2800FFF7BCFF0CA804F0CDFC04A804F0CAFCE4
:105C380008A804F0C7FC11B030BD00BFACDA0D00F5
:105C4800B5DA0D00C2DA0D0058E20320C4DA0D00FF
:105C580000B589B001460A2204A804F05DFD094B8D
:105C6800049A1B7808498DF8003002A83C2303F0F9
:105C7800D9FE03A8FFF792FF04A804F0A3FC09B01B
:105C88005DF804FB58E20320D0DA0D00014B012235
:105C98001A70704758E20320F7B5164C06B20FB2D7
:105CA80001252B463A4631462046009501F074FD01
:105CB8003A46314620460095022301F06DFD3A46EA
:105CC800314620460095032301F066FD3A463146E9
:105CD80020460095042301F05FFD2046009505232A
:105CE8003A46314601F058FD204603B0BDE8F04081
:105CF80002F030BEC8E1032010B5134CFFF79EFB3D
:105D08002046022102F06CFA12222046012102F0FC
:105D180064FA0E49204604F0F6FA0D49204604F0CC
:105D2800F2FA2046012102F05BFA0A49204604F003
:105D3800EAFA204602F00EFE4FF4FA6003F0F0FC97
:105D4800BDE81040FFF77ABBC8E10320DFDA0D0099
:105D5800E8DA0D00F1DA0D002DE9F041334E344850
:105D680001233370334B00221A7002F045FA0224E3
:105D780090FBF4F005B22E4802F041FA90FBF4F0E3
:105D880004B2FFF7B9FF21462846FFF785FF00F068
:105D980067FEB04698F80030002B45D0264803F03F
:105DA80029F8254803F056F808B9671E00E0274689
:105DB800224803F01FF8214803F04CF800B90137D6
:105DC8001F4803F017F81E4803F044F808B96E1E80
:105DD80000E02E461B4803F00DF81A4803F03AF885
:105DE80000B90136B54201D1BC4203D0394630462C
:105DF800FFF752FF144802F0FDFF134803F02AF89A
:105E080010B13C463546C5E7FFF718FB084802F0D5
:105E1800F3F9022490FBF4F005B2054802F0EFF91B
:105E280090FBF4F004B2B5E7BDE8F081F6E1032099
:105E3800C8E1032008E20320E8E20320F0E203209F
:105E480000E30320C0E20320C8E203200C4B1A68D9
:105E58000C4B1B689A4210DD0B4B0C491B680968F8
:105E68008B420ADD0A4909688A4206DA094A10683B
:105E78008342B4BF0020012070470120704700BF53
:105E880034D8032090E2032038D8032024D80320F4
:105E98002CD8032030D8032008B50A4B19680A4BC0
:105EA80018680139013004F0DAFA084B1860084B19
:105EB8001968084B18680139013004F0D0FA064B0C
:105EC800186008BD2CD8032090E2032094E2032038
:105ED80030D8032024D8032098E2032070B50C4B57
:105EE8000C4C1A680C4B0D4D19680D4B186804239F
:105EF800934208DAE65C8E4202D1EE5C864204D018
:105F08000133DBB2F4E7002070BD012070BD00BF93
:105F18003CD803207CE2032034D8032064E2032029
:105F280038D803202DE9F0433E4C87B0204602F0D4
:105F380063F900250826431E1BB22A460096294607
:105F48002046019501F0E7FB2046012102F048F9BF
:105F58002046012102F049F92A462946204602F046
:105F68003CF93149204604F0BBF9304B0A22196844
:105F78000DEB060004F0E3FB0299204604F0B0F9AB
:105F88000DEB060004F01EFB204602F035F9012750
:105F9800431E324629468DE8C0001BB2204601F058
:105FA8000FFB204602F02BF9013800B22B4632468F
:105FB800294600900197204601F002FB204602F096
:105FC8001BF98046204602F017F98146204602F068
:105FD80016F9013809F1FF3308F1FF3100B23246F2
:105FE8001BB209B200900197204601F0E9FA204659
:105FF80002F005F90646204602F0FEF880462046E3
:1060080002F0FDF8013808F1FF33721E00B200906B
:1060180001971BB212B22946204601F0D1FA07B007
:10602800BDE8F083C8E1032005DB0D0078E203201A
:10603800F8B51E4C1E4F1F4E204602F001FD0522EA
:106048001146204602F0C9F81B49204604F048F9D9
:10605800204602F07FFC194B00221A6020460123DB
:106068003B6002F0C9F8022590FBF5F000B2306001
:10607800204602F0C4F8124B90FBF5F000B218600D
:106088003B68104A3168013BD1540F4AD0540F4B3A
:1060980003224FF4FA601A6003F042FB204602F034
:1060A800CFFCBDE8F840FFF73DBF00BFC8E10320C3
:1060B8003CD8032034D803200DDB0D0078E2032000
:1060C80038D803207CE2032064E2032028D8032088
:1060D80008B50C4B1A680C4B1B689A420FD10B4B36
:1060E8001A680B4B1B689A4209D10A4A13680A338B
:1060F8001360FFF717FFFFF7CFFE012008BD002050
:1061080008BD00BF34D8032094E2032038D8032008
:1061180098E2032078E203202DE9F041314802F0AB
:106128008FFC314A3149B2F90020B1F900102D48ED
:10613800012302F0EFF9FFF7CBFF0646FFF786FED3
:1061480000284CD1FFF7CAFE002848D1DFF8B080FC
:10615800274F0024D8F80000254D2649844201DB4A
:10616800034607E03A5D095D1E48012302F0D2F9B3
:106178000134EFE7002B07DD013BCA18CC5C5470F3
:10618800EA18EC5C5470F5E71B4A1C4B36B11C4C02
:10619800461C266014680C541C682C541948006866
:1061A8000138032810D8DFE800F00205080C186849
:1061B800013804E01068013005E018680130186003
:1061C80002E010680138106012681B682B700A70B2
:1061D800FFF7A8FE0348BDE8F04102F0BBBBFFF79C
:1061E80027FFB3E7C8E1032098E2032094E20320E5
:1061F80064E203207CE2032034D8032038D803204B
:106208003CD8032028D80320F8B51E4C1E4D002684
:1062180001272E702770FFF711F900F021FC1B4BA6
:106228001B481E601B4B1C4E08221A6001F0E4FF3D
:106238001A4B01381860164801F0E1FF184B013875
:106248001860FFF729FE2378ABB12B78052B01D115
:10625800022309E0022B01D1032305E0032B01D11E
:10626800376002E0042B00D13360FFF755FF3C2074
:1062780003F056FAE7E7034A13700A4A1378013322
:106288001370F8BDF6E1032008E2032090E2032032
:10629800C8E1032024D8032028D803202CD80320C1
:1062A80030D80320C0E1032070B5094E094D002302
:1062B80032785C1CDBB29A4208D9E85C962100F07F
:1062C80005FD962003F02CFA2346F1E770BD00BFC8
:1062D800BEE203209EE2032008B50421002004F05A
:1062E800BEF8C0B238B1012807D0022807D0032869
:1062F80008BF082004E0012002E0022000E004209A
:10630800034A1378591C1170024AD05408BD00BFC3
:10631800BEE203209EE2032070B502F0F9FE40F6CB
:10632800B736054602F0F4FE401BB04210D800F024
:10633800BFF904460028F5D0962100F0C7FC00F00C
:10634800B7F90028FBD10A2003F0EAF9204670BD0E
:10635800002070BD2DE9F041104C114F002323702F
:10636800B846FFF7D9FF23785A1CF8542270002545
:106378002378EEB2B34209D9FFF7CEFF50B118F82F
:106388000630984205F10105F2D003E0642003F0DD
:10639800C7F9E6E70020BDE8F08100BFBEE20320B0
:1063A8009EE2032008B50021082000F0B9FE06206F
:1063B80000F066FC092000F063FC062000F060FC99
:1063C8000920BDE8084000F05BBC000070B5104B28
:1063D8001A781C46DAB90F4E327000F069F90228B3
:1063E800054604D0FFF7DEFF0123237070BD0123AB
:1063F800337000F045FC2846962100F067FC0D201C
:1064080000F03EFC00F054F90028FBD1EAE770BD2B
:106418009DE203209CE2032008B50021082000F03B
:1064280085FE032000F02CFC0C2000F029FC032042
:1064380000F026FC0C20BDE8084000F021BC08B59F
:10644800012000F01DFC642003F06AF900F030F927
:10645800D8B9042000F014FC642003F061F900F0BE
:1064680027F990B9022000F00BFC642003F058F9DA
:1064780000F01EF948B9082000F002FC642003F07F
:106488004FF900F015F90028DAD008BDF7B502F089
:106498003FFE284C284F03F0ECFF0023237023789D
:1064A8000C2B44D80A2B34BF01251225FEF7C6FF52
:1064B8000121224801F094FE052219211F4801F00C
:1064C8008CFE1F491D4803F01EFF01230E22009376
:1064D80000218023194801F095FE0421174801F096
:1064E8007FFEC5F137011922144801F076FE0A2211
:1064F8002178124803F040FF104802F02BFAFFF70A
:10650800EBFEFFF7D1FE00252378EEB2B34209D99E
:10651800FFF702FF60B1BB5D984205F10105F3D0BA
:10652800002005E04FF47A7003F0FAF8B7E701208D
:1065380003B0F0BDBEE203209EE20320C8E10320C1
:106548001ADB0D0010B5FFF77AFF0F2000F098FB5B
:106558004FF47A7003F0E4F8002000F091FBFA2081
:1065680003F0DEF80A4B1A781C463AB9FFF78EFF9B
:1065780010B1FFF717FF01E0FFF74EFF2378012B5B
:1065880005D1FFF7E7FEBDE81040FFF745BF10BD96
:106598009CE2032010B5084C01232370074B00220E
:1065A8001A70FFF713FF00F083FA237813B1FFF78F
:1065B800C9FFFAE710BD00BFF6E1032008E2032097
:1065C80010B50021314C0C2004F0FCFE00210D20F8
:1065D80004F0F8FE022220460C2102F0FCFB2046C3
:1065E8002B4C322102F004FC022220460E2102F03C
:1065F800F2FB2046274C322102F0FAFB0222204609
:106608000D2102F0E8FB2046234C322102F0F0FB7A
:10661800022220460F2102F0DEFB20461F4C3221C9
:1066280002F0E6FB02222046062102F0D4FB2046B7
:106638001B4C322102F0DCFB02222046052102F02D
:10664800CAFB2046174C322102F0D2FB0222204618
:10665800042102F0C0FB2046134C322102F0C8FB93
:1066680002222046032102F0B6FB204632210F4CBD
:1066780002F0BEFB02222046114602F0ACFB204687
:106688003221BDE8104002F0B3BB00BFE0E20320B6
:10669800F8E20320D0E20320D8E20320E8E2032056
:1066A800F0E2032000E30320C0E20320C8E2032055
:1066B80008B50C2004F0B0FE78B10D2004F0ACFE53
:1066C80068B10E2004F0A8FE58B10F2004F0A4FE13
:1066D80000280CBF0820002008BD012008BD0220AA
:1066E80008BD042008BD000008B50E4802F05DFB97
:1066F8000D4802F05AFB0D4802F057FB0C4802F017
:1067080054FB0C4802F051FB0B4802F04EFB0B48BF
:1067180002F04BFB0A4802F048FB0A48BDE8084073
:1067280002F043BBE0E20320F8E20320D0E20320BA
:10673800D8E20320E8E20320F0E2032000E303208C
:10674800C0E20320C8E2032010B5104B1B78DBB170
:1067580002F0D6FC0E4B1A68801A0E4A11684FF4E4
:106768007A724A4390421C4600DA10BD0A4B1B78E5
:106778001BB90A4A137801331370094B03221A70A4
:1067880002F0BEFC206010BD10BD00BF0CE103206C
:1067980008E3032040D80320F6E10320C0E10320EA
:1067A80008E2032010B5104B1B78DBB102F0A8FCFF
:1067B8000E4B1A68801A0E4A11684FF47A724A43CF
:1067C80090421C4600DA10BD0A4B1B781BB90A4AD6
:1067D800137801331370094B02221A7002F090FCEF
:1067E800206010BD10BD00BF0CE1032008E30320AA
:1067F80040D80320F6E10320C0E1032008E203208B
:1068080010B5104B1B78DBB102F07AFC0E4B1A68FE
:10681800801A0E4A11684FF47A724A4390421C4615
:1068280000DA10BD0A4B1B781BB90A4A13780133EA
:106838001370094B01221A7002F062FC206010BD2F
:1068480010BD00BF0CE1032008E3032040D803205B
:10685800F6E10320C0E1032008E2032010B5114B44
:106868001B78EBB102F04CFC0F4B1A68801A0F4AE8
:1068780011684FF47A724A4390421C4600DA10BD00
:106888000B4B1B781BB90B4A137801331370FEF7B7
:10689800BFFD094B04221A7002F032FC206010BDC3
:1068A80010BD00BF0CE1032008E3032040D80320FB
:1068B800F6E10320C0E1032008E2032010B5114BE4
:1068C8001B78EBB102F01CFC0F4B1A68801A0F4AB8
:1068D80011684FF47A724A4390421C4600DA10BDA0
:1068E8000B4B1B781BB90B4A137801331370FEF757
:1068F8008FFD094B05221A7002F002FC206010BDC2
:1069080010BD00BF0CE1032008E3032040D803209A
:10691800F6E10320C0E1032008E2032010B502F0ED
:10692800EFFB144B1B68C01A134B1A684FF47A73A9
:10693800534398421CDB0C2003F064FA0E2003F04A
:1069480061FA0D2003F05EFA0F2003F05BFA0B4B9F
:1069580000241C700A4B04221A700A4A1378013367
:106968001370FEF755FD2046BDE8104000F01CB935
:1069780010BD00BF08E3032040D80320F6E1032040
:1069880008E20320C0E1032037B502F0B9FB134B3E
:106998001B68C01A124B1A684FF47A735343984213
:1069A80019DB104B104A00251D70104B04241C7075
:1069B800137801331370FEF72BFD284600F0F4F826
:1069C800204603F01FFA00954FF0FF3302220849D2
:1069D800204603F0F1F903B030BD00BF08E30320FF
:1069E80040D80320F6E10320C0E1032008E2032099
:1069F80065680D0013B5002400944FF0FF330222A0
:106A08001249062003F0D8F900944FF0FF33022210
:106A18000F49052003F0D0F9022200944FF0FF330C
:106A28000C49104603F0C8F900944FF0FF330222D6
:106A38000949042003F0C0F900944FF0FF33022203
:106A48000649032003F0B8F902B010BD51670D00E4
:106A5800AD670D0009680D0065680D00C5680D007B
:106A680037B5124C0025214600954FF0FF3302221E
:106A78000C2003F0A1F9214600954FF0FF330222C4
:106A88000E2003F099F9214600954FF0FF330222BA
:106A98000D2003F091F900954FF0FF3302222146B3
:106AA8000F2003F089F903B030BD00BF25690D0040
:106AB80007B5042003F0A6F90023009302224FF043
:106AC800FF330349042003F077F903B05DF804FBB2
:106AD80091690D0008B502F01BFB014B186008BD59
:106AE8000CE30320F8B5084D0E46002487B2214672
:106AF800384604F0BBFC304602F012FE2B681C44FA
:106B0800FF2CF4DDF8BD00BF44D80320F8B5074DCD
:106B18000E46FF2487B22146384604F0A7FC3046CB
:106B280002F0FEFD2B68E41AF5D5F8BD44D8032021
:106B380038B50D4D05242146102004F097FC214658
:106B4800122004F093FC2146112004F08FFC21460A
:106B5800132004F08BFC0F2002F0E2FD2B681C448C
:106B6800FF2CE8DD38BD00BF44D8032038B50D4DF3
:106B7800FF242146102004F079FC2146122004F05D
:106B880075FC2146112004F071FC2146132004F005
:106B98006DFC0F2002F0C4FD2B68E41A002CE8DC21
:106BA80038BD00BF44D8032010B501280CBFFF240E
:106BB80000242146102004F059FC2146122004F03C
:106BC80055FC2146112004F051FC21461320BDE854
:106BD800104004F04BBC38B505460020FFF7E4FF31
:106BE80003240F212846FFF77DFF0F212846FFF7D2
:106BF8008DFF013CF5D138BD08B50321072004F00D
:106C0800E1FB0121102004F0DDFB0121122004F03A
:106C1800D9FB0121112004F0D5FB0121132004F038
:106C2800D1FBFFF785FFFFF7A1FFFFF781FFFFF714
:106C38009DFFFFF77DFF0020FFF7B6FF4FF4FA70C6
:106C480002F06EFDFF21102004F010FC4FF4967046
:106C580002F066FDFF21122004F008FC4FF4967044
:106C680002F05EFDFF21112004F000FC4FF4967045
:106C780002F056FDFF211320BDE8084004F0F6BBE2
:106C880010F0010110B518BFFF210446102004F0D0
:106C9800EDFB04F0020303F0FF0103B1FF21112013
:106CA80004F0E4FB04F0040303F0FF0103B1FF2147
:106CB800122004F0080404F0D9FB04F0FF0104B129
:106CC800FF211320BDE8104004F0D0BB38B50546BD
:106CD8000C46FFF7D5FF681E072813D8DFE800F039
:106CE8000407120A1212120D4FF48E6107E04FF4D6
:106CF8000E7104E040F2533101E040F27E2120465B
:106D080000F04EFA0020BDE83840FFF7B9BF000098
:106D180010B5074C2068012303FA00F0C0B2FFF752
:106D2800AFFF23680133032BC8BF0023236010BDC6
:106D380010E30320254A38B500251570244C254A50
:106D4800012323701370FFF7B3FE2846FFF72CFFCB
:106D58002378D3B3FEF726FBFF21122004F086FB2D
:106D6800642002F0DDFCFF21112004F07FFB642089
:106D780002F0D6FCFF21132004F078FB642002F017
:106D8800CFFCFF21102004F071FB642002F0C8FC46
:106D98000021122004F06AFB642002F0C1FC0021EB
:106DA800112004F063FB642002F0BAFC00211320D8
:106DB80004F05CFB642002F0B3FC0021102004F016
:106DC80055FB642002F0ACFCC2E738BD08E20320A2
:106DD800F6E103204DE20320254A38B50025157059
:106DE800244C254A012323701370FFF761FE2846BF
:106DF800FFF7DAFE2378D3B3FEF7D4FA0A2112207C
:106E0800FFF770FE052002F08BFC0A211120FFF726
:106E180069FE052002F084FC0A211320FFF762FEB8
:106E2800052002F07DFC0A211020FFF75BFE0520FB
:106E380002F076FC0A211220FFF768FE052002F016
:106E48006FFC0A211120FFF761FE052002F068FCA3
:106E58000A211320FFF75AFE052002F061FC0A21DF
:106E68001020FFF753FE052002F05AFCC2E738BD98
:106E780008E20320F6E103204DE203200C4A70B536
:106E8800002515700B4C0C4A01230646237013701D
:106E9800FFF70EFE2846FFF787FE23783BB10EB1B9
:106EA800FEF780FAFFF744FEFFF760FEF5E770BDD6
:106EB80008E20320F6E103204DE2032037B5164A25
:106EC800164C00251570164A01231370154A2370B5
:106ED800106851686B4603C3FFF7EAFD2846FFF7C1
:106EE80063FE2378ABB1FEF75DFA042003F0ACFA39
:106EF80002AB03EB4000FF2130F8085C284604F0A1
:106F0800B5FA962002F00CFC0021284604F0AEFAEF
:106F1800E7E703B030BD00BF08E20320F6E1032035
:106F28004DE2032028DB0D00254A38B500251570F1
:106F3800244C254A012323701370FFF7B9FD284616
:106F4800FFF732FE2378D3B3FEF72CFAFF21122085
:106F580004F08CFA962002F0E3FBFF21112004F0E4
:106F680085FA962002F0DCFBFF21132004F07EFA5C
:106F7800962002F0D5FBFF21102004F077FA962026
:106F880002F0CEFB0021102004F070FA962002F0E7
:106F9800C7FB0021132004F069FA962002F0C0FB19
:106FA8000021112004F062FA962002F0B9FB0021BA
:106FB800122004F05BFA962002F0B2FBC2E738BD5B
:106FC80008E20320F6E103204DE20320FFF7B2BEFA
:106FD800FFF702BFFEF7B0BC08B5FEF7FBFC0020C8
:106FE800BDE80840FFF74ABF0846FEF7C3BC10B526
:106FF80000231A461946184602F052FB00231A4687
:1070080019461846BDE8104002F032BB10B50E4CC8
:107018000E4A0F49204603F0E9F80E4A0E49204669
:1070280003F0E4F80D4A0E49204603F0DFF80D4A54
:107038000D49204603F0DAF820460C4A0C49BDE811
:10704800104003F0D3B800BF08E40320D56F0D004B
:1070580030DB0D00D96F0D003BDB0D00DD6F0D003F
:1070680065DA0D00E16F0D0052DA0D00F16F0D00C9
:107078004CDB0D0000221146104608B502F008FB53
:10708800024608B109480BE0014602F0F9FA024647
:1070980008B1074804E0014602F00AFB20B10548A0
:1070A800BDE80840FEF7C4BC08BD00BF62DB0D00A8
:1070B80069DB0D0074DB0D002DE9F8438846914625
:1070C8000C460125C6B24FF47A77D8F80030B5EBF4
:1070D800430F1FDCB9F1000F01D0FFF719FEA268BA
:1070E800616897FBF2F2304603F0D8FB54F8080FBA
:1070F80097FBF0F004F0FCFC07A3D3E9002304F0AD
:107108005DFD05F01DF802F00BFB304603F0DDFBDA
:107118000235DAE7BDE8F883CDCCCCCCCCCCF43F53
:107128000A460149FFF7C8BF7CDC0D000A46014941
:10713800FFF7C2BF80DB0D00F8B50720FFF7A0FD01
:107148000020FFF79DFD144E0224144F0025FFF781
:10715800DFFD326857F82510082003F09FFB3068E0
:1071680004F0C6FC0AA3D3E9002304F027FD04F0C9
:10717800BFFF02F0D5FA0135082003F0A6FB202D49
:10718800E5D1013CE1D12046BDE8F840FFF778BDE4
:10719800CDCCCCCCCCCCF43F48D80320FCDB0D00C4
:1071A80010B502460446082003F078FB204602F09A
:1071B800B7FA0820BDE8104003F087BB1FB5114C93
:1071C800204601F03DFC204601F0C4FB0022114698
:1071D800204601F002F88021302201238DE80E00BC
:1071E8002046094B1022002100F0EAFE204601F05B
:1071F800B1FB0F220021204604B0BDE8104001F089
:1072080026BB00BFC8E10320D8DC0D00F8B54F4D00
:107218002B685A1E012A1DD84D4E4E4933684E4FD1
:107228004E4A51F8234057F823301268002B04FBCC
:1072380002F40ADDFF21102004F018F93368224611
:1072480057F82310082003F029FB33680133336013
:107258000C2B4AE0032B01D0052B21D13F4B3C4E90
:107268001C6832683E493F4F630051F822405C4336
:1072780057F82230002B0EDDFF21122004F0F6F81B
:107288003368224657F82310082003F007FB364AD4
:107298001368013313603368013333603E2B24E0F5
:1072A80023F00203042B29D1294E30493368304F8B
:1072B8002A4A51F8234057F823301268002B04FB60
:1072C80002F40EDDFF21112004F0D0F833682246C5
:1072D80057F82310082003F0E1FA234A1368013312
:1072E80013603368013333603A2B07D92B68184A87
:1072F80001332B60002313601B4A1360204602F001
:107308000FFA082003F0E1FA0021102004F0AEF88B
:107318000021122004F0AAF80021112004F0A6F898
:10732800144B07EE904A93ED007AF8EEE77A67EE91
:10733800877AFCEEE77A17EE900A02F0F1F92B68EB
:10734800072B02BF014B01221A60F8BD34DB032072
:1073580014E3032070DB032038DB03206CDB0320FD
:1073680038DA03203CD9032018E303204CD8032043
:10737800A4DB032038D9032038B5084C0123237037
:10738800074B00251D70FFF719FF2846FFF70CFC77
:10739800237813B1FFF73AFFFAE738BDF6E1032087
:1073A80008E20320000000002DE9F843404C414D5D
:1073B8004148D4F80090D5F800802DED028B01F0FB
:1073C80097FB10EE100A04F0A5FB37A3D3E90023BE
:1073D80004F0F4FB0022394B04F03EFA0022384B4B
:1073E80004F0ECFB0022002306460F4604F06CFE76
:1073F8000022344B20B13046394604F02DFA03E020
:107408003046394604F026FA04F072FE04F070FBA8
:1074180000222B4B04F0FCFC04F06AFE2060264896
:1074280001F020FBF2EE047A20EE270AB0EE678A1C
:10743800B5EEC00AF1EE10FA10EE100A06DB04F001
:1074480069FB00221F4B04F007FA05E004F062FB19
:1074580000221C4B04F0FEF904F04AFE07EE900AE5
:10746800B8EEE77A2068C7EE087AFDEEE77A17EEFD
:10747800901AC5ED007AFEF7A7FB134B1B786BB18A
:107488000B4B1B68994503D10A4B1B68984505D0DF
:10749800BDEC028BBDE8F843FEF744B8BDEC028BA7
:1074A800BDE8F883AFF30080CDCCCCCCCCCCFC3F8E
:1074B800ACE1032030E1032034E103200000404028
:1074C800000024400000E03F44E2032038B5154C9A
:1074D8001820256803F0B3FF6423584340F6FF7370
:1074E80090FBF3F0002806DB04F002FB00220E4BB1
:1074F80004F0B2F905E004F0FBFA00220A4B04F0AC
:10750800A9F904F0F5FD2060FEF7A2FB074B1B78F4
:107518003BB1044B1B689D4203D0BDE83840FEF7E1
:1075280049B938BD40E103200000E03F4EE20320A6
:107538007047000010B5064B0360643304460361CE
:1075480003F06BFA204603F0C9FC204610BD00BFCB
:1075580064E70D0010B50446FCF79DFD204610BDFC
:1075680010B50446FFF7E6FF2046FCF794FD2046D9
:1075780010BD000038B50C4C0C4D204603F090FCB3
:107588002A460B49204604F011F801F0A9FD094CE0
:10759800094B1860204602F07DFC2A462046074920
:1075A800BDE8384004F002B838E3032008E10320BE
:1075B8003D750D001CE3032034E3032039750D00ED
:1075C8002DE9F04F85B01E46BDF93830BDF83CA016
:1075D80015469A1A002AB8BF52420092721A002A17
:1075E800B8BF524201920C46009A01998A428146DC
:1075F80005DD32461E46134622462C461546B44241
:1076080005DD2A461D4613462246344616465A1BB1
:10761800002AB8BF5242C4EB06089D42B4BF0123FA
:107628004FF0FF331FFA88F8029303920FFA88F796
:10763800022297FBF2F7B4421FDC019A009B9342A7
:10764800D9F80030C8BF2246D3F810B0C8BF2946C1
:107658005346DCBF2A4621464846D847039BFF1AB3
:10766800BBB21FB2002F05DA029A08EB03071544D4
:107678002DB23FB2013424B2DDE705B0BDE8F08F8A
:107688002DE9F347BDF82C600768BDF928A00096DE
:107698000446FF6991460D469846B8472368009608
:1076A8000AF1FF324A44DF6929464346204612B2AE
:1076B800B847236800969F694A465346294620469C
:1076C800B84723680A9608F1FF3129449D694A465C
:1076D800534609B22046AC4602B0BDE8F0476047C1
:1076E80037B5013B13440468BDF8185001951BB227
:1076F800009364690B46A04703B030BD37B5BDF8A9
:10770800185004688DE82400013B0B4464691BB2DF
:10771800A04703B030BD2DE9F347BDF92880BDF877
:107728002C90054617460C4601EB030A54450BDA24
:107738002B68CDF800909E69214643463A46284674
:107748000134B04724B2F1E702B0BDE8F08713B5C1
:10775800B0F90E200468019100920022B0F90C30B3
:10776800646A1146A04702B010BD704730B5018168
:107778000024084D42818181C2814FF6FF710122A8
:10778800446005604476048244820276C182818224
:10779800827630BDE0DF0D002DE9F04F8BB01FFA87
:1077A80082FB0393BDF80C60BDF85050C6F101038D
:1077B8001BB20293C6EBC6335B001BB20693036889
:1077C8000446174606EB0B02D3F8109012B22B466C
:1077D8008846C8472368C6EB0B024146D3F8109089
:1077E80012B22B462046C8471FFA88F3F1180193B6
:1077F80023683A46D3F8108009B22B462046C04782
:10780800019B991B23683A461E6909B22B462046FC
:10781800B04700230593019B01330793019B013B6C
:1078280008930BF101030993BDF91430039A9342AD
:1078380080F28480029B002B0BDB531E1BB2039348
:10784800069B02339BB21AB20692029A13441BB2E9
:107858000293BDF81470029B03EB470303331BB27A
:107868000293079B07EB030ABDF80C3004930BEB5C
:10787800030923680FFA8AFA0FFA89F9D3F81080F6
:107888004A4651462B462046C047089BC7EB03088B
:1078980023681B690FFA88F81E464A4641462B465C
:1078A8002046B047049BC3EB0B0923681B690FFAFA
:1078B80089F91E464A4651462B462046B04723685A
:1078C8004A46D3F810A041462B462046D047019B94
:1078D800049A03EB0208099B07EB030923680FFAD4
:1078E80088F80FFA89F9D3F810A04A4641462B4682
:1078F8002046D047019B049A9E1A236836B24A460E
:10790800D3F810A031462B462046D0470BF1FF3361
:10791800DF1B23683FB24146D3F810903A462B4606
:107928002046C84723683A46D3F8108031462B468C
:107938002046C047059B0133059375E70BB0BDE8AA
:10794800F08F2DE9F04F87B01D469DF84030039326
:10795800ABB20292C3F10102C3EBC3335B001BB2AB
:10796800049300230193039BBDF8447003F00403C0
:1079780012B2DBB20446009205931FFA81F8BDF9F2
:107988000430AB4280F29D80009B002B0ADB049BF5
:1079980002339BB21AB20492009A1344013D1BB2FF
:1079A8002DB20093009BBDF8046003EB460303333C
:1079B8001BB20093059BEBB1BDF8089023681FFA32
:1079C80085FA08F1010109EB0A023144D3F810B035
:1079D80012B23B4609B22046D847236809F1010292
:1079E800324408EB0A01D3F810B012B23B4609B290
:1079F8002046D847039B99071DD5BDF808902368F2
:107A08001FFA85FA08F10101CAEB09023144D3F8DB
:107A180010B012B23B4609B22046D847236809F194
:107A2800FF32921B08EB0A01D3F810B012B23B46A2
:107A380009B22046D847039B1A071DD5BDF8089000
:107A480023681FFA85FA09F101003218CAEB080108
:107A5800D3F810B012B23B4609B22046D847236883
:107A680008F1FF310AEB0902891BD3F810B012B2F2
:107A78003B4609B22046D847039BDB0703D4019B4A
:107A8800013301937BE7BDF8089023681FFA85FA54
:107A980009F1FF30821BCAEB0801D3F810B0204669
:107AA8003B4612B209B2D847236808F1FF31CAEB46
:107AB8000902891B12B21E6909B23B462046B0472B
:107AC800DDE707B0BDE8F08F2DE9F04F8DB01E4619
:107AD8009DF858300993BDF95C300A93BDF86030C1
:107AE8000493B3B2C3F10108C3EBC3335B001BB209
:107AF800069300230393099B089203F001030446AD
:107B08000FFA88F80B931FFA81FBBDF90C30B342CA
:107B180078DAB8F1000F09DB069B02339BB2013E0D
:107B28001AB2984436B206920FFA88F8BDF80CA03B
:107B38004FEA4A039BB20593033398440B9B0FFA11
:107B480088F853B3BDF8283025680498BDF820702C
:107B580000901FFA86F9A86907930BF10101013318
:107B680003EB4903C9EB0702514405461BB212B2A5
:107B780009B22046A847079B059A2068049D0095EE
:107B8800033313447A1ECAEB02020BEB0901856921
:107B98001BB212B209B22046A847099B9B0703D41F
:107BA800039B01330393B0E7BDF82050BDF828903C
:107BB80004980795B7B2EA1B25680090A86909F1EF
:107BC80001030BF1FF3103EB4703CAEB0101054643
:107BD8001BB2204612B209B2A847059A2068049D34
:107BE800009509F103031A441346079A8569013A77
:107BF800CAEB0202C7EB0B011BB212B209B2204654
:107C0800A847CDE70DB0BDE8F08F2DE9F04F89B05A
:107C18009BB2BDF94C9007911FFA89FABDF81C1068
:107C280004934FEA4A0303919BB25144059309B266
:107C38000291049B0599BDF85060BDF948805F1A10
:107C4800036800963FB29346DD6902993B461FFAE6
:107C580088F80446A8471FFA8BF508F1FF332B4430
:107C68009BB2069323680096D3F81CB0BDF9182080
:107C780002993B462046D847059B00965544C3EBDE
:107C88000808236807999F692DB20FFA88F84346B8
:107C98002A462046B847039B049A00969F18BFB20D
:107CA8002368791ED3F818B02A464346204609B2FD
:107CB800D847012300932A464B460299019620464D
:107CC800FFF73FFE6FEA0A031F443FB20223009307
:107CD8002A464B46394620460196FFF732FE069B58
:107CE8000196CAEB030A0FFA8AFA04230093524654
:107CF8004B4639462046FFF724FE08230299129383
:107D080052464B462046139609B0BDE8F04FFFF7A0
:107D180018BE2DE9F04F89B089B2BDF94CA0BDF964
:107D2800484007941FFA8AF84FEA4804BDF850B053
:107D380005919DB201EB0807A3B20168079C069361
:107D48003FB2CDF804B00094EB1A4C6A1BB2394626
:107D580081461646A047079BCDF808B05C1E069BD7
:107D6800E41A059B691E4644194436B224B2C8EB8E
:107D7800010101230093324653464846019409B253
:107D8800FFF7A2FE0223129332465346394648466D
:107D9800CDF850B0139409B0BDE8F04FFFF794BE8A
:107DA8002DE9F04F85B00768BDF84450BDF938900B
:107DB80001950446CDF8009003927F69BDF93C60B7
:107DC800BDF940808A469B46B84723680195CDF89F
:107DD80000805F694A46334659462046B8472368BB
:107DE800039A0E920F955D694246534631462046E6
:107DF800AC4605B0BDE8F04F60472DE9F04F8DB0B7
:107E08001546BDF95860BDF960200C46B542BDF86D
:107E1800641005918146BDF95C0006DD95420EDDD2
:107E2800A846214635461C4604E0964240F3C280E7
:107E3800B0461946AA420BDB164603460CE09046AC
:107E480032462E4615461A4601462346144603E096
:107E58002E4623461546044645451DD19C4205DC61
:107E6800A342B8BF23461A46234614B28B4204DC09
:107E78008C42B8BF0C4624B21946D9F800200598A0
:107E880016900134631AD4691BB22A464846A446A0
:107E98000DB0BDE8F04F60471FFA83FBA3B2029311
:107EA800C3EB0B039BB2A8B20993B3B21A1A12B26E
:107EB8000A92029A89B28A1A92B2464504921FFA25
:107EC80088F2A2EB0000CBEB0101A2EB030218BF82
:107ED80003F1FF3300B289B212B218BF1BB24FF0E0
:107EE800000A079008910B9214BF069306962F4636
:107EF800CDF80CA0069B9F4229DC039B0A9A93FBB2
:107F0800F2F1029B029A03981944079B9AFBF3F338
:107F18001344099A024412B209B21BB20392049A9A
:107F28000598009099429244C2BF0A4619461346E2
:107F3800D9F800200133D2695B1A14461BB23A46BD
:107F4800484601370FFA8AFAA0473FB2D2E7BDF890
:107F58002030BE1B16FB03F6BDF810307D1B15FB49
:107F680003F536B22DB2474527DC029A0B9B96FBE8
:107F7800F3F1079B95FBF3F31344089A05980090D7
:107F8800594409B21BB21644049A99421544C2BF17
:107F98000A46194613460133D9F800205B1AD2F86D
:107FA8001CA01BB23A464846013736B22DB2D0471C
:107FB8003FB2D8E7904601464EE70DB0BDE8F08FD6
:107FC8002DE9F04F87B09A46BDF9443002938DE809
:107FD8000300BDF84830BDF940800393002408230E
:107FE80025460593914608F1070292FBF3FB029A96
:107FF8002BB29A4225DD09EB05031BB20026049338
:1080080033B243451ADA059A93FBF2F30AEB0402FA
:10801800B1B2D25C802001F0070340FA03F31A42A0
:108028000AD0019B049A00981944009B1B681B699D
:1080380009B21F46039BB8470136E1E701355C44A6
:10804800D5E707B0BDE8F08F2DE9F04F8FB00546B2
:108058000691BDF860100791BDF864100891B0F959
:108068000C1006989DF8688081427CDDB5F90E10E9
:10807800914278DD062111FB0800002873DD02EB30
:10808800C80000286FDD03EB830396B20C9306F15A
:1080980008039BB2099100240D93052C1CBF334B98
:1080A8000C9A059616BF1B194FF0000913F8029099
:1080B80004961FFA88F30393039ABDF8183004FB5B
:1080C800023213FA84F312B21BB20A9237460FFA3D
:1080D80088FA0B9319F0010F11D0B8F1010F2B6832
:1080E80003D1D3F810B0079B14E0079A0192CDF89A
:1080F80000A0D3F824B0BDF91020534618E0079B20
:10810800089A934217D0B8F1010F2B6807D1D3F81A
:1081180010B013463AB20B992846D8470BE0089A94
:108128000192CDF800A0BDF91420D3F824B053462D
:108138000A992846D847049B039A13449BB2049390
:10814800059B13449BB2013705930D9BBFB29F4219
:108158004FEA5909BED1099B013B013413F0FF03D3
:1081680064B2099399D10FB0BDE8F08F10E00D000B
:1081780030B50A2985B004460B4604D1027E438AED
:1081880003EBC20323E00D2924D0057EB0F91220A9
:10819800B0F910100295C58A0195858A0095FFF7F8
:1081A80053FF227E238A91B201EB410003EB400387
:1081B800A07E1BB2238268B1B4F90C006FF00505EC
:1081C80005FB0202934205DD638A03EBC103638268
:1081D80000232382012005B030BD0182428270470E
:1081E800002908BF012101767047C182818270474A
:1081F80081767047407E7047B0F90C007047B0F93F
:108208000E007047F0B5447EBDF81450022C08D01B
:10821800032C0FD0012C70D10489013CA21A12B290
:108228000CE04489013CA21A0489E41A611A12B2CA
:1082380009B262E04489E41A611A09B2002A5BDBD8
:10824800B0F90840944240F390800029BEBF5B1803
:108258001BB20021B0F90A00CC188442C4BF431AEB
:108268001BB2002B40F38180C9B2C8083F4F02EB14
:10827800C01211F00701DBB207EB020417D0C1F1FD
:108288000801C8B23A4983420E5C3FBFC3EB000EF7
:10829800FF2141FA0EF10E40B95C012D0CBF3143AC
:1082A800B1438342B95460D3181AC3B28034072B40
:1082B80017D9012D0CBFFF20002004F180011A46B8
:1082C800083AD2B2072A01F8800C01F18001F7D8E8
:1082D800A3F10802C2F3C402013204EBC21403F092
:1082E8000703002B41D0234AD25C2378012D0CBF11
:1082F800134393432370F0BDF0BD002A35DBB0F97A
:108308000A40944231DD0029BCBFC9180BB2B0F94C
:108318000870B8BF0021CE18BE42C4BF631A1BB292
:10832800002B22DDD01001EBC011104802F007022B
:108338000144012000FA02F28542D2B209D1013B80
:108348001BB25C1C11D011F8010B104301F8010C91
:10835800F5E7D243D2B2013B1BB2581C05D011F845
:10836800010B104001F8010CF5E7F0BDA0DC03207B
:1083780098DC032090DC0320F0B5447EBDF814504F
:10838800022C08D0032C0FD0012C12D10489E41A36
:10839800A21A12B26DE00489013C611A4489E41AF8
:1083A800A21A09B212B204E04489013C611A09B266
:1083B8005FE000295CDBB0F908408C4240F3918013
:1083C800002ABCBFD21813B2B0F90A00B8BF002205
:1083D800D4188442C4BF831A1BB2002B40F3818097
:1083E800D4B2404EDAB2E30801EBC31114F007042B
:1083F80006EB010317D0C4F10804E0B23A4C8242FC
:10840800275C3FBFC2EB000EFF2444FA0EF427405E
:10841800745C012D0CBF3C43BC438242745460D34E
:10842800101AC2B28033072A17D9012D0CBFFF24B6
:10843800002403F1800011460839C9B2072900F861
:10844800804C00F18000F7D8A2F10801C1F3C40103
:10845800013103EBC11302F00702002A41D023497E
:10846800895C1A78012D0CBF0A438A431A70F0BD43
:10847800F0BD002935DBB0F90A408C4231DD002A15
:10848800BCBFD21813B2B0F90870B8BF0022D61812
:10849800BE42C4BFA31A1BB2002B22DDC81002EBD8
:1084A800C012104801F007011044012202FA01F13C
:1084B8009542C9B209D15A1E13B25C1C11D010F8EA
:1084C800012B0A4300F8012CF5E7C943C9B25A1E2B
:1084D80013B25A1C05D010F8012B0A4000F8012CE1
:1084E800F5E7F0BDA0DC032098DC032090DC032036
:1084F80010B42AB1194606485DF8044B02F052B888
:108508000122C9B2C0B25DF8044B02F0D5BF00BF6A
:1085180040E70320F8B50D1E064614461F463FDB0C
:10852800FFF76AFE85423BDA002C39DB3046FFF75D
:1085380066FE844234DA3046FFF75CFE022827D113
:108548003189708901390138491B001B0DB204B209
:1085580006E0012804D13389013B1B1B2C461DB2C0
:108568000820012F94FBF0F000B20E4B04F0070234
:1085780005EBC01104D197405A5C17435F54F8BD0E
:10858800585C012707FA02F220EA02025A54F8BDA1
:108598000328DED17389013B5B1B25461CB2DFE74C
:1085A800F8BD00BFA0DC032038B5402204460D46C4
:1085B8008021FFF7DBF8064B2360FF23637784F8FD
:1085C8002130E377A37784F82050204638BD00BFD8
:1085D80014E50D0038B590F91D30013304460D46F9
:1085E80022D090F92100012180B202F0FCFE94F91A
:1085F8001F00002180B202F0F6FE94F9210000214C
:1086080080B202F0F0FE94F91E1094F91D0094F85F
:1086180022202B46FFF76CFF94F92100012180B23C
:10862800BDE8384002F0DFBE02F07EFF94F91B106F
:1086380001F0B2FB02F078FF036800219B689847BD
:1086480002F072FF036829469B68984702F06CFFA6
:10865800BDE8384001F0A7BB38B504460D46217780
:1086680090F91D30C276013333D090F91F000121F3
:1086780080B202F0A7FE94F92100012180B202F035
:10868800A1FE94F822305BB994F91D00012180B253
:1086980002F098FE94F91E00012180B202F092FEC9
:1086A80094F82230CBB194F92100012180B202F074
:1086B8009AFE01214F4801F014FF10214D4801F0A6
:1086C8005DFF00214B4801F00FFF4A4801F004FF0D
:1086D80003E002F029FF01F047FB94F92000012193
:1086E80080B202F06FFE94F92000012180B202F0FE
:1086F8007AFE012001F014F894F92000002180B2DC
:1087080002F071FE0A2001F00BF894F92000012113
:1087180080B202F068FE2046AE21FFF75BFF2046DC
:10872800D521FFF757FF20468021FFF753FF20464A
:10873800A821FFF74FFF20463F21FFF74BFF2046B8
:10874800D321FFF747FF20460021FFF743FF2046CC
:108758004021FFF73FFF8D212046FFF73BFF012D0A
:108768000CBF102114212046FFF734FF204620219A
:10877800FFF730FF20460021FFF72CFF2046A121FC
:10878800FFF728FF2046C821FFF724FF2046DA21FB
:10879800FFF720FF20461221FFF71CFF812120460A
:1087A800FFF718FF012D0CBF9F21CF212046FFF7AF
:1087B80011FFD9212046FFF70DFF012D0CBF222103
:1087C800F1212046FFF706FF2046DB21FFF702FFD5
:1087D80020464021FFF7FEFE2046A421FFF7FAFEBF
:1087E8002046A621FFF7F6FE2046AF21BDE8384017
:1087F800FFF7F0BE40E7032009B1A72100E0A6215A
:10880800FFF7E8BE70B504460E4626211546FFF769
:10881800E1FE20460021FFF7DDFE31462046FFF746
:10882800D9FE20460021FFF7D5FE29462046FFF74E
:10883800D1FE20460021FFF7CDFE2046FF21FFF79D
:10884800C9FE20462F21BDE87040FFF7C3BE70B5B2
:1088580004460E4627211546FFF7BCFE2046002198
:10886800FFF7B8FE31462046FFF7B4FE2046002148
:10887800FFF7B0FE29462046FFF7ACFE2046002150
:10888800FFF7A8FE2046FF21FFF7A4FE20462F2170
:10889800BDE87040FFF79EBE70B504460E46A321A2
:1088A8001546FFF797FE20460021FFF793FE204666
:1088B8004021FFF78FFE20462921FFF78BFE204637
:1088C8000021FFF787FE31462046FFF783FE20464A
:1088D8000021FFF77FFE29462046FFF77BFE204652
:1088E8000121FFF777FE20462F21BDE87040FFF7F2
:1088F80071BE70B504460E46A3211546FFF76AFE01
:1089080020460021FFF766FE20464021FFF762FE61
:1089180020462A21FFF75EFE20460021FFF75AFE77
:1089280031462046FFF756FE20460021FFF752FE4B
:1089380029462046FFF74EFE20460121FFF74AFE52
:1089480020462F21BDE87040FFF744BE2E21FFF7D7
:1089580041BE00002DE9F04121210446FFF73AFE0F
:1089680000212046FFF736FE7F212046FFF732FE22
:1089780022212046FFF72EFE00212046FFF72AFE7F
:1089880007212046FFF726FE94F91D30DFF8AC805A
:1089980001332ED094F92100012180B202F023FD89
:1089A80094F91F00012180B202F01DFD94F9210005
:1089B800002180B202F017FD012000F099FB00258C
:1089C80018F8053094F8222094F91E1094F91D0027
:1089D8000135FFF78DFDB5F5806FF1D1012000F06D
:1089E80087FB94F92100012180B2BDE8F04102F033
:1089F800FABC002502F098FD94F91B1001F0CCF99F
:108A080002F092FD036840219B689847002602F017
:108A18008BFDAF190368BFB29B6818F807100136C1
:108A28009847102EF3D1103502F07EFDADB201F05B
:108A3800BAF9B5F5806FDDD1BDE8F081A0DC03207F
:108A48004FF480620021014803F026BCA0DC03201B
:108A58000368C9B29B68184740220272002242602C
:108A68000260704710B5044602F05EFD94F90810E4
:108A780001F092F902F058FD0368F5219B689847C8
:108A880002F052FD002101F08AF9192000F048FE99
:108A980002F04AFD94F90810032201F074F902F07B
:108AA80043FD03685B69984784B202F03DFD0368A3
:108AB8005B69984740EA042004B202F035FD036878
:108AC8005B699847A3B207EE903A9FED067AF8EEF5
:108AD800677AB9EE080A67EE877A9FED037AA7EE00
:108AE800870A10BD0000FA4200008037000000002D
:108AF80010B5044602F018FD94F9081001F04CF97D
:108B080002F012FD0368F3219B68984702F00CFD00
:108B1800002101F044F9192000F002FE02F004FDE2
:108B2800032294F9081001F02EF902F0FDFC036805
:108B38005B69984784B202F0F7FC03685B69984761
:108B480040EA042004B202F0EFFC03685B6998472E
:108B5800A0B207EE900AF8EE677A17EE900A02F0D4
:108B6800D9FF10A3D3E9002303F028F803F008FB8A
:108B7800DFED0B7A07EE100A67EE277A17EE900AF8
:108B880002F0C8FF04A3D3E9002302F063FE03F058
:108B9800F7FA00EE100A10BDCDCCCCCCCC6C474017
:108BA80000008037D7A3703D0AF7654010B504462A
:108BB80002F0BAFC94F9081001F0EEF802F0B4FCE7
:108BC8000368FE219B68984702F0AEFC01F0EBF8C1
:108BD8003220BDE8104000F0A3BD10B5044602F0F5
:108BE800A3FC94F9081001F0D7F802F09DFC0021CD
:108BF800FFF72EFF02F098FC0F21FFF729FF02F084
:108C080093FC01F0D0F802F08FFC082294F90810C8
:108C180001F0B9F802F088FC03685B6998472060A6
:108C280002F082FC03685B69984723681B02236093
:108C380002F07AFC03685B69984723681843206050
:108C480002F072FC03685B69984723681B02236083
:108C580002F06AFC03685B69984723681843206040
:108C680002F062FC03685B69984723681B02236073
:108C780002F05AFC03685B69984723681843206030
:108C880002F052FC03685B69984702F04DFC94F9C6
:108C9800081001F081F802F047FC0021FFF7D8FE28
:108CA80002F042FCC921FFF7D3FE02F03DFC01F0BF
:108CB8007AF802F039FC94F90810082201F063F8F8
:108CC80002F032FC03685B699847606002F02CFC94
:108CD80003685B69984763681B02636002F024FCC1
:108CE80003685B69984763681843606002F01CFC7E
:108CF80003685B69984763681B02636002F014FCB1
:108D080003685B69984763681843606002F00CFC6D
:108D180003685B69984763681B02636002F004FCA0
:108D280003685B69984763681843606002F0FCFB5E
:108D38000368BDE810405B69184738B504460D461E
:108D480002F0F2FB94F9081001F026F802F0ECFBAF
:108D5800036829469B68984702F0E6FB002101F06A
:108D68001EF802F0E1FB012294F9081001F00BF85B
:108D780002F0DAFB03685B699847C0B238BD10B5EA
:108D8800044602F0D1FB00F0EFFF2046FFF70EFF8C
:108D9800E7212046FFF7D1FF3A2804D12046FFF704
:108DA8001CFF012010BD002010BD00220A21026016
:108DB80081808271C2717047002310B50446C17169
:108DC800837188B202F028FB08B10323A37100F075
:108DD8009FF9206010BD38B50C4605461146A0B273
:108DE80002F0F0FA21462846BDE83840FFF7E4BF14
:108DF8008180704738B50446C07902F00DFBA3792D
:108E0800051C23F0080218BF0125C3F340039D4247
:108E1800A27106D000F07CF9A379206083F00203E8
:108E280013E000F075F92368C01AA38898420DD39F
:108E3800A37903F001039D4208D000F069F9A379F2
:108E4800206083F0010343F00803A371A079C0F305
:108E5800C00038BD807900F0010070470C234360E2
:108E680070470C2280E80600704710B50446006879
:108E7800FFF76CFD2068FFF7E3FD0022114620682C
:108E8800FFF7ABF920680121FFF7B2F9206801214B
:108E9800FFF7ABF920680121BDE81040FFF7A0B942
:108EA80010B504460068FFF751FD2068FFF7C8FDBC
:108EB80020680121BDE81040FFF797B9704737B522
:108EC800044643680068022293FBF2F2C2F10B02E7
:108ED80012B20D460021FFF780F920680121FFF743
:108EE80084F92946206801F00EFA206801220368F7
:108EF8000092DD690E2280230021A847206803B074
:108F0800BDE83040FFF726BD38B5C1EBC1011546B5
:108F18004368022293FBF2F3C3F1200303EB4102FF
:108F2800044612B205210068FFF757F920680121AD
:108F3800FFF75BF92946206801F0E5F92068BDE8EC
:108F48003840FFF707BD37B50446C1EBC1010068DB
:108F58004A0001250D2103688DE8220016321D6A9A
:108F680012B25F230021A847206803B0BDE8304053
:108F7800FFF7F0BC70B5054608460E4603F019FA2F
:108F880004462868FFF75CFD04EBC4046A68286897
:108F9800022192FBF1F294FBF1F1C2F12502C1F139
:108FA8004A0112B209B2FFF718F93146286801F0F0
:108FB800AAF92868BDE87040FFF7CCBCF7B500F106
:108FC800300504460F462846FFF748FF39466846ED
:108FD800FFF747FF9DE80300002385E8030063606F
:108FE800A36020460123E36003B0F0BD2DE9F04102
:108FF800C2684368911C8B42044601DD023B01E0D4
:10900800934200DAE36004F130063046FFF748FF88
:10901800236804F110081968404603F0A7F941468F
:109028003046FFF74CFFA368E5685D1B012DD4BFF0
:10903800013503250027BD42E3680DDD3B44226866
:10904800404652F8231003F091F93946424630461B
:10905800FFF75AFF0137EEE761683046C91AFFF794
:1090680072FF3046BDE8F041FFF728BFF8B5044667
:109078000F4615461E463030FFF7F7FE276066603C
:10908800A5602046BDE8F840FFF7B0BF08B5022943
:10909800436801D1013302E0012901D1013B43605A
:1090A800426883689A42C4BF012242604268002A2B
:1090B800D8BF4360032901D1406808BD042903D003
:1090C800FFF794FF002008BD4FF0FF3008BD0000F7
:1090D80008B5024B1B681B6B019308BD48020300CF
:1090E80008B5024B1B685B68019308BD18020300B2
:1090F80008B5024B1B68DB68019308BD1802030022
:1091080008B5024B1B681B69019308BD18020300D0
:1091180008B5024B1B685B69019308BD1802030080
:1091280008B5024B1B689B6A019308BD180203002F
:1091380008B5024B1B685B6C019308BD180203005D
:1091480008B5024B1B689B6C019308BD180203000D
:1091580008B5024B1B685B68019308BD2C0203002D
:1091680008B5024B1B689B68019308BD2C020300DD
:1091780008B5024B1B68DB68019308BD2C0203008D
:1091880008B5024B1B681B69019308BD2C0203003C
:1091980008B5024B1B685B69019308BD2C020300EC
:1091A80008B5024B1B689B69019308BD2C0203009C
:1091B80008B5024B1B68DB69019308BD2C0203004C
:1091C80008B5024B1B689B6A019308BD2C0203007B
:1091D80008B5024B1B681B6B019308BD2C020300EA
:1091E80008B5024B1B689B6F019308BD2C02030056
:1091F80008B5024B1B68DB68019308BD2802030011
:1092080008B5024B1B685B69019308BD280203007F
:1092180008B5024B1B689B69019308BD280203002F
:1092280008B5024B1B68DB69019308BD28020300DF
:1092380008B5024B1B681B6A019308BD280203008E
:1092480008B5024B1B685B6A019308BD280203003E
:1092580008B5024B1B689B6A019308BD28020300EE
:1092680008B5024B1B68DB6A019308BD280203009E
:1092780008B5024B1B681B6B019308BD280203004D
:1092880008B5024B1B685B6B019308BD28020300FD
:1092980008B5024B1B681B6C019308BD280203002C
:1092A80008B5024B1B681B69019308BD6C020300DB
:1092B80008B5024B1B685B69019308BD6C0203008B
:1092C80008B5024B1B689B69019308BD6C0203003B
:1092D80008B5024B1B685B6D019308BD6C02030067
:1092E80008B5024B1B689B6D019308BD6C02030017
:1092F80008B5024B1B685B69019308BD6402030053
:1093080008B5024B1B689B69019308BD6402030002
:1093180008B5024B1B685B6A019308BD6402030031
:1093280008B5024B1B689B6A019308BD64020300E1
:1093380008B5024B1B689B68019308BD68020300CF
:1093480008B5024B1B68DB68019308BD680203007F
:1093580008B5024B1B681B68019308BD2402030073
:1093680008B5024B1B685B68019308BD2402030023
:1093780008B5024B1B685B68019308BD38020300FF
:1093880008B5024B1B689B69019308BD38020300AE
:1093980008B5024B1B68DB69019308BD380203005E
:1093A80008B5024B1B68DB6A019308BD380203004D
:1093B80008B5024B1B685B6B019308BD38020300BC
:1093C80008B5024B1B689B6B019308BD380203006C
:1093D80008B5024B1B681B68019308BD30020300E7
:1093E80008B5024B1B689B68019308BD3002030057
:1093F80008B5024B1B68DB68019308BD3002030007
:1094080008B5024B1B681B69019308BD30020300B5
:1094180008B5024B1B685B69019308BD3002030065
:1094280008B5024B1B68DB69019308BD30020300D5
:1094380008B5024B1B681B6A019308BD3002030084
:1094480008B5024B1B685B6A019308BD3002030034
:1094580008B5024B1B681B68019308BD3C0203005A
:1094680008B5024B1B68DB68019308BD3C0203008A
:1094780008B5024B1B681B69019308BD3C02030039
:1094880008B5024B1B685B69019308BD3C020300E9
:1094980008B5024B1B689B69019308BD3C02030099
:1094A80008B5024B1B68DB69019308BD3C02030049
:1094B80008B5024B1B681B6A019308BD3C020300F8
:1094C80008B5024B1B689B6A019308BD3C02030068
:1094D80008B5024B1B681B68019308BD4C020300CA
:1094E80008B5024B1B685B68019308BD4C0203007A
:1094F80008B5024B1B681B69019308BD4C020300A9
:1095080008B5024B1B685B69019308BD4C02030058
:1095180008B5024B1B689B69019308BD4C02030008
:1095280008B5024B1B68DB69019308BD4C020300B8
:1095380008B5024B1B681B6A019308BD4C02030067
:1095480008B5024B1B685B6B019308BD6002030002
:1095580008B5024B1B681B6D019308BD6002030030
:1095680008B5024B1B685B68019308BD2002030025
:1095780008B5024B1B685B69019308BD2002030014
:1095880008B5024B1B68DB6A019308BD2002030083
:1095980008B5024B1B68DB6C019308BD2002030071
:1095A80008B5024B1B685B6D019308BD20020300E0
:1095B80008B5034B1B68D3F88830019308BD000039
:1095C8002002030008B5034B1B68D3F894300193BD
:1095D80008BD00002002030008B5034B1B68D3F840
:1095E800A430019308BD00002002030008B5034B16
:1095F8001B68D3F8A830019308BD000020020300BF
:1096080008B5024B1B681B68019308BD44020300A0
:1096180008B5024B1B685B68019308BD4402030050
:1096280008B5024B1B68DB68019308BD44020300C0
:1096380008B5024B1B68DB69019308BD44020300AF
:1096480008B5024B1B681B6A019308BD440203005E
:1096580008B5024B1B685B6A019308BD440203000E
:1096680008B5024B1B68DB6B019308BD440203007D
:1096780008B5024B1B685B68019308BD40020300F4
:1096880008B5024B1B689B68019308BD40020300A4
:1096980008B5024B1B681B69019308BD4002030013
:1096A80008B5024B1B685B69019308BD40020300C3
:1096B80008B5024B1B681B6A019308BD40020300F2
:1096C80008B5024B1B681B68019308BD1C02030008
:1096D80008B5024B1B685B68019308BD1C020300B8
:1096E80008B5024B1B689B68019308BD1C02030068
:1096F80008B5024B1B685B6A019308BD1C02030096
:1097080008B5024B1B68DB6A019308BD1C02030005
:1097180008B5024B1B681B6B019308BD1C020300B4
:109728000021FFF725BF10B5836804460BB901F087
:1097380042FFC3689847A3681BB10322214620460D
:1097480098472046BDE81040FAF7A5BC70470020AE
:10975800704710B50446FAF79EFC204610BD08B5C0
:1097680008B1FFF7F6FF08BD10B58368044613B1CA
:10977800032201469847204610BD38B5C468D4B1C5
:109788002378022B02D1E068FFF7A2FF65682DB1AC
:109798002846FFF7E9FF2846FAF77DFCA5682DB1B2
:1097A8002846FFF7E1FF2846FAF775FC2046BDE892
:1097B8003840FAF770BC38BD10B588B00446684622
:1097C80000F047FF694604A800F082FF04A8A047FC
:1097D800044604A800F0F6FE684600F0F3FE2046B2
:1097E80008B010BDF0B5102485B007460E461546E2
:1097F80000212246684602F04FFD002269461046C5
:10980800ADF80040029703960195FFF701FF05B0F8
:10981800F0BD13B5044691E8050000234B600B60CA
:109828002060626001A801930093FCF7B7F9204615
:1098380002B010BD0B68036013B15A6801325A6058
:109848007047F7B50C4602AD54F8043B45F8083D9F
:1098580006460F4601A82146FFF7ECFF2946304689
:10986800FFF7D7FF01A8FCF799F92046FCF796F90E
:109878003846FAF710FC304603B0F0BD13B50B4676
:10988800044603C88DE8030093E8030084E8030056
:109898009DE8030083E8030002B010BD826810B59C
:1098A8000AB901F088FEC368BDE81040184708B53A
:1098B800006800F11001FFF7F1FF08BD826810B5DC
:1098C8000AB901F078FEC368BDE81040184708B52A
:1098D800006800F11001FFF7F1FF08BD38B500235B
:1098E80083608B6804460D462BB102229847EB68CB
:1098F800E360AB68A360204638BD00002DE9F04165
:109908004FF69C7386B00468B1F904208B8000235D
:109918000F688DF800300B604FF00200D4E84F1F3D
:10992800994203D1C4E8450F002DF7D102D08DF834
:1099380000106AE014F10C051EBFE76022821F4682
:109948000123BFF35F8F0020637004F10803BFF3A6
:109958005F8F53E8006F43E80002002AF9D1BFF394
:109968005F8F002E51D0FFF713FE20B129463046F5
:10997800FFF794FF43E031466846FFF7AFFFE06822
:10998800B4F9105008B102F0F9FC04901020ADF8B9
:109998001450FAF77CFB054630B34FF00008C0F8C6
:1099A80008801820FAF773FB0446C0B1C0F8088095
:1099B80001466846FFF762FF029BA268A360039B0B
:1099C8000292E268E360BDF81430A3824FF69C73FC
:1099D800ADF81430049B03922361CDF810800E4B30
:1099E800EB600E4B2C60AB600498FFF771FE684685
:1099F800FFF7BAFE002229460948FFF7D1FD304695
:109A0800FFF7B2FE3046FAF746FB3846FFF760FE2E
:109A180006B0BDE8F08100BFB7980D00159B0D009A
:109A28002F970D002DE9F04F8BB007AD4FF0000BCD
:109A38000646994614200C230F4690469DF850A0E0
:109A4800C5F804B0C5F808B00793FAF720FB044638
:109A580038B180F800B080F801B0C0F804B0C0F8A0
:109A680008B00023102003940493FAF710FB28B1E0
:109A7800012343608360234B0360C4600490224B3E
:109A880008930820FAF703FB044628B1039B40F823
:109A9800043B04A9FFF7CEFE00955FFA8AF34A4615
:109AA800414638460994FFF7CBFDB8B9039B5B786C
:109AB80003F0FF0293B94FF69C7305A903A805921A
:109AC800ADF81830FFF71AFF0598FFF701FE05A853
